{"contracts/LendingPool.sol":{"LendingPool":{"abi":[{"inputs":[{"internalType":"address","name":"_usdtToken","type":"address"},{"internalType":"address","name":"_agentRegistry","type":"address"}],"stateMutability":"nonpayable","type":"constructor"},{"anonymous":false,"inputs":[{"indexed":true,"internalType":"address","name":"borrower","type":"address"},{"indexed":false,"internalType":"uint256","name":"amount","type":"uint256"}],"name":"Borrowed","type":"event"},{"anonymous":false,"inputs":[{"indexed":true,"internalType":"address","name":"borrower","type":"address"},{"indexed":false,"internalType":"uint256","name":"amount","type":"uint256"}],"name":"CollateralAdded","type":"event"},{"anonymous":false,"inputs":[{"indexed":true,"internalType":"address","name":"lender","type":"address"},{"indexed":false,"internalType":"uint256","name":"amount","type":"uint256"}],"name":"Deposited","type":"event"},{"anonymous":false,"inputs":[{"indexed":true,"internalType":"address","name":"lender","type":"address"},{"indexed":false,"internalType":"uint256","name":"amount","type":"uint256"}],"name":"InterestPaid","type":"event"},{"anonymous":false,"inputs":[{"indexed":true,"internalType":"address","name":"previousOwner","type":"address"},{"indexed":true,"internalType":"address","name":"newOwner","type":"address"}],"name":"OwnershipTransferred","type":"event"},{"anonymous":false,"inputs":[{"indexed":true,"internalType":"address","name":"borrower","type":"address"},{"indexed":false,"internalType":"uint256","name":"amount","type":"uint256"}],"name":"Repaid","type":"event"},{"anonymous":false,"inputs":[{"indexed":true,"internalType":"address","name":"lender","type":"address"},{"indexed":false,"internalType":"uint256","name":"amount","type":"uint256"}],"name":"Withdrawn","type":"event"},{"inputs":[{"internalType":"uint256","name":"amount","type":"uint256"}],"name":"addCollateral","outputs":[],"stateMutability":"nonpayable","type":"function"},{"inputs":[],"name":"agentRegistry","outputs":[{"internalType":"contract IAgentRegistry","name":"","type":"address"}],"stateMutability":"view","type":"function"},{"inputs":[],"name":"baseCollateralRatio","outputs":[{"internalType":"uint256","name":"","type":"uint256"}],"stateMutability":"view","type":"function"},{"inputs":[{"internalType":"uint256","name":"amount","type":"uint256"}],"name":"borrow","outputs":[],"stateMutability":"nonpayable","type":"function"},{"inputs":[{"internalType":"uint256","name":"","type":"uint256"}],"name":"borrowerList","outputs":[{"internalType":"address","name":"","type":"address"}],"stateMutability":"view","type":"function"},{"inputs":[{"internalType":"address","name":"","type":"address"}],"name":"borrowers","outputs":[{"internalType":"uint256","name":"borrowedAmount","type":"uint256"},{"internalType":"uint256","name":"lastBorrowTime","type":"uint256"},{"internalType":"uint256","name":"collateralAmount","type":"uint256"},{"internalType":"bool","name":"isCollateralLocked","type":"bool"}],"stateMutability":"view","type":"function"},{"inputs":[{"internalType":"address","name":"lender","type":"address"}],"name":"calculatePendingInterest","outputs":[{"internalType":"uint256","name":"","type":"uint256"}],"stateMutability":"view","type":"function"},{"inputs":[{"internalType":"uint256","name":"amount","type":"uint256"}],"name":"deposit","outputs":[],"stateMutability":"nonpayable","type":"function"},{"inputs":[],"name":"emergencyWithdraw","outputs":[],"stateMutability":"nonpayable","type":"function"},{"inputs":[{"internalType":"address","name":"borrower","type":"address"}],"name":"getBorrowerPosition","outputs":[{"internalType":"uint256","name":"borrowedAmount","type":"uint256"},{"internalType":"uint256","name":"collateralAmount","type":"uint256"}],"stateMutability":"view","type":"function"},{"inputs":[{"internalType":"address","name":"lender","type":"address"}],"name":"getLenderPosition","outputs":[{"internalType":"uint256","name":"depositedAmount","type":"uint256"},{"internalType":"uint256","name":"earnedInterest","type":"uint256"}],"stateMutability":"view","type":"function"},{"inputs":[],"name":"getPoolStats","outputs":[{"internalType":"uint256","name":"_totalDeposits","type":"uint256"},{"internalType":"uint256","name":"_totalBorrowed","type":"uint256"},{"internalType":"uint256","name":"_availableLiquidity","type":"uint256"},{"internalType":"uint256","name":"_interestRate","type":"uint256"}],"stateMutability":"view","type":"function"},{"inputs":[],"name":"interestRate","outputs":[{"internalType":"uint256","name":"","type":"uint256"}],"stateMutability":"view","type":"function"},{"inputs":[{"internalType":"uint256","name":"","type":"uint256"}],"name":"lenderList","outputs":[{"internalType":"address","name":"","type":"address"}],"stateMutability":"view","type":"function"},{"inputs":[{"internalType":"address","name":"","type":"address"}],"name":"lenders","outputs":[{"internalType":"uint256","name":"depositedAmount","type":"uint256"},{"internalType":"uint256","name":"lastDepositTime","type":"uint256"},{"internalType":"uint256","name":"earnedInterest","type":"uint256"}],"stateMutability":"view","type":"function"},{"inputs":[],"name":"owner","outputs":[{"internalType":"address","name":"","type":"address"}],"stateMutability":"view","type":"function"},{"inputs":[],"name":"renounceOwnership","outputs":[],"stateMutability":"nonpayable","type":"function"},{"inputs":[{"internalType":"address","name":"_borrower","type":"address"},{"internalType":"uint256","name":"amount","type":"uint256"}],"name":"repay","outputs":[],"stateMutability":"nonpayable","type":"function"},{"inputs":[{"internalType":"uint256","name":"newRatio","type":"uint256"}],"name":"setCollateralRatio","outputs":[],"stateMutability":"nonpayable","type":"function"},{"inputs":[{"internalType":"uint256","name":"newRate","type":"uint256"}],"name":"setInterestRate","outputs":[],"stateMutability":"nonpayable","type":"function"},{"inputs":[{"internalType":"address","name":"_processor","type":"address"}],"name":"setX402Processor","outputs":[],"stateMutability":"nonpayable","type":"function"},{"inputs":[],"name":"totalBorrowed","outputs":[{"internalType":"uint256","name":"","type":"uint256"}],"stateMutability":"view","type":"function"},{"inputs":[],"name":"totalDeposits","outputs":[{"internalType":"uint256","name":"","type":"uint256"}],"stateMutability":"view","type":"function"},{"inputs":[{"internalType":"address","name":"newOwner","type":"address"}],"name":"transferOwnership","outputs":[],"stateMutability":"nonpayable","type":"function"},{"inputs":[],"name":"usdtToken","outputs":[{"internalType":"contract IERC20","name":"","type":"address"}],"stateMutability":"view","type":"function"},{"inputs":[{"internalType":"uint256","name":"amount","type":"uint256"}],"name":"withdraw","outputs":[],"stateMutability":"nonpayable","type":"function"},{"inputs":[],"name":"x402Processor","outputs":[{"internalType":"address","name":"","type":"address"}],"stateMutability":"view","type":"function"}],"evm":{"bytecode":{"linkReferences":{},"object":"60806040526101f4600b556096600c553480156200001c57600080fd5b5060405162001669380380620016698339810160408190526200003f91620000ed565b6200004a3362000080565b60018055600280546001600160a01b039384166001600160a01b0319918216179091556003805492909316911617905562000125565b600080546001600160a01b038381166001600160a01b0319831681178455604051919092169283917f8be0079c531659141344cd1fd0a4f28419497f9722a3daafe3b4186f6b6457e09190a35050565b80516001600160a01b0381168114620000e857600080fd5b919050565b600080604083850312156200010157600080fd5b6200010c83620000d0565b91506200011c60208401620000d0565b90509250929050565b61153480620001356000396000f3fe608060405234801561001057600080fd5b50600436106101a95760003560e01c80638da5cb5b116100f9578063bf5d50c411610097578063db2e21bc11610071578063db2e21bc1461042b578063f2fde38b14610433578063fcad8ff314610446578063fd7be1361461044f57600080fd5b8063bf5d50c4146103ab578063c5ebeaec14610405578063c8bea3171461041857600080fd5b8063b6b55f25116100d3578063b6b55f251461032c578063bb3f67361461033f578063bbb8518814610370578063bcc46e831461039857600080fd5b80638da5cb5b146102f5578063a98ad46c14610306578063b3a665241461031957600080fd5b80635f84f30211610166578063715018a611610140578063715018a6146102c85780637c3a00fd146102d05780637d882097146102d95780638cbc84ba146102e257600080fd5b80635f84f3021461028f5780636060663e146102a25780636085c7df146102b557600080fd5b80630d1cfcae146101ae57806322867d78146101de57806328fd10d7146101f35780632e1a7d4d1461023d5780634c19386c146102505780635d413fa214610267575b600080fd5b6003546101c1906001600160a01b031681565b6040516001600160a01b0390911681526020015b60405180910390f35b6101f16101ec366004611383565b610462565b005b6102226102013660046113ad565b60056020526000908152604090208054600182015460029092015490919083565b604080519384526020840192909252908201526060016101d5565b6101f161024b3660046113cf565b61062c565b610259600a5481565b6040519081526020016101d5565b61027a6102753660046113ad565b610828565b604080519283526020830191909152016101d5565b6101f161029d3660046113cf565b61086f565b6101f16102b03660046113cf565b6108c7565b6101c16102c33660046113cf565b610933565b6101f161095d565b610259600b5481565b61025960095481565b6101f16102f03660046113ad565b610971565b6000546001600160a01b03166101c1565b6002546101c1906001600160a01b031681565b6101c16103273660046113cf565b61099b565b6101f161033a3660046113cf565b6109ab565b61027a61034d3660046113ad565b6001600160a01b0316600090815260066020526040902080546002909101549091565b610378610b8f565b6040805194855260208501939093529183015260608201526080016101d5565b6101f16103a63660046113cf565b610bbc565b6103e36103b93660046113ad565b60066020526000908152604090208054600182015460028301546003909301549192909160ff1684565b60408051948552602085019390935291830152151560608201526080016101d5565b6101f16104133660046113cf565b610cd6565b6102596104263660046113ad565b611019565b6101f16110c6565b6101f16104413660046113ad565b6111ee565b610259600c5481565b6004546101c1906001600160a01b031681565b61046a611264565b600081116104935760405162461bcd60e51b815260040161048a906113e8565b60405180910390fd5b6001600160a01b038216600090815260066020526040902080548211156104fc5760405162461bcd60e51b815260206004820152601e60248201527f416d6f756e74206578636565647320626f72726f77656420616d6f756e740000604482015260640161048a565b818160000160008282546105109190611435565b9250508190555081600a60008282546105299190611435565b909155505080546000036105445760038101805460ff191690555b6002546040516323b872dd60e01b8152336004820152306024820152604481018490526001600160a01b03909116906323b872dd906064016020604051808303816000875af115801561059b573d6000803e3d6000fd5b505050506040513d601f19601f820116820180604052508101906105bf919061144e565b6105db5760405162461bcd60e51b815260040161048a90611470565b826001600160a01b03167f0516911bcc3a0a7412a44601057c0a0a1ec628bde049a84284bc4288665344888360405161061691815260200190565b60405180910390a25061062860018055565b5050565b610634611264565b600081116106545760405162461bcd60e51b815260040161048a906113e8565b336000908152600560205260408120600281015481549192916106779190611499565b9050808311156106c05760405162461bcd60e51b8152602060048201526014602482015273496e73756666696369656e742062616c616e636560601b604482015260640161048a565b60006106cb33611019565b905060008184600201546106df9190611499565b90506000846000015486116106f457856106f7565b84545b905060006107058288611435565b90508186600001600082825461071b9190611435565b9091555061072b90508184611435565b60028701554260018701556009805483919060009061074b908490611435565b909155505060025460405163a9059cbb60e01b8152336004820152602481018990526001600160a01b039091169063a9059cbb906044016020604051808303816000875af11580156107a1573d6000803e3d6000fd5b505050506040513d601f19601f820116820180604052508101906107c5919061144e565b6107e15760405162461bcd60e51b815260040161048a90611470565b60405187815233907f7084f5476618d8e60b11ef0d7d3f06914655adb8793e28ff7f018d4c76d505d59060200160405180910390a250505050505061082560018055565b50565b600080600061083684611019565b6001600160a01b0385166000908152600560205260409020805460029091015491925090610865908390611499565b9250925050915091565b6108776112bd565b6107d08111156108c25760405162461bcd60e51b8152602060048201526016602482015275092dce8cae4cae6e840e4c2e8ca40e8dede40d0d2ced60531b604482015260640161048a565b600b55565b6108cf6112bd565b606481101580156108e2575061012c8111155b61092e5760405162461bcd60e51b815260206004820152601860248201527f496e76616c696420636f6c6c61746572616c20726174696f0000000000000000604482015260640161048a565b600c55565b6007818154811061094357600080fd5b6000918252602090912001546001600160a01b0316905081565b6109656112bd565b61096f6000611317565b565b6109796112bd565b600480546001600160a01b0319166001600160a01b0392909216919091179055565b6008818154811061094357600080fd5b6109b3611264565b600081116109d35760405162461bcd60e51b815260040161048a906113e8565b6002546040516323b872dd60e01b8152336004820152306024820152604481018390526001600160a01b03909116906323b872dd906064016020604051808303816000875af1158015610a2a573d6000803e3d6000fd5b505050506040513d601f19601f82011682018060405250810190610a4e919061144e565b610a6a5760405162461bcd60e51b815260040161048a90611470565b336000908152600560205260408120549003610ac357600780546001810182556000919091527fa66cc928b5edb82af9bd49922954155ab7b0942694bea4ce44661d9a8736c6880180546001600160a01b031916331790555b6000610ace33611019565b90508015610afe573360009081526005602052604081206002018054839290610af8908490611499565b90915550505b3360009081526005602052604081208054849290610b1d908490611499565b90915550503360009081526005602052604081204260019091015560098054849290610b4a908490611499565b909155505060405182815233907f2da466a7b24304f47e87fa2e1e5a81b9831ce54fec19055ce277ca2f39ba42c4906020015b60405180910390a25061082560018055565b600080600080600954600a54600a54600954610bab9190611435565b600b54935093509350935090919293565b610bc4611264565b60008111610be45760405162461bcd60e51b815260040161048a906113e8565b6002546040516323b872dd60e01b8152336004820152306024820152604481018390526001600160a01b03909116906323b872dd906064016020604051808303816000875af1158015610c3b573d6000803e3d6000fd5b505050506040513d601f19601f82011682018060405250810190610c5f919061144e565b610c7b5760405162461bcd60e51b815260040161048a90611470565b33600090815260066020526040812060028101805491928492610c9f908490611499565b909155505060405182815233907f7dba1be544024070cd5eebfa8bdd80a8b198cea8058c7d3cc1f8dd36e41ab2f790602001610b7d565b610cde611264565b60008111610cfe5760405162461bcd60e51b815260040161048a906113e8565b600354604051630d47875d60e41b81523360048201526000916001600160a01b03169063d47875d090602401602060405180830381865afa158015610d47573d6000803e3d6000fd5b505050506040513d601f19601f82011682018060405250810190610d6b91906114ac565b905060006103208210610d835750631dcd6500610da7565b6102bc8210610d975750630bebc200610da7565b6102588210610da757506302faf0805b60008111610df75760405162461bcd60e51b815260206004820152601e60248201527f4372656469742073636f726520746f6f206c6f7720746f20626f72726f770000604482015260640161048a565b33600090815260066020526040902080548290610e15908690611499565b1115610e635760405162461bcd60e51b815260206004820181905260248201527f457863656564732073636f72652d626173656420637265646974206c696d6974604482015260640161048a565b83600a54610e719190611499565b6009541015610ec25760405162461bcd60e51b815260206004820152601e60248201527f496e73756666696369656e74206c697175696469747920696e20706f6f6c0000604482015260640161048a565b8054600003610f0e57600880546001810182556000919091527ff3f7a9fe364faab93b216da50a3214154f22a0a2b415b23a84c8169e8b636ee30180546001600160a01b031916331790555b83816000016000828254610f229190611499565b9091555050426001820155600a8054859190600090610f42908490611499565b909155505060025460405163a9059cbb60e01b8152336004820152602481018690526001600160a01b039091169063a9059cbb906044016020604051808303816000875af1158015610f98573d6000803e3d6000fd5b505050506040513d601f19601f82011682018060405250810190610fbc919061144e565b610fd85760405162461bcd60e51b815260040161048a90611470565b60405184815233907fac59582e5396aca512fa873a2047e7f4c80f8f55d4a06cb34a78a0187f62719f9060200160405180910390a250505061082560018055565b6001600160a01b0381166000908152600560209081526040808320815160608101835281548082526001830154948201949094526002909101549181019190915290820361106a5750600092915050565b600081602001514261107c9190611435565b90506000612710600b54846000015161109591906114c5565b61109f91906114dc565b905060006301e133806110b284846114c5565b6110bc91906114dc565b9695505050505050565b6110ce6112bd565b6002546040516370a0823160e01b81523060048201526000916001600160a01b0316906370a0823190602401602060405180830381865afa158015611117573d6000803e3d6000fd5b505050506040513d601f19601f8201168201806040525081019061113b91906114ac565b6002549091506001600160a01b031663a9059cbb6111616000546001600160a01b031690565b6040516001600160e01b031960e084901b1681526001600160a01b039091166004820152602481018490526044016020604051808303816000875af11580156111ae573d6000803e3d6000fd5b505050506040513d601f19601f820116820180604052508101906111d2919061144e565b6108255760405162461bcd60e51b815260040161048a90611470565b6111f66112bd565b6001600160a01b03811661125b5760405162461bcd60e51b815260206004820152602660248201527f4f776e61626c653a206e6577206f776e657220697320746865207a65726f206160448201526564647265737360d01b606482015260840161048a565b61082581611317565b6002600154036112b65760405162461bcd60e51b815260206004820152601f60248201527f5265656e7472616e637947756172643a207265656e7472616e742063616c6c00604482015260640161048a565b6002600155565b6000546001600160a01b0316331461096f5760405162461bcd60e51b815260206004820181905260248201527f4f776e61626c653a2063616c6c6572206973206e6f7420746865206f776e6572604482015260640161048a565b600080546001600160a01b038381166001600160a01b0319831681178455604051919092169283917f8be0079c531659141344cd1fd0a4f28419497f9722a3daafe3b4186f6b6457e09190a35050565b80356001600160a01b038116811461137e57600080fd5b919050565b6000806040838503121561139657600080fd5b61139f83611367565b946020939093013593505050565b6000602082840312156113bf57600080fd5b6113c882611367565b9392505050565b6000602082840312156113e157600080fd5b5035919050565b6020808252601d908201527f416d6f756e74206d7573742062652067726561746572207468616e2030000000604082015260600190565b634e487b7160e01b600052601160045260246000fd5b818103818111156114485761144861141f565b92915050565b60006020828403121561146057600080fd5b815180151581146113c857600080fd5b6020808252600f908201526e151c985b9cd9995c8819985a5b1959608a1b604082015260600190565b808201808211156114485761144861141f565b6000602082840312156114be57600080fd5b5051919050565b80820281158282048414176114485761144861141f565b6000826114f957634e487b7160e01b600052601260045260246000fd5b50049056fea26469706673582212206141cdbfbcfbcd9665403016f8bb8e64d2f819b7b46122dfc8a5db9abc32d66464736f6c63430008130033","opcodes":"PUSH1 0x80 PUSH1 0x40 MSTORE PUSH2 0x1F4 PUSH1 0xB SSTORE PUSH1 0x96 PUSH1 0xC SSTORE CALLVALUE DUP1 ISZERO PUSH3 0x1C JUMPI PUSH1 0x0 DUP1 REVERT JUMPDEST POP PUSH1 0x40 MLOAD PUSH3 0x1669 CODESIZE SUB DUP1 PUSH3 0x1669 DUP4 CODECOPY DUP2 ADD PUSH1 0x40 DUP2 SWAP1 MSTORE PUSH3 0x3F SWAP2 PUSH3 0xED JUMP JUMPDEST PUSH3 0x4A CALLER PUSH3 0x80 JUMP JUMPDEST PUSH1 0x1 DUP1 SSTORE PUSH1 0x2 DUP1 SLOAD PUSH1 0x1 PUSH1 0x1 PUSH1 0xA0 SHL SUB SWAP4 DUP5 AND PUSH1 0x1 PUSH1 0x1 PUSH1 0xA0 SHL SUB NOT SWAP2 DUP3 AND OR SWAP1 SWAP2 SSTORE PUSH1 0x3 DUP1 SLOAD SWAP3 SWAP1 SWAP4 AND SWAP2 AND OR SWAP1 SSTORE PUSH3 0x125 JUMP JUMPDEST PUSH1 0x0 DUP1 SLOAD PUSH1 0x1 PUSH1 0x1 PUSH1 0xA0 SHL SUB DUP4 DUP2 AND PUSH1 0x1 PUSH1 0x1 PUSH1 0xA0 SHL SUB NOT DUP4 AND DUP2 OR DUP5 SSTORE PUSH1 0x40 MLOAD SWAP2 SWAP1 SWAP3 AND SWAP3 DUP4 SWAP2 PUSH32 0x8BE0079C531659141344CD1FD0A4F28419497F9722A3DAAFE3B4186F6B6457E0 SWAP2 SWAP1 LOG3 POP POP JUMP JUMPDEST DUP1 MLOAD PUSH1 0x1 PUSH1 0x1 PUSH1 0xA0 SHL SUB DUP2 AND DUP2 EQ PUSH3 0xE8 JUMPI PUSH1 0x0 DUP1 REVERT JUMPDEST SWAP2 SWAP1 POP JUMP JUMPDEST PUSH1 0x0 DUP1 PUSH1 0x40 DUP4 DUP6 SUB SLT ISZERO PUSH3 0x101 JUMPI PUSH1 0x0 DUP1 REVERT JUMPDEST PUSH3 0x10C DUP4 PUSH3 0xD0 JUMP JUMPDEST SWAP2 POP PUSH3 0x11C PUSH1 0x20 DUP5 ADD PUSH3 0xD0 JUMP JUMPDEST SWAP1 POP SWAP3 POP SWAP3 SWAP1 POP JUMP JUMPDEST PUSH2 0x1534 DUP1 PUSH3 0x135 PUSH1 0x0 CODECOPY PUSH1 0x0 RETURN INVALID PUSH1 0x80 PUSH1 0x40 MSTORE CALLVALUE DUP1 ISZERO PUSH2 0x10 JUMPI PUSH1 0x0 DUP1 REVERT JUMPDEST POP PUSH1 0x4 CALLDATASIZE LT PUSH2 0x1A9 JUMPI PUSH1 0x0 CALLDATALOAD PUSH1 0xE0 SHR DUP1 PUSH4 0x8DA5CB5B GT PUSH2 0xF9 JUMPI DUP1 PUSH4 0xBF5D50C4 GT PUSH2 0x97 JUMPI DUP1 PUSH4 0xDB2E21BC GT PUSH2 0x71 JUMPI DUP1 PUSH4 0xDB2E21BC EQ PUSH2 0x42B JUMPI DUP1 PUSH4 0xF2FDE38B EQ PUSH2 0x433 JUMPI DUP1 PUSH4 0xFCAD8FF3 EQ PUSH2 0x446 JUMPI DUP1 PUSH4 0xFD7BE136 EQ PUSH2 0x44F JUMPI PUSH1 0x0 DUP1 REVERT JUMPDEST DUP1 PUSH4 0xBF5D50C4 EQ PUSH2 0x3AB JUMPI DUP1 PUSH4 0xC5EBEAEC EQ PUSH2 0x405 JUMPI DUP1 PUSH4 0xC8BEA317 EQ PUSH2 0x418 JUMPI PUSH1 0x0 DUP1 REVERT JUMPDEST DUP1 PUSH4 0xB6B55F25 GT PUSH2 0xD3 JUMPI DUP1 PUSH4 0xB6B55F25 EQ PUSH2 0x32C JUMPI DUP1 PUSH4 0xBB3F6736 EQ PUSH2 0x33F JUMPI DUP1 PUSH4 0xBBB85188 EQ PUSH2 0x370 JUMPI DUP1 PUSH4 0xBCC46E83 EQ PUSH2 0x398 JUMPI PUSH1 0x0 DUP1 REVERT JUMPDEST DUP1 PUSH4 0x8DA5CB5B EQ PUSH2 0x2F5 JUMPI DUP1 PUSH4 0xA98AD46C EQ PUSH2 0x306 JUMPI DUP1 PUSH4 0xB3A66524 EQ PUSH2 0x319 JUMPI PUSH1 0x0 DUP1 REVERT JUMPDEST DUP1 PUSH4 0x5F84F302 GT PUSH2 0x166 JUMPI DUP1 PUSH4 0x715018A6 GT PUSH2 0x140 JUMPI DUP1 PUSH4 0x715018A6 EQ PUSH2 0x2C8 JUMPI DUP1 PUSH4 0x7C3A00FD EQ PUSH2 0x2D0 JUMPI DUP1 PUSH4 0x7D882097 EQ PUSH2 0x2D9 JUMPI DUP1 PUSH4 0x8CBC84BA EQ PUSH2 0x2E2 JUMPI PUSH1 0x0 DUP1 REVERT JUMPDEST DUP1 PUSH4 0x5F84F302 EQ PUSH2 0x28F JUMPI DUP1 PUSH4 0x6060663E EQ PUSH2 0x2A2 JUMPI DUP1 PUSH4 0x6085C7DF EQ PUSH2 0x2B5 JUMPI PUSH1 0x0 DUP1 REVERT JUMPDEST DUP1 PUSH4 0xD1CFCAE EQ PUSH2 0x1AE JUMPI DUP1 PUSH4 0x22867D78 EQ PUSH2 0x1DE JUMPI DUP1 PUSH4 0x28FD10D7 EQ PUSH2 0x1F3 JUMPI DUP1 PUSH4 0x2E1A7D4D EQ PUSH2 0x23D JUMPI DUP1 PUSH4 0x4C19386C EQ PUSH2 0x250 JUMPI DUP1 PUSH4 0x5D413FA2 EQ PUSH2 0x267 JUMPI JUMPDEST PUSH1 0x0 DUP1 REVERT JUMPDEST PUSH1 0x3 SLOAD PUSH2 0x1C1 SWAP1 PUSH1 0x1 PUSH1 0x1 PUSH1 0xA0 SHL SUB AND DUP2 JUMP JUMPDEST PUSH1 0x40 MLOAD PUSH1 0x1 PUSH1 0x1 PUSH1 0xA0 SHL SUB SWAP1 SWAP2 AND DUP2 MSTORE PUSH1 0x20 ADD JUMPDEST PUSH1 0x40 MLOAD DUP1 SWAP2 SUB SWAP1 RETURN JUMPDEST PUSH2 0x1F1 PUSH2 0x1EC CALLDATASIZE PUSH1 0x4 PUSH2 0x1383 JUMP JUMPDEST PUSH2 0x462 JUMP JUMPDEST STOP JUMPDEST PUSH2 0x222 PUSH2 0x201 CALLDATASIZE PUSH1 0x4 PUSH2 0x13AD JUMP JUMPDEST PUSH1 0x5 PUSH1 0x20 MSTORE PUSH1 0x0 SWAP1 DUP2 MSTORE PUSH1 0x40 SWAP1 KECCAK256 DUP1 SLOAD PUSH1 0x1 DUP3 ADD SLOAD PUSH1 0x2 SWAP1 SWAP3 ADD SLOAD SWAP1 SWAP2 SWAP1 DUP4 JUMP JUMPDEST PUSH1 0x40 DUP1 MLOAD SWAP4 DUP5 MSTORE PUSH1 0x20 DUP5 ADD SWAP3 SWAP1 SWAP3 MSTORE SWAP1 DUP3 ADD MSTORE PUSH1 0x60 ADD PUSH2 0x1D5 JUMP JUMPDEST PUSH2 0x1F1 PUSH2 0x24B CALLDATASIZE PUSH1 0x4 PUSH2 0x13CF JUMP JUMPDEST PUSH2 0x62C JUMP JUMPDEST PUSH2 0x259 PUSH1 0xA SLOAD DUP2 JUMP JUMPDEST PUSH1 0x40 MLOAD SWAP1 DUP2 MSTORE PUSH1 0x20 ADD PUSH2 0x1D5 JUMP JUMPDEST PUSH2 0x27A PUSH2 0x275 CALLDATASIZE PUSH1 0x4 PUSH2 0x13AD JUMP JUMPDEST PUSH2 0x828 JUMP JUMPDEST PUSH1 0x40 DUP1 MLOAD SWAP3 DUP4 MSTORE PUSH1 0x20 DUP4 ADD SWAP2 SWAP1 SWAP2 MSTORE ADD PUSH2 0x1D5 JUMP JUMPDEST PUSH2 0x1F1 PUSH2 0x29D CALLDATASIZE PUSH1 0x4 PUSH2 0x13CF JUMP JUMPDEST PUSH2 0x86F JUMP JUMPDEST PUSH2 0x1F1 PUSH2 0x2B0 CALLDATASIZE PUSH1 0x4 PUSH2 0x13CF JUMP JUMPDEST PUSH2 0x8C7 JUMP JUMPDEST PUSH2 0x1C1 PUSH2 0x2C3 CALLDATASIZE PUSH1 0x4 PUSH2 0x13CF JUMP JUMPDEST PUSH2 0x933 JUMP JUMPDEST PUSH2 0x1F1 PUSH2 0x95D JUMP JUMPDEST PUSH2 0x259 PUSH1 0xB SLOAD DUP2 JUMP JUMPDEST PUSH2 0x259 PUSH1 0x9 SLOAD DUP2 JUMP JUMPDEST PUSH2 0x1F1 PUSH2 0x2F0 CALLDATASIZE PUSH1 0x4 PUSH2 0x13AD JUMP JUMPDEST PUSH2 0x971 JUMP JUMPDEST PUSH1 0x0 SLOAD PUSH1 0x1 PUSH1 0x1 PUSH1 0xA0 SHL SUB AND PUSH2 0x1C1 JUMP JUMPDEST PUSH1 0x2 SLOAD PUSH2 0x1C1 SWAP1 PUSH1 0x1 PUSH1 0x1 PUSH1 0xA0 SHL SUB AND DUP2 JUMP JUMPDEST PUSH2 0x1C1 PUSH2 0x327 CALLDATASIZE PUSH1 0x4 PUSH2 0x13CF JUMP JUMPDEST PUSH2 0x99B JUMP JUMPDEST PUSH2 0x1F1 PUSH2 0x33A CALLDATASIZE PUSH1 0x4 PUSH2 0x13CF JUMP JUMPDEST PUSH2 0x9AB JUMP JUMPDEST PUSH2 0x27A PUSH2 0x34D CALLDATASIZE PUSH1 0x4 PUSH2 0x13AD JUMP JUMPDEST PUSH1 0x1 PUSH1 0x1 PUSH1 0xA0 SHL SUB AND PUSH1 0x0 SWAP1 DUP2 MSTORE PUSH1 0x6 PUSH1 0x20 MSTORE PUSH1 0x40 SWAP1 KECCAK256 DUP1 SLOAD PUSH1 0x2 SWAP1 SWAP2 ADD SLOAD SWAP1 SWAP2 JUMP JUMPDEST PUSH2 0x378 PUSH2 0xB8F JUMP JUMPDEST PUSH1 0x40 DUP1 MLOAD SWAP5 DUP6 MSTORE PUSH1 0x20 DUP6 ADD SWAP4 SWAP1 SWAP4 MSTORE SWAP2 DUP4 ADD MSTORE PUSH1 0x60 DUP3 ADD MSTORE PUSH1 0x80 ADD PUSH2 0x1D5 JUMP JUMPDEST PUSH2 0x1F1 PUSH2 0x3A6 CALLDATASIZE PUSH1 0x4 PUSH2 0x13CF JUMP JUMPDEST PUSH2 0xBBC JUMP JUMPDEST PUSH2 0x3E3 PUSH2 0x3B9 CALLDATASIZE PUSH1 0x4 PUSH2 0x13AD JUMP JUMPDEST PUSH1 0x6 PUSH1 0x20 MSTORE PUSH1 0x0 SWAP1 DUP2 MSTORE PUSH1 0x40 SWAP1 KECCAK256 DUP1 SLOAD PUSH1 0x1 DUP3 ADD SLOAD PUSH1 0x2 DUP4 ADD SLOAD PUSH1 0x3 SWAP1 SWAP4 ADD SLOAD SWAP2 SWAP3 SWAP1 SWAP2 PUSH1 0xFF AND DUP5 JUMP JUMPDEST PUSH1 0x40 DUP1 MLOAD SWAP5 DUP6 MSTORE PUSH1 0x20 DUP6 ADD SWAP4 SWAP1 SWAP4 MSTORE SWAP2 DUP4 ADD MSTORE ISZERO ISZERO PUSH1 0x60 DUP3 ADD MSTORE PUSH1 0x80 ADD PUSH2 0x1D5 JUMP JUMPDEST PUSH2 0x1F1 PUSH2 0x413 CALLDATASIZE PUSH1 0x4 PUSH2 0x13CF JUMP JUMPDEST PUSH2 0xCD6 JUMP JUMPDEST PUSH2 0x259 PUSH2 0x426 CALLDATASIZE PUSH1 0x4 PUSH2 0x13AD JUMP JUMPDEST PUSH2 0x1019 JUMP JUMPDEST PUSH2 0x1F1 PUSH2 0x10C6 JUMP JUMPDEST PUSH2 0x1F1 PUSH2 0x441 CALLDATASIZE PUSH1 0x4 PUSH2 0x13AD JUMP JUMPDEST PUSH2 0x11EE JUMP JUMPDEST PUSH2 0x259 PUSH1 0xC SLOAD DUP2 JUMP JUMPDEST PUSH1 0x4 SLOAD PUSH2 0x1C1 SWAP1 PUSH1 0x1 PUSH1 0x1 PUSH1 0xA0 SHL SUB AND DUP2 JUMP JUMPDEST PUSH2 0x46A PUSH2 0x1264 JUMP JUMPDEST PUSH1 0x0 DUP2 GT PUSH2 0x493 JUMPI PUSH1 0x40 MLOAD PUSH3 0x461BCD PUSH1 0xE5 SHL DUP2 MSTORE PUSH1 0x4 ADD PUSH2 0x48A SWAP1 PUSH2 0x13E8 JUMP JUMPDEST PUSH1 0x40 MLOAD DUP1 SWAP2 SUB SWAP1 REVERT JUMPDEST PUSH1 0x1 PUSH1 0x1 PUSH1 0xA0 SHL SUB DUP3 AND PUSH1 0x0 SWAP1 DUP2 MSTORE PUSH1 0x6 PUSH1 0x20 MSTORE PUSH1 0x40 SWAP1 KECCAK256 DUP1 SLOAD DUP3 GT ISZERO PUSH2 0x4FC JUMPI PUSH1 0x40 MLOAD PUSH3 0x461BCD PUSH1 0xE5 SHL DUP2 MSTORE PUSH1 0x20 PUSH1 0x4 DUP3 ADD MSTORE PUSH1 0x1E PUSH1 0x24 DUP3 ADD MSTORE PUSH32 0x416D6F756E74206578636565647320626F72726F77656420616D6F756E740000 PUSH1 0x44 DUP3 ADD MSTORE PUSH1 0x64 ADD PUSH2 0x48A JUMP JUMPDEST DUP2 DUP2 PUSH1 0x0 ADD PUSH1 0x0 DUP3 DUP3 SLOAD PUSH2 0x510 SWAP2 SWAP1 PUSH2 0x1435 JUMP JUMPDEST SWAP3 POP POP DUP2 SWAP1 SSTORE POP DUP2 PUSH1 0xA PUSH1 0x0 DUP3 DUP3 SLOAD PUSH2 0x529 SWAP2 SWAP1 PUSH2 0x1435 JUMP JUMPDEST SWAP1 SWAP2 SSTORE POP POP DUP1 SLOAD PUSH1 0x0 SUB PUSH2 0x544 JUMPI PUSH1 0x3 DUP2 ADD DUP1 SLOAD PUSH1 0xFF NOT AND SWAP1 SSTORE JUMPDEST PUSH1 0x2 SLOAD PUSH1 0x40 MLOAD PUSH4 0x23B872DD PUSH1 0xE0 SHL DUP2 MSTORE CALLER PUSH1 0x4 DUP3 ADD MSTORE ADDRESS PUSH1 0x24 DUP3 ADD MSTORE PUSH1 0x44 DUP2 ADD DUP5 SWAP1 MSTORE PUSH1 0x1 PUSH1 0x1 PUSH1 0xA0 SHL SUB SWAP1 SWAP2 AND SWAP1 PUSH4 0x23B872DD SWAP1 PUSH1 0x64 ADD PUSH1 0x20 PUSH1 0x40 MLOAD DUP1 DUP4 SUB DUP2 PUSH1 0x0 DUP8 GAS CALL ISZERO DUP1 ISZERO PUSH2 0x59B JUMPI RETURNDATASIZE PUSH1 0x0 DUP1 RETURNDATACOPY RETURNDATASIZE PUSH1 0x0 REVERT JUMPDEST POP POP POP POP PUSH1 0x40 MLOAD RETURNDATASIZE PUSH1 0x1F NOT PUSH1 0x1F DUP3 ADD AND DUP3 ADD DUP1 PUSH1 0x40 MSTORE POP DUP2 ADD SWAP1 PUSH2 0x5BF SWAP2 SWAP1 PUSH2 0x144E JUMP JUMPDEST PUSH2 0x5DB JUMPI PUSH1 0x40 MLOAD PUSH3 0x461BCD PUSH1 0xE5 SHL DUP2 MSTORE PUSH1 0x4 ADD PUSH2 0x48A SWAP1 PUSH2 0x1470 JUMP JUMPDEST DUP3 PUSH1 0x1 PUSH1 0x1 PUSH1 0xA0 SHL SUB AND PUSH32 0x516911BCC3A0A7412A44601057C0A0A1EC628BDE049A84284BC428866534488 DUP4 PUSH1 0x40 MLOAD PUSH2 0x616 SWAP2 DUP2 MSTORE PUSH1 0x20 ADD SWAP1 JUMP JUMPDEST PUSH1 0x40 MLOAD DUP1 SWAP2 SUB SWAP1 LOG2 POP PUSH2 0x628 PUSH1 0x1 DUP1 SSTORE JUMP JUMPDEST POP POP JUMP JUMPDEST PUSH2 0x634 PUSH2 0x1264 JUMP JUMPDEST PUSH1 0x0 DUP2 GT PUSH2 0x654 JUMPI PUSH1 0x40 MLOAD PUSH3 0x461BCD PUSH1 0xE5 SHL DUP2 MSTORE PUSH1 0x4 ADD PUSH2 0x48A SWAP1 PUSH2 0x13E8 JUMP JUMPDEST CALLER PUSH1 0x0 SWAP1 DUP2 MSTORE PUSH1 0x5 PUSH1 0x20 MSTORE PUSH1 0x40 DUP2 KECCAK256 PUSH1 0x2 DUP2 ADD SLOAD DUP2 SLOAD SWAP2 SWAP3 SWAP2 PUSH2 0x677 SWAP2 SWAP1 PUSH2 0x1499 JUMP JUMPDEST SWAP1 POP DUP1 DUP4 GT ISZERO PUSH2 0x6C0 JUMPI PUSH1 0x40 MLOAD PUSH3 0x461BCD PUSH1 0xE5 SHL DUP2 MSTORE PUSH1 0x20 PUSH1 0x4 DUP3 ADD MSTORE PUSH1 0x14 PUSH1 0x24 DUP3 ADD MSTORE PUSH20 0x496E73756666696369656E742062616C616E6365 PUSH1 0x60 SHL PUSH1 0x44 DUP3 ADD MSTORE PUSH1 0x64 ADD PUSH2 0x48A JUMP JUMPDEST PUSH1 0x0 PUSH2 0x6CB CALLER PUSH2 0x1019 JUMP JUMPDEST SWAP1 POP PUSH1 0x0 DUP2 DUP5 PUSH1 0x2 ADD SLOAD PUSH2 0x6DF SWAP2 SWAP1 PUSH2 0x1499 JUMP JUMPDEST SWAP1 POP PUSH1 0x0 DUP5 PUSH1 0x0 ADD SLOAD DUP7 GT PUSH2 0x6F4 JUMPI DUP6 PUSH2 0x6F7 JUMP JUMPDEST DUP5 SLOAD JUMPDEST SWAP1 POP PUSH1 0x0 PUSH2 0x705 DUP3 DUP9 PUSH2 0x1435 JUMP JUMPDEST SWAP1 POP DUP2 DUP7 PUSH1 0x0 ADD PUSH1 0x0 DUP3 DUP3 SLOAD PUSH2 0x71B SWAP2 SWAP1 PUSH2 0x1435 JUMP JUMPDEST SWAP1 SWAP2 SSTORE POP PUSH2 0x72B SWAP1 POP DUP2 DUP5 PUSH2 0x1435 JUMP JUMPDEST PUSH1 0x2 DUP8 ADD SSTORE TIMESTAMP PUSH1 0x1 DUP8 ADD SSTORE PUSH1 0x9 DUP1 SLOAD DUP4 SWAP2 SWAP1 PUSH1 0x0 SWAP1 PUSH2 0x74B SWAP1 DUP5 SWAP1 PUSH2 0x1435 JUMP JUMPDEST SWAP1 SWAP2 SSTORE POP POP PUSH1 0x2 SLOAD PUSH1 0x40 MLOAD PUSH4 0xA9059CBB PUSH1 0xE0 SHL DUP2 MSTORE CALLER PUSH1 0x4 DUP3 ADD MSTORE PUSH1 0x24 DUP2 ADD DUP10 SWAP1 MSTORE PUSH1 0x1 PUSH1 0x1 PUSH1 0xA0 SHL SUB SWAP1 SWAP2 AND SWAP1 PUSH4 0xA9059CBB SWAP1 PUSH1 0x44 ADD PUSH1 0x20 PUSH1 0x40 MLOAD DUP1 DUP4 SUB DUP2 PUSH1 0x0 DUP8 GAS CALL ISZERO DUP1 ISZERO PUSH2 0x7A1 JUMPI RETURNDATASIZE PUSH1 0x0 DUP1 RETURNDATACOPY RETURNDATASIZE PUSH1 0x0 REVERT JUMPDEST POP POP POP POP PUSH1 0x40 MLOAD RETURNDATASIZE PUSH1 0x1F NOT PUSH1 0x1F DUP3 ADD AND DUP3 ADD DUP1 PUSH1 0x40 MSTORE POP DUP2 ADD SWAP1 PUSH2 0x7C5 SWAP2 SWAP1 PUSH2 0x144E JUMP JUMPDEST PUSH2 0x7E1 JUMPI PUSH1 0x40 MLOAD PUSH3 0x461BCD PUSH1 0xE5 SHL DUP2 MSTORE PUSH1 0x4 ADD PUSH2 0x48A SWAP1 PUSH2 0x1470 JUMP JUMPDEST PUSH1 0x40 MLOAD DUP8 DUP2 MSTORE CALLER SWAP1 PUSH32 0x7084F5476618D8E60B11EF0D7D3F06914655ADB8793E28FF7F018D4C76D505D5 SWAP1 PUSH1 0x20 ADD PUSH1 0x40 MLOAD DUP1 SWAP2 SUB SWAP1 LOG2 POP POP POP POP POP POP PUSH2 0x825 PUSH1 0x1 DUP1 SSTORE JUMP JUMPDEST POP JUMP JUMPDEST PUSH1 0x0 DUP1 PUSH1 0x0 PUSH2 0x836 DUP5 PUSH2 0x1019 JUMP JUMPDEST PUSH1 0x1 PUSH1 0x1 PUSH1 0xA0 SHL SUB DUP6 AND PUSH1 0x0 SWAP1 DUP2 MSTORE PUSH1 0x5 PUSH1 0x20 MSTORE PUSH1 0x40 SWAP1 KECCAK256 DUP1 SLOAD PUSH1 0x2 SWAP1 SWAP2 ADD SLOAD SWAP2 SWAP3 POP SWAP1 PUSH2 0x865 SWAP1 DUP4 SWAP1 PUSH2 0x1499 JUMP JUMPDEST SWAP3 POP SWAP3 POP POP SWAP2 POP SWAP2 JUMP JUMPDEST PUSH2 0x877 PUSH2 0x12BD JUMP JUMPDEST PUSH2 0x7D0 DUP2 GT ISZERO PUSH2 0x8C2 JUMPI PUSH1 0x40 MLOAD PUSH3 0x461BCD PUSH1 0xE5 SHL DUP2 MSTORE PUSH1 0x20 PUSH1 0x4 DUP3 ADD MSTORE PUSH1 0x16 PUSH1 0x24 DUP3 ADD MSTORE PUSH22 0x92DCE8CAE4CAE6E840E4C2E8CA40E8DEDE40D0D2CED PUSH1 0x53 SHL PUSH1 0x44 DUP3 ADD MSTORE PUSH1 0x64 ADD PUSH2 0x48A JUMP JUMPDEST PUSH1 0xB SSTORE JUMP JUMPDEST PUSH2 0x8CF PUSH2 0x12BD JUMP JUMPDEST PUSH1 0x64 DUP2 LT ISZERO DUP1 ISZERO PUSH2 0x8E2 JUMPI POP PUSH2 0x12C DUP2 GT ISZERO JUMPDEST PUSH2 0x92E JUMPI PUSH1 0x40 MLOAD PUSH3 0x461BCD PUSH1 0xE5 SHL DUP2 MSTORE PUSH1 0x20 PUSH1 0x4 DUP3 ADD MSTORE PUSH1 0x18 PUSH1 0x24 DUP3 ADD MSTORE PUSH32 0x496E76616C696420636F6C6C61746572616C20726174696F0000000000000000 PUSH1 0x44 DUP3 ADD MSTORE PUSH1 0x64 ADD PUSH2 0x48A JUMP JUMPDEST PUSH1 0xC SSTORE JUMP JUMPDEST PUSH1 0x7 DUP2 DUP2 SLOAD DUP2 LT PUSH2 0x943 JUMPI PUSH1 0x0 DUP1 REVERT JUMPDEST PUSH1 0x0 SWAP2 DUP3 MSTORE PUSH1 0x20 SWAP1 SWAP2 KECCAK256 ADD SLOAD PUSH1 0x1 PUSH1 0x1 PUSH1 0xA0 SHL SUB AND SWAP1 POP DUP2 JUMP JUMPDEST PUSH2 0x965 PUSH2 0x12BD JUMP JUMPDEST PUSH2 0x96F PUSH1 0x0 PUSH2 0x1317 JUMP JUMPDEST JUMP JUMPDEST PUSH2 0x979 PUSH2 0x12BD JUMP JUMPDEST PUSH1 0x4 DUP1 SLOAD PUSH1 0x1 PUSH1 0x1 PUSH1 0xA0 SHL SUB NOT AND PUSH1 0x1 PUSH1 0x1 PUSH1 0xA0 SHL SUB SWAP3 SWAP1 SWAP3 AND SWAP2 SWAP1 SWAP2 OR SWAP1 SSTORE JUMP JUMPDEST PUSH1 0x8 DUP2 DUP2 SLOAD DUP2 LT PUSH2 0x943 JUMPI PUSH1 0x0 DUP1 REVERT JUMPDEST PUSH2 0x9B3 PUSH2 0x1264 JUMP JUMPDEST PUSH1 0x0 DUP2 GT PUSH2 0x9D3 JUMPI PUSH1 0x40 MLOAD PUSH3 0x461BCD PUSH1 0xE5 SHL DUP2 MSTORE PUSH1 0x4 ADD PUSH2 0x48A SWAP1 PUSH2 0x13E8 JUMP JUMPDEST PUSH1 0x2 SLOAD PUSH1 0x40 MLOAD PUSH4 0x23B872DD PUSH1 0xE0 SHL DUP2 MSTORE CALLER PUSH1 0x4 DUP3 ADD MSTORE ADDRESS PUSH1 0x24 DUP3 ADD MSTORE PUSH1 0x44 DUP2 ADD DUP4 SWAP1 MSTORE PUSH1 0x1 PUSH1 0x1 PUSH1 0xA0 SHL SUB SWAP1 SWAP2 AND SWAP1 PUSH4 0x23B872DD SWAP1 PUSH1 0x64 ADD PUSH1 0x20 PUSH1 0x40 MLOAD DUP1 DUP4 SUB DUP2 PUSH1 0x0 DUP8 GAS CALL ISZERO DUP1 ISZERO PUSH2 0xA2A JUMPI RETURNDATASIZE PUSH1 0x0 DUP1 RETURNDATACOPY RETURNDATASIZE PUSH1 0x0 REVERT JUMPDEST POP POP POP POP PUSH1 0x40 MLOAD RETURNDATASIZE PUSH1 0x1F NOT PUSH1 0x1F DUP3 ADD AND DUP3 ADD DUP1 PUSH1 0x40 MSTORE POP DUP2 ADD SWAP1 PUSH2 0xA4E SWAP2 SWAP1 PUSH2 0x144E JUMP JUMPDEST PUSH2 0xA6A JUMPI PUSH1 0x40 MLOAD PUSH3 0x461BCD PUSH1 0xE5 SHL DUP2 MSTORE PUSH1 0x4 ADD PUSH2 0x48A SWAP1 PUSH2 0x1470 JUMP JUMPDEST CALLER PUSH1 0x0 SWAP1 DUP2 MSTORE PUSH1 0x5 PUSH1 0x20 MSTORE PUSH1 0x40 DUP2 KECCAK256 SLOAD SWAP1 SUB PUSH2 0xAC3 JUMPI PUSH1 0x7 DUP1 SLOAD PUSH1 0x1 DUP2 ADD DUP3 SSTORE PUSH1 0x0 SWAP2 SWAP1 SWAP2 MSTORE PUSH32 0xA66CC928B5EDB82AF9BD49922954155AB7B0942694BEA4CE44661D9A8736C688 ADD DUP1 SLOAD PUSH1 0x1 PUSH1 0x1 PUSH1 0xA0 SHL SUB NOT AND CALLER OR SWAP1 SSTORE JUMPDEST PUSH1 0x0 PUSH2 0xACE CALLER PUSH2 0x1019 JUMP JUMPDEST SWAP1 POP DUP1 ISZERO PUSH2 0xAFE JUMPI CALLER PUSH1 0x0 SWAP1 DUP2 MSTORE PUSH1 0x5 PUSH1 0x20 MSTORE PUSH1 0x40 DUP2 KECCAK256 PUSH1 0x2 ADD DUP1 SLOAD DUP4 SWAP3 SWAP1 PUSH2 0xAF8 SWAP1 DUP5 SWAP1 PUSH2 0x1499 JUMP JUMPDEST SWAP1 SWAP2 SSTORE POP POP JUMPDEST CALLER PUSH1 0x0 SWAP1 DUP2 MSTORE PUSH1 0x5 PUSH1 0x20 MSTORE PUSH1 0x40 DUP2 KECCAK256 DUP1 SLOAD DUP5 SWAP3 SWAP1 PUSH2 0xB1D SWAP1 DUP5 SWAP1 PUSH2 0x1499 JUMP JUMPDEST SWAP1 SWAP2 SSTORE POP POP CALLER PUSH1 0x0 SWAP1 DUP2 MSTORE PUSH1 0x5 PUSH1 0x20 MSTORE PUSH1 0x40 DUP2 KECCAK256 TIMESTAMP PUSH1 0x1 SWAP1 SWAP2 ADD SSTORE PUSH1 0x9 DUP1 SLOAD DUP5 SWAP3 SWAP1 PUSH2 0xB4A SWAP1 DUP5 SWAP1 PUSH2 0x1499 JUMP JUMPDEST SWAP1 SWAP2 SSTORE POP POP PUSH1 0x40 MLOAD DUP3 DUP2 MSTORE CALLER SWAP1 PUSH32 0x2DA466A7B24304F47E87FA2E1E5A81B9831CE54FEC19055CE277CA2F39BA42C4 SWAP1 PUSH1 0x20 ADD JUMPDEST PUSH1 0x40 MLOAD DUP1 SWAP2 SUB SWAP1 LOG2 POP PUSH2 0x825 PUSH1 0x1 DUP1 SSTORE JUMP JUMPDEST PUSH1 0x0 DUP1 PUSH1 0x0 DUP1 PUSH1 0x9 SLOAD PUSH1 0xA SLOAD PUSH1 0xA SLOAD PUSH1 0x9 SLOAD PUSH2 0xBAB SWAP2 SWAP1 PUSH2 0x1435 JUMP JUMPDEST PUSH1 0xB SLOAD SWAP4 POP SWAP4 POP SWAP4 POP SWAP4 POP SWAP1 SWAP2 SWAP3 SWAP4 JUMP JUMPDEST PUSH2 0xBC4 PUSH2 0x1264 JUMP JUMPDEST PUSH1 0x0 DUP2 GT PUSH2 0xBE4 JUMPI PUSH1 0x40 MLOAD PUSH3 0x461BCD PUSH1 0xE5 SHL DUP2 MSTORE PUSH1 0x4 ADD PUSH2 0x48A SWAP1 PUSH2 0x13E8 JUMP JUMPDEST PUSH1 0x2 SLOAD PUSH1 0x40 MLOAD PUSH4 0x23B872DD PUSH1 0xE0 SHL DUP2 MSTORE CALLER PUSH1 0x4 DUP3 ADD MSTORE ADDRESS PUSH1 0x24 DUP3 ADD MSTORE PUSH1 0x44 DUP2 ADD DUP4 SWAP1 MSTORE PUSH1 0x1 PUSH1 0x1 PUSH1 0xA0 SHL SUB SWAP1 SWAP2 AND SWAP1 PUSH4 0x23B872DD SWAP1 PUSH1 0x64 ADD PUSH1 0x20 PUSH1 0x40 MLOAD DUP1 DUP4 SUB DUP2 PUSH1 0x0 DUP8 GAS CALL ISZERO DUP1 ISZERO PUSH2 0xC3B JUMPI RETURNDATASIZE PUSH1 0x0 DUP1 RETURNDATACOPY RETURNDATASIZE PUSH1 0x0 REVERT JUMPDEST POP POP POP POP PUSH1 0x40 MLOAD RETURNDATASIZE PUSH1 0x1F NOT PUSH1 0x1F DUP3 ADD AND DUP3 ADD DUP1 PUSH1 0x40 MSTORE POP DUP2 ADD SWAP1 PUSH2 0xC5F SWAP2 SWAP1 PUSH2 0x144E JUMP JUMPDEST PUSH2 0xC7B JUMPI PUSH1 0x40 MLOAD PUSH3 0x461BCD PUSH1 0xE5 SHL DUP2 MSTORE PUSH1 0x4 ADD PUSH2 0x48A SWAP1 PUSH2 0x1470 JUMP JUMPDEST CALLER PUSH1 0x0 SWAP1 DUP2 MSTORE PUSH1 0x6 PUSH1 0x20 MSTORE PUSH1 0x40 DUP2 KECCAK256 PUSH1 0x2 DUP2 ADD DUP1 SLOAD SWAP2 SWAP3 DUP5 SWAP3 PUSH2 0xC9F SWAP1 DUP5 SWAP1 PUSH2 0x1499 JUMP JUMPDEST SWAP1 SWAP2 SSTORE POP POP PUSH1 0x40 MLOAD DUP3 DUP2 MSTORE CALLER SWAP1 PUSH32 0x7DBA1BE544024070CD5EEBFA8BDD80A8B198CEA8058C7D3CC1F8DD36E41AB2F7 SWAP1 PUSH1 0x20 ADD PUSH2 0xB7D JUMP JUMPDEST PUSH2 0xCDE PUSH2 0x1264 JUMP JUMPDEST PUSH1 0x0 DUP2 GT PUSH2 0xCFE JUMPI PUSH1 0x40 MLOAD PUSH3 0x461BCD PUSH1 0xE5 SHL DUP2 MSTORE PUSH1 0x4 ADD PUSH2 0x48A SWAP1 PUSH2 0x13E8 JUMP JUMPDEST PUSH1 0x3 SLOAD PUSH1 0x40 MLOAD PUSH4 0xD47875D PUSH1 0xE4 SHL DUP2 MSTORE CALLER PUSH1 0x4 DUP3 ADD MSTORE PUSH1 0x0 SWAP2 PUSH1 0x1 PUSH1 0x1 PUSH1 0xA0 SHL SUB AND SWAP1 PUSH4 0xD47875D0 SWAP1 PUSH1 0x24 ADD PUSH1 0x20 PUSH1 0x40 MLOAD DUP1 DUP4 SUB DUP2 DUP7 GAS STATICCALL ISZERO DUP1 ISZERO PUSH2 0xD47 JUMPI RETURNDATASIZE PUSH1 0x0 DUP1 RETURNDATACOPY RETURNDATASIZE PUSH1 0x0 REVERT JUMPDEST POP POP POP POP PUSH1 0x40 MLOAD RETURNDATASIZE PUSH1 0x1F NOT PUSH1 0x1F DUP3 ADD AND DUP3 ADD DUP1 PUSH1 0x40 MSTORE POP DUP2 ADD SWAP1 PUSH2 0xD6B SWAP2 SWAP1 PUSH2 0x14AC JUMP JUMPDEST SWAP1 POP PUSH1 0x0 PUSH2 0x320 DUP3 LT PUSH2 0xD83 JUMPI POP PUSH4 0x1DCD6500 PUSH2 0xDA7 JUMP JUMPDEST PUSH2 0x2BC DUP3 LT PUSH2 0xD97 JUMPI POP PUSH4 0xBEBC200 PUSH2 0xDA7 JUMP JUMPDEST PUSH2 0x258 DUP3 LT PUSH2 0xDA7 JUMPI POP PUSH4 0x2FAF080 JUMPDEST PUSH1 0x0 DUP2 GT PUSH2 0xDF7 JUMPI PUSH1 0x40 MLOAD PUSH3 0x461BCD PUSH1 0xE5 SHL DUP2 MSTORE PUSH1 0x20 PUSH1 0x4 DUP3 ADD MSTORE PUSH1 0x1E PUSH1 0x24 DUP3 ADD MSTORE PUSH32 0x4372656469742073636F726520746F6F206C6F7720746F20626F72726F770000 PUSH1 0x44 DUP3 ADD MSTORE PUSH1 0x64 ADD PUSH2 0x48A JUMP JUMPDEST CALLER PUSH1 0x0 SWAP1 DUP2 MSTORE PUSH1 0x6 PUSH1 0x20 MSTORE PUSH1 0x40 SWAP1 KECCAK256 DUP1 SLOAD DUP3 SWAP1 PUSH2 0xE15 SWAP1 DUP7 SWAP1 PUSH2 0x1499 JUMP JUMPDEST GT ISZERO PUSH2 0xE63 JUMPI PUSH1 0x40 MLOAD PUSH3 0x461BCD PUSH1 0xE5 SHL DUP2 MSTORE PUSH1 0x20 PUSH1 0x4 DUP3 ADD DUP2 SWAP1 MSTORE PUSH1 0x24 DUP3 ADD MSTORE PUSH32 0x457863656564732073636F72652D626173656420637265646974206C696D6974 PUSH1 0x44 DUP3 ADD MSTORE PUSH1 0x64 ADD PUSH2 0x48A JUMP JUMPDEST DUP4 PUSH1 0xA SLOAD PUSH2 0xE71 SWAP2 SWAP1 PUSH2 0x1499 JUMP JUMPDEST PUSH1 0x9 SLOAD LT ISZERO PUSH2 0xEC2 JUMPI PUSH1 0x40 MLOAD PUSH3 0x461BCD PUSH1 0xE5 SHL DUP2 MSTORE PUSH1 0x20 PUSH1 0x4 DUP3 ADD MSTORE PUSH1 0x1E PUSH1 0x24 DUP3 ADD MSTORE PUSH32 0x496E73756666696369656E74206C697175696469747920696E20706F6F6C0000 PUSH1 0x44 DUP3 ADD MSTORE PUSH1 0x64 ADD PUSH2 0x48A JUMP JUMPDEST DUP1 SLOAD PUSH1 0x0 SUB PUSH2 0xF0E JUMPI PUSH1 0x8 DUP1 SLOAD PUSH1 0x1 DUP2 ADD DUP3 SSTORE PUSH1 0x0 SWAP2 SWAP1 SWAP2 MSTORE PUSH32 0xF3F7A9FE364FAAB93B216DA50A3214154F22A0A2B415B23A84C8169E8B636EE3 ADD DUP1 SLOAD PUSH1 0x1 PUSH1 0x1 PUSH1 0xA0 SHL SUB NOT AND CALLER OR SWAP1 SSTORE JUMPDEST DUP4 DUP2 PUSH1 0x0 ADD PUSH1 0x0 DUP3 DUP3 SLOAD PUSH2 0xF22 SWAP2 SWAP1 PUSH2 0x1499 JUMP JUMPDEST SWAP1 SWAP2 SSTORE POP POP TIMESTAMP PUSH1 0x1 DUP3 ADD SSTORE PUSH1 0xA DUP1 SLOAD DUP6 SWAP2 SWAP1 PUSH1 0x0 SWAP1 PUSH2 0xF42 SWAP1 DUP5 SWAP1 PUSH2 0x1499 JUMP JUMPDEST SWAP1 SWAP2 SSTORE POP POP PUSH1 0x2 SLOAD PUSH1 0x40 MLOAD PUSH4 0xA9059CBB PUSH1 0xE0 SHL DUP2 MSTORE CALLER PUSH1 0x4 DUP3 ADD MSTORE PUSH1 0x24 DUP2 ADD DUP7 SWAP1 MSTORE PUSH1 0x1 PUSH1 0x1 PUSH1 0xA0 SHL SUB SWAP1 SWAP2 AND SWAP1 PUSH4 0xA9059CBB SWAP1 PUSH1 0x44 ADD PUSH1 0x20 PUSH1 0x40 MLOAD DUP1 DUP4 SUB DUP2 PUSH1 0x0 DUP8 GAS CALL ISZERO DUP1 ISZERO PUSH2 0xF98 JUMPI RETURNDATASIZE PUSH1 0x0 DUP1 RETURNDATACOPY RETURNDATASIZE PUSH1 0x0 REVERT JUMPDEST POP POP POP POP PUSH1 0x40 MLOAD RETURNDATASIZE PUSH1 0x1F NOT PUSH1 0x1F DUP3 ADD AND DUP3 ADD DUP1 PUSH1 0x40 MSTORE POP DUP2 ADD SWAP1 PUSH2 0xFBC SWAP2 SWAP1 PUSH2 0x144E JUMP JUMPDEST PUSH2 0xFD8 JUMPI PUSH1 0x40 MLOAD PUSH3 0x461BCD PUSH1 0xE5 SHL DUP2 MSTORE PUSH1 0x4 ADD PUSH2 0x48A SWAP1 PUSH2 0x1470 JUMP JUMPDEST PUSH1 0x40 MLOAD DUP5 DUP2 MSTORE CALLER SWAP1 PUSH32 0xAC59582E5396ACA512FA873A2047E7F4C80F8F55D4A06CB34A78A0187F62719F SWAP1 PUSH1 0x20 ADD PUSH1 0x40 MLOAD DUP1 SWAP2 SUB SWAP1 LOG2 POP POP POP PUSH2 0x825 PUSH1 0x1 DUP1 SSTORE JUMP JUMPDEST PUSH1 0x1 PUSH1 0x1 PUSH1 0xA0 SHL SUB DUP2 AND PUSH1 0x0 SWAP1 DUP2 MSTORE PUSH1 0x5 PUSH1 0x20 SWAP1 DUP2 MSTORE PUSH1 0x40 DUP1 DUP4 KECCAK256 DUP2 MLOAD PUSH1 0x60 DUP2 ADD DUP4 MSTORE DUP2 SLOAD DUP1 DUP3 MSTORE PUSH1 0x1 DUP4 ADD SLOAD SWAP5 DUP3 ADD SWAP5 SWAP1 SWAP5 MSTORE PUSH1 0x2 SWAP1 SWAP2 ADD SLOAD SWAP2 DUP2 ADD SWAP2 SWAP1 SWAP2 MSTORE SWAP1 DUP3 SUB PUSH2 0x106A JUMPI POP PUSH1 0x0 SWAP3 SWAP2 POP POP JUMP JUMPDEST PUSH1 0x0 DUP2 PUSH1 0x20 ADD MLOAD TIMESTAMP PUSH2 0x107C SWAP2 SWAP1 PUSH2 0x1435 JUMP JUMPDEST SWAP1 POP PUSH1 0x0 PUSH2 0x2710 PUSH1 0xB SLOAD DUP5 PUSH1 0x0 ADD MLOAD PUSH2 0x1095 SWAP2 SWAP1 PUSH2 0x14C5 JUMP JUMPDEST PUSH2 0x109F SWAP2 SWAP1 PUSH2 0x14DC JUMP JUMPDEST SWAP1 POP PUSH1 0x0 PUSH4 0x1E13380 PUSH2 0x10B2 DUP5 DUP5 PUSH2 0x14C5 JUMP JUMPDEST PUSH2 0x10BC SWAP2 SWAP1 PUSH2 0x14DC JUMP JUMPDEST SWAP7 SWAP6 POP POP POP POP POP POP JUMP JUMPDEST PUSH2 0x10CE PUSH2 0x12BD JUMP JUMPDEST PUSH1 0x2 SLOAD PUSH1 0x40 MLOAD PUSH4 0x70A08231 PUSH1 0xE0 SHL DUP2 MSTORE ADDRESS PUSH1 0x4 DUP3 ADD MSTORE PUSH1 0x0 SWAP2 PUSH1 0x1 PUSH1 0x1 PUSH1 0xA0 SHL SUB AND SWAP1 PUSH4 0x70A08231 SWAP1 PUSH1 0x24 ADD PUSH1 0x20 PUSH1 0x40 MLOAD DUP1 DUP4 SUB DUP2 DUP7 GAS STATICCALL ISZERO DUP1 ISZERO PUSH2 0x1117 JUMPI RETURNDATASIZE PUSH1 0x0 DUP1 RETURNDATACOPY RETURNDATASIZE PUSH1 0x0 REVERT JUMPDEST POP POP POP POP PUSH1 0x40 MLOAD RETURNDATASIZE PUSH1 0x1F NOT PUSH1 0x1F DUP3 ADD AND DUP3 ADD DUP1 PUSH1 0x40 MSTORE POP DUP2 ADD SWAP1 PUSH2 0x113B SWAP2 SWAP1 PUSH2 0x14AC JUMP JUMPDEST PUSH1 0x2 SLOAD SWAP1 SWAP2 POP PUSH1 0x1 PUSH1 0x1 PUSH1 0xA0 SHL SUB AND PUSH4 0xA9059CBB PUSH2 0x1161 PUSH1 0x0 SLOAD PUSH1 0x1 PUSH1 0x1 PUSH1 0xA0 SHL SUB AND SWAP1 JUMP JUMPDEST PUSH1 0x40 MLOAD PUSH1 0x1 PUSH1 0x1 PUSH1 0xE0 SHL SUB NOT PUSH1 0xE0 DUP5 SWAP1 SHL AND DUP2 MSTORE PUSH1 0x1 PUSH1 0x1 PUSH1 0xA0 SHL SUB SWAP1 SWAP2 AND PUSH1 0x4 DUP3 ADD MSTORE PUSH1 0x24 DUP2 ADD DUP5 SWAP1 MSTORE PUSH1 0x44 ADD PUSH1 0x20 PUSH1 0x40 MLOAD DUP1 DUP4 SUB DUP2 PUSH1 0x0 DUP8 GAS CALL ISZERO DUP1 ISZERO PUSH2 0x11AE JUMPI RETURNDATASIZE PUSH1 0x0 DUP1 RETURNDATACOPY RETURNDATASIZE PUSH1 0x0 REVERT JUMPDEST POP POP POP POP PUSH1 0x40 MLOAD RETURNDATASIZE PUSH1 0x1F NOT PUSH1 0x1F DUP3 ADD AND DUP3 ADD DUP1 PUSH1 0x40 MSTORE POP DUP2 ADD SWAP1 PUSH2 0x11D2 SWAP2 SWAP1 PUSH2 0x144E JUMP JUMPDEST PUSH2 0x825 JUMPI PUSH1 0x40 MLOAD PUSH3 0x461BCD PUSH1 0xE5 SHL DUP2 MSTORE PUSH1 0x4 ADD PUSH2 0x48A SWAP1 PUSH2 0x1470 JUMP JUMPDEST PUSH2 0x11F6 PUSH2 0x12BD JUMP JUMPDEST PUSH1 0x1 PUSH1 0x1 PUSH1 0xA0 SHL SUB DUP2 AND PUSH2 0x125B JUMPI PUSH1 0x40 MLOAD PUSH3 0x461BCD PUSH1 0xE5 SHL DUP2 MSTORE PUSH1 0x20 PUSH1 0x4 DUP3 ADD MSTORE PUSH1 0x26 PUSH1 0x24 DUP3 ADD MSTORE PUSH32 0x4F776E61626C653A206E6577206F776E657220697320746865207A65726F2061 PUSH1 0x44 DUP3 ADD MSTORE PUSH6 0x646472657373 PUSH1 0xD0 SHL PUSH1 0x64 DUP3 ADD MSTORE PUSH1 0x84 ADD PUSH2 0x48A JUMP JUMPDEST PUSH2 0x825 DUP2 PUSH2 0x1317 JUMP JUMPDEST PUSH1 0x2 PUSH1 0x1 SLOAD SUB PUSH2 0x12B6 JUMPI PUSH1 0x40 MLOAD PUSH3 0x461BCD PUSH1 0xE5 SHL DUP2 MSTORE PUSH1 0x20 PUSH1 0x4 DUP3 ADD MSTORE PUSH1 0x1F PUSH1 0x24 DUP3 ADD MSTORE PUSH32 0x5265656E7472616E637947756172643A207265656E7472616E742063616C6C00 PUSH1 0x44 DUP3 ADD MSTORE PUSH1 0x64 ADD PUSH2 0x48A JUMP JUMPDEST PUSH1 0x2 PUSH1 0x1 SSTORE JUMP JUMPDEST PUSH1 0x0 SLOAD PUSH1 0x1 PUSH1 0x1 PUSH1 0xA0 SHL SUB AND CALLER EQ PUSH2 0x96F JUMPI PUSH1 0x40 MLOAD PUSH3 0x461BCD PUSH1 0xE5 SHL DUP2 MSTORE PUSH1 0x20 PUSH1 0x4 DUP3 ADD DUP2 SWAP1 MSTORE PUSH1 0x24 DUP3 ADD MSTORE PUSH32 0x4F776E61626C653A2063616C6C6572206973206E6F7420746865206F776E6572 PUSH1 0x44 DUP3 ADD MSTORE PUSH1 0x64 ADD PUSH2 0x48A JUMP JUMPDEST PUSH1 0x0 DUP1 SLOAD PUSH1 0x1 PUSH1 0x1 PUSH1 0xA0 SHL SUB DUP4 DUP2 AND PUSH1 0x1 PUSH1 0x1 PUSH1 0xA0 SHL SUB NOT DUP4 AND DUP2 OR DUP5 SSTORE PUSH1 0x40 MLOAD SWAP2 SWAP1 SWAP3 AND SWAP3 DUP4 SWAP2 PUSH32 0x8BE0079C531659141344CD1FD0A4F28419497F9722A3DAAFE3B4186F6B6457E0 SWAP2 SWAP1 LOG3 POP POP JUMP JUMPDEST DUP1 CALLDATALOAD PUSH1 0x1 PUSH1 0x1 PUSH1 0xA0 SHL SUB DUP2 AND DUP2 EQ PUSH2 0x137E JUMPI PUSH1 0x0 DUP1 REVERT JUMPDEST SWAP2 SWAP1 POP JUMP JUMPDEST PUSH1 0x0 DUP1 PUSH1 0x40 DUP4 DUP6 SUB SLT ISZERO PUSH2 0x1396 JUMPI PUSH1 0x0 DUP1 REVERT JUMPDEST PUSH2 0x139F DUP4 PUSH2 0x1367 JUMP JUMPDEST SWAP5 PUSH1 0x20 SWAP4 SWAP1 SWAP4 ADD CALLDATALOAD SWAP4 POP POP POP JUMP JUMPDEST PUSH1 0x0 PUSH1 0x20 DUP3 DUP5 SUB SLT ISZERO PUSH2 0x13BF JUMPI PUSH1 0x0 DUP1 REVERT JUMPDEST PUSH2 0x13C8 DUP3 PUSH2 0x1367 JUMP JUMPDEST SWAP4 SWAP3 POP POP POP JUMP JUMPDEST PUSH1 0x0 PUSH1 0x20 DUP3 DUP5 SUB SLT ISZERO PUSH2 0x13E1 JUMPI PUSH1 0x0 DUP1 REVERT JUMPDEST POP CALLDATALOAD SWAP2 SWAP1 POP JUMP JUMPDEST PUSH1 0x20 DUP1 DUP3 MSTORE PUSH1 0x1D SWAP1 DUP3 ADD MSTORE PUSH32 0x416D6F756E74206D7573742062652067726561746572207468616E2030000000 PUSH1 0x40 DUP3 ADD MSTORE PUSH1 0x60 ADD SWAP1 JUMP JUMPDEST PUSH4 0x4E487B71 PUSH1 0xE0 SHL PUSH1 0x0 MSTORE PUSH1 0x11 PUSH1 0x4 MSTORE PUSH1 0x24 PUSH1 0x0 REVERT JUMPDEST DUP2 DUP2 SUB DUP2 DUP2 GT ISZERO PUSH2 0x1448 JUMPI PUSH2 0x1448 PUSH2 0x141F JUMP JUMPDEST SWAP3 SWAP2 POP POP JUMP JUMPDEST PUSH1 0x0 PUSH1 0x20 DUP3 DUP5 SUB SLT ISZERO PUSH2 0x1460 JUMPI PUSH1 0x0 DUP1 REVERT JUMPDEST DUP2 MLOAD DUP1 ISZERO ISZERO DUP2 EQ PUSH2 0x13C8 JUMPI PUSH1 0x0 DUP1 REVERT JUMPDEST PUSH1 0x20 DUP1 DUP3 MSTORE PUSH1 0xF SWAP1 DUP3 ADD MSTORE PUSH15 0x151C985B9CD9995C8819985A5B1959 PUSH1 0x8A SHL PUSH1 0x40 DUP3 ADD MSTORE PUSH1 0x60 ADD SWAP1 JUMP JUMPDEST DUP1 DUP3 ADD DUP1 DUP3 GT ISZERO PUSH2 0x1448 JUMPI PUSH2 0x1448 PUSH2 0x141F JUMP JUMPDEST PUSH1 0x0 PUSH1 0x20 DUP3 DUP5 SUB SLT ISZERO PUSH2 0x14BE JUMPI PUSH1 0x0 DUP1 REVERT JUMPDEST POP MLOAD SWAP2 SWAP1 POP JUMP JUMPDEST DUP1 DUP3 MUL DUP2 ISZERO DUP3 DUP3 DIV DUP5 EQ OR PUSH2 0x1448 JUMPI PUSH2 0x1448 PUSH2 0x141F JUMP JUMPDEST PUSH1 0x0 DUP3 PUSH2 0x14F9 JUMPI PUSH4 0x4E487B71 PUSH1 0xE0 SHL PUSH1 0x0 MSTORE PUSH1 0x12 PUSH1 0x4 MSTORE PUSH1 0x24 PUSH1 0x0 REVERT JUMPDEST POP DIV SWAP1 JUMP INVALID LOG2 PUSH5 0x6970667358 0x22 SLT KECCAK256 PUSH2 0x41CD 0xBF 0xBC 0xFB 0xCD SWAP7 PUSH6 0x403016F8BB8E PUSH5 0xD2F819B7B4 PUSH2 0x22DF 0xC8 0xA5 0xDB SWAP11 0xBC ORIGIN 0xD6 PUSH5 0x64736F6C63 NUMBER STOP ADDMOD SGT STOP CALLER "},"methodIdentifiers":{"addCollateral(uint256)":"bcc46e83","agentRegistry()":"0d1cfcae","baseCollateralRatio()":"fcad8ff3","borrow(uint256)":"c5ebeaec","borrowerList(uint256)":"b3a66524","borrowers(address)":"bf5d50c4","calculatePendingInterest(address)":"c8bea317","deposit(uint256)":"b6b55f25","emergencyWithdraw()":"db2e21bc","getBorrowerPosition(address)":"bb3f6736","getLenderPosition(address)":"5d413fa2","getPoolStats()":"bbb85188","interestRate()":"7c3a00fd","lenderList(uint256)":"6085c7df","lenders(address)":"28fd10d7","owner()":"8da5cb5b","renounceOwnership()":"715018a6","repay(address,uint256)":"22867d78","setCollateralRatio(uint256)":"6060663e","setInterestRate(uint256)":"5f84f302","setX402Processor(address)":"8cbc84ba","totalBorrowed()":"4c19386c","totalDeposits()":"7d882097","transferOwnership(address)":"f2fde38b","usdtToken()":"a98ad46c","withdraw(uint256)":"2e1a7d4d","x402Processor()":"fd7be136"}}}}}