{
  "_format": "hh-sol-artifact-1",
  "contractName": "AgentRegistry",
  "sourceName": "contracts/AgentRegistry.sol",
  "abi": [
    {
      "anonymous": false,
      "inputs": [
        {
          "indexed": true,
          "internalType": "address",
          "name": "agentAddress",
          "type": "address"
        },
        {
          "indexed": false,
          "internalType": "string",
          "name": "name",
          "type": "string"
        },
        {
          "indexed": false,
          "internalType": "string",
          "name": "agentType",
          "type": "string"
        }
      ],
      "name": "AgentRegistered",
      "type": "event"
    },
    {
      "anonymous": false,
      "inputs": [
        {
          "indexed": true,
          "internalType": "address",
          "name": "previousOwner",
          "type": "address"
        },
        {
          "indexed": true,
          "internalType": "address",
          "name": "newOwner",
          "type": "address"
        }
      ],
      "name": "OwnershipTransferred",
      "type": "event"
    },
    {
      "anonymous": false,
      "inputs": [
        {
          "indexed": true,
          "internalType": "address",
          "name": "agentAddress",
          "type": "address"
        },
        {
          "indexed": false,
          "internalType": "uint256",
          "name": "newScore",
          "type": "uint256"
        },
        {
          "indexed": true,
          "internalType": "address",
          "name": "scorer",
          "type": "address"
        }
      ],
      "name": "ScoreUpdated",
      "type": "event"
    },
    {
      "anonymous": false,
      "inputs": [
        {
          "indexed": true,
          "internalType": "address",
          "name": "scorer",
          "type": "address"
        },
        {
          "indexed": false,
          "internalType": "bool",
          "name": "status",
          "type": "bool"
        }
      ],
      "name": "ScorerAuthorized",
      "type": "event"
    },
    {
      "inputs": [
        {
          "internalType": "address",
          "name": "_agentAddress",
          "type": "address"
        },
        {
          "internalType": "string",
          "name": "_name",
          "type": "string"
        },
        {
          "internalType": "string",
          "name": "_agentType",
          "type": "string"
        },
        {
          "internalType": "string",
          "name": "_modelHash",
          "type": "string"
        }
      ],
      "name": "adminRegister",
      "outputs": [],
      "stateMutability": "nonpayable",
      "type": "function"
    },
    {
      "inputs": [
        {
          "internalType": "address",
          "name": "",
          "type": "address"
        }
      ],
      "name": "agents",
      "outputs": [
        {
          "internalType": "string",
          "name": "name",
          "type": "string"
        },
        {
          "internalType": "string",
          "name": "agentType",
          "type": "string"
        },
        {
          "internalType": "string",
          "name": "modelHash",
          "type": "string"
        },
        {
          "internalType": "uint256",
          "name": "score",
          "type": "uint256"
        },
        {
          "internalType": "bool",
          "name": "registered",
          "type": "bool"
        },
        {
          "internalType": "uint256",
          "name": "lastUpdated",
          "type": "uint256"
        }
      ],
      "stateMutability": "view",
      "type": "function"
    },
    {
      "inputs": [
        {
          "internalType": "address",
          "name": "_scorer",
          "type": "address"
        },
        {
          "internalType": "bool",
          "name": "_status",
          "type": "bool"
        }
      ],
      "name": "authorizeScorer",
      "outputs": [],
      "stateMutability": "nonpayable",
      "type": "function"
    },
    {
      "inputs": [
        {
          "internalType": "address",
          "name": "",
          "type": "address"
        }
      ],
      "name": "authorizedScorers",
      "outputs": [
        {
          "internalType": "bool",
          "name": "",
          "type": "bool"
        }
      ],
      "stateMutability": "view",
      "type": "function"
    },
    {
      "inputs": [
        {
          "internalType": "address",
          "name": "_agentAddress",
          "type": "address"
        }
      ],
      "name": "getAgent",
      "outputs": [
        {
          "components": [
            {
              "internalType": "string",
              "name": "name",
              "type": "string"
            },
            {
              "internalType": "string",
              "name": "agentType",
              "type": "string"
            },
            {
              "internalType": "string",
              "name": "modelHash",
              "type": "string"
            },
            {
              "internalType": "uint256",
              "name": "score",
              "type": "uint256"
            },
            {
              "internalType": "bool",
              "name": "registered",
              "type": "bool"
            },
            {
              "internalType": "uint256",
              "name": "lastUpdated",
              "type": "uint256"
            }
          ],
          "internalType": "struct AgentRegistry.Agent",
          "name": "",
          "type": "tuple"
        }
      ],
      "stateMutability": "view",
      "type": "function"
    },
    {
      "inputs": [
        {
          "internalType": "address",
          "name": "_agentAddress",
          "type": "address"
        }
      ],
      "name": "getScore",
      "outputs": [
        {
          "internalType": "uint256",
          "name": "",
          "type": "uint256"
        }
      ],
      "stateMutability": "view",
      "type": "function"
    },
    {
      "inputs": [],
      "name": "owner",
      "outputs": [
        {
          "internalType": "address",
          "name": "",
          "type": "address"
        }
      ],
      "stateMutability": "view",
      "type": "function"
    },
    {
      "inputs": [
        {
          "internalType": "string",
          "name": "_name",
          "type": "string"
        },
        {
          "internalType": "string",
          "name": "_agentType",
          "type": "string"
        },
        {
          "internalType": "string",
          "name": "_modelHash",
          "type": "string"
        }
      ],
      "name": "registerAgent",
      "outputs": [],
      "stateMutability": "nonpayable",
      "type": "function"
    },
    {
      "inputs": [],
      "name": "renounceOwnership",
      "outputs": [],
      "stateMutability": "nonpayable",
      "type": "function"
    },
    {
      "inputs": [
        {
          "internalType": "address",
          "name": "newOwner",
          "type": "address"
        }
      ],
      "name": "transferOwnership",
      "outputs": [],
      "stateMutability": "nonpayable",
      "type": "function"
    },
    {
      "inputs": [
        {
          "internalType": "address",
          "name": "_agentAddress",
          "type": "address"
        },
        {
          "internalType": "uint256",
          "name": "_newScore",
          "type": "uint256"
        }
      ],
      "name": "updateScore",
      "outputs": [],
      "stateMutability": "nonpayable",
      "type": "function"
    }
  ],
  "bytecode": "0x608060405234801561001057600080fd5b5061001a3361001f565b61006f565b600080546001600160a01b038381166001600160a01b0319831681178455604051919092169283917f8be0079c531659141344cd1fd0a4f28419497f9722a3daafe3b4186f6b6457e09190a35050565b6110618061007e6000396000f3fe608060405234801561001057600080fd5b50600436106100a95760003560e01c8063d47875d011610071578063d47875d014610111578063f2fde38b1461014b578063f5ebef481461015e578063fb3551ff14610191578063fc50be0e146101b1578063fd66091e146101c457600080fd5b80633efa8983146100ae57806356a2d660146100c357806365d97724146100d6578063715018a6146100e95780638da5cb5b146100f1575b600080fd5b6100c16100bc366004610b46565b6101e9565b005b6100c16100d1366004610c25565b610250565b6100c16100e4366004610cad565b610261565b6100c16103f9565b6000546040516001600160a01b0390911681526020015b60405180910390f35b61013d61011f366004610cd7565b6001600160a01b031660009081526001602052604090206003015490565b604051908152602001610108565b6100c1610159366004610cd7565b61040d565b61018161016c366004610cd7565b60026020526000908152604090205460ff1681565b6040519015158152602001610108565b6101a461019f366004610cd7565b610486565b6040516101089190610d3f565b6100c16101bf366004610dc4565b6106c3565b6101d76101d2366004610cd7565b610749565b60405161010896959493929190610e5d565b6101f161091b565b6001600160a01b038216600081815260026020908152604091829020805460ff191685151590811790915591519182527fa15269fdcef5792c3e4b2638041d4f36e1e61df60ac7c4c13c04a42573231fae910160405180910390a25050565b61025c33848484610975565b505050565b336102746000546001600160a01b031690565b6001600160a01b0316148061029857503360009081526002602052604090205460ff165b6102da5760405162461bcd60e51b815260206004820152600e60248201526d139bdd08185d5d1a1bdc9a5e995960921b60448201526064015b60405180910390fd5b6001600160a01b03821660009081526001602052604090206004015460ff1661033c5760405162461bcd60e51b81526020600482015260146024820152731059d95b9d081b9bdd081c9959da5cdd195c995960621b60448201526064016102d1565b61012c811015801561035057506103528111155b6103925760405162461bcd60e51b8152602060048201526013602482015272496e76616c69642073636f72652072616e676560681b60448201526064016102d1565b6001600160a01b038216600081815260016020526040908190206003810184905542600590910155513391907f957a7e48f1655c7d748cc915363f332b077b8b1750d8e765e5bf5dcd747d289a906103ed9085815260200190565b60405180910390a35050565b61040161091b565b61040b6000610ada565b565b61041561091b565b6001600160a01b03811661047a5760405162461bcd60e51b815260206004820152602660248201527f4f776e61626c653a206e6577206f776e657220697320746865207a65726f206160448201526564647265737360d01b60648201526084016102d1565b61048381610ada565b50565b6104c16040518060c0016040528060608152602001606081526020016060815260200160008152602001600015158152602001600081525090565b6001600160a01b03821660009081526001602052604090819020815160c081019092528054829082906104f390610eb5565b80601f016020809104026020016040519081016040528092919081815260200182805461051f90610eb5565b801561056c5780601f106105415761010080835404028352916020019161056c565b820191906000526020600020905b81548152906001019060200180831161054f57829003601f168201915b5050505050815260200160018201805461058590610eb5565b80601f01602080910402602001604051908101604052809291908181526020018280546105b190610eb5565b80156105fe5780601f106105d3576101008083540402835291602001916105fe565b820191906000526020600020905b8154815290600101906020018083116105e157829003601f168201915b5050505050815260200160028201805461061790610eb5565b80601f016020809104026020016040519081016040528092919081815260200182805461064390610eb5565b80156106905780601f1061066557610100808354040283529160200191610690565b820191906000526020600020905b81548152906001019060200180831161067357829003601f168201915b505050918352505060038201546020820152600482015460ff161515604082015260059091015460609091015292915050565b336106d66000546001600160a01b031690565b6001600160a01b031614806106fa57503360009081526002602052604090205460ff165b6107375760405162461bcd60e51b815260206004820152600e60248201526d139bdd08185d5d1a1bdc9a5e995960921b60448201526064016102d1565b61074384848484610975565b50505050565b60016020526000908152604090208054819061076490610eb5565b80601f016020809104026020016040519081016040528092919081815260200182805461079090610eb5565b80156107dd5780601f106107b2576101008083540402835291602001916107dd565b820191906000526020600020905b8154815290600101906020018083116107c057829003601f168201915b5050505050908060010180546107f290610eb5565b80601f016020809104026020016040519081016040528092919081815260200182805461081e90610eb5565b801561086b5780601f106108405761010080835404028352916020019161086b565b820191906000526020600020905b81548152906001019060200180831161084e57829003601f168201915b50505050509080600201805461088090610eb5565b80601f01602080910402602001604051908101604052809291908181526020018280546108ac90610eb5565b80156108f95780601f106108ce576101008083540402835291602001916108f9565b820191906000526020600020905b8154815290600101906020018083116108dc57829003601f168201915b50505050600383015460048401546005909401549293909260ff909116915086565b6000546001600160a01b0316331461040b5760405162461bcd60e51b815260206004820181905260248201527f4f776e61626c653a2063616c6c6572206973206e6f7420746865206f776e657260448201526064016102d1565b6001600160a01b03841660009081526001602052604090206004015460ff16156109e15760405162461bcd60e51b815260206004820152601860248201527f4167656e7420616c72656164792072656769737465726564000000000000000060448201526064016102d1565b6040805160c081018252848152602080820185905281830184905261012c60608301526001608083018190524260a08401526001600160a01b038816600090815291529190912081518190610a369082610f3d565b5060208201516001820190610a4b9082610f3d565b5060408201516002820190610a609082610f3d565b5060608201516003820155608082015160048201805460ff191691151591909117905560a0909101516005909101556040516001600160a01b038516907f37b3aaf4f807403887412a5994aa1832eface4a8c15501a3311bf21d3279ea3f90610acc9086908690610ffd565b60405180910390a250505050565b600080546001600160a01b038381166001600160a01b0319831681178455604051919092169283917f8be0079c531659141344cd1fd0a4f28419497f9722a3daafe3b4186f6b6457e09190a35050565b80356001600160a01b0381168114610b4157600080fd5b919050565b60008060408385031215610b5957600080fd5b610b6283610b2a565b915060208301358015158114610b7757600080fd5b809150509250929050565b634e487b7160e01b600052604160045260246000fd5b600082601f830112610ba957600080fd5b813567ffffffffffffffff80821115610bc457610bc4610b82565b604051601f8301601f19908116603f01168101908282118183101715610bec57610bec610b82565b81604052838152866020858801011115610c0557600080fd5b836020870160208301376000602085830101528094505050505092915050565b600080600060608486031215610c3a57600080fd5b833567ffffffffffffffff80821115610c5257600080fd5b610c5e87838801610b98565b94506020860135915080821115610c7457600080fd5b610c8087838801610b98565b93506040860135915080821115610c9657600080fd5b50610ca386828701610b98565b9150509250925092565b60008060408385031215610cc057600080fd5b610cc983610b2a565b946020939093013593505050565b600060208284031215610ce957600080fd5b610cf282610b2a565b9392505050565b6000815180845260005b81811015610d1f57602081850181015186830182015201610d03565b506000602082860101526020601f19601f83011685010191505092915050565b602081526000825160c06020840152610d5b60e0840182610cf9565b90506020840151601f1980858403016040860152610d798383610cf9565b9250604086015191508085840301606086015250610d978282610cf9565b915050606084015160808401526080840151151560a084015260a084015160c08401528091505092915050565b60008060008060808587031215610dda57600080fd5b610de385610b2a565b9350602085013567ffffffffffffffff80821115610e0057600080fd5b610e0c88838901610b98565b94506040870135915080821115610e2257600080fd5b610e2e88838901610b98565b93506060870135915080821115610e4457600080fd5b50610e5187828801610b98565b91505092959194509250565b60c081526000610e7060c0830189610cf9565b8281036020840152610e828189610cf9565b90508281036040840152610e968188610cf9565b60608401969096525050911515608083015260a0909101529392505050565b600181811c90821680610ec957607f821691505b602082108103610ee957634e487b7160e01b600052602260045260246000fd5b50919050565b601f82111561025c57600081815260208120601f850160051c81016020861015610f165750805b601f850160051c820191505b81811015610f3557828155600101610f22565b505050505050565b815167ffffffffffffffff811115610f5757610f57610b82565b610f6b81610f658454610eb5565b84610eef565b602080601f831160018114610fa05760008415610f885750858301515b600019600386901b1c1916600185901b178555610f35565b600085815260208120601f198616915b82811015610fcf57888601518255948401946001909101908401610fb0565b5085821015610fed5787850151600019600388901b60f8161c191681555b5050505050600190811b01905550565b6040815260006110106040830185610cf9565b82810360208401526110228185610cf9565b9594505050505056fea26469706673582212205d47517cf3f1f6e1e4627ed99cba1752c84501a9ed90f4c1e859e1bd1dadd26d64736f6c63430008130033",
  "linkReferences": {},
  "deployedLinkReferences": {}
}