{
  "_format": "hh-sol-artifact-1",
  "contractName": "LendingPool",
  "sourceName": "contracts/LendingPool.sol",
  "abi": [
    {
      "inputs": [
        {
          "internalType": "address",
          "name": "_pyusdToken",
          "type": "address"
        },
        {
          "internalType": "address",
          "name": "_scoreOracle",
          "type": "address"
        }
      ],
      "stateMutability": "nonpayable",
      "type": "constructor"
    },
    {
      "anonymous": false,
      "inputs": [
        {
          "indexed": true,
          "internalType": "address",
          "name": "borrower",
          "type": "address"
        },
        {
          "indexed": false,
          "internalType": "uint256",
          "name": "amount",
          "type": "uint256"
        }
      ],
      "name": "Borrowed",
      "type": "event"
    },
    {
      "anonymous": false,
      "inputs": [
        {
          "indexed": true,
          "internalType": "address",
          "name": "borrower",
          "type": "address"
        },
        {
          "indexed": false,
          "internalType": "uint256",
          "name": "amount",
          "type": "uint256"
        }
      ],
      "name": "CollateralAdded",
      "type": "event"
    },
    {
      "anonymous": false,
      "inputs": [
        {
          "indexed": true,
          "internalType": "address",
          "name": "lender",
          "type": "address"
        },
        {
          "indexed": false,
          "internalType": "uint256",
          "name": "amount",
          "type": "uint256"
        }
      ],
      "name": "Deposited",
      "type": "event"
    },
    {
      "anonymous": false,
      "inputs": [
        {
          "indexed": true,
          "internalType": "address",
          "name": "lender",
          "type": "address"
        },
        {
          "indexed": false,
          "internalType": "uint256",
          "name": "amount",
          "type": "uint256"
        }
      ],
      "name": "InterestPaid",
      "type": "event"
    },
    {
      "anonymous": false,
      "inputs": [
        {
          "indexed": true,
          "internalType": "address",
          "name": "previousOwner",
          "type": "address"
        },
        {
          "indexed": true,
          "internalType": "address",
          "name": "newOwner",
          "type": "address"
        }
      ],
      "name": "OwnershipTransferred",
      "type": "event"
    },
    {
      "anonymous": false,
      "inputs": [
        {
          "indexed": true,
          "internalType": "address",
          "name": "borrower",
          "type": "address"
        },
        {
          "indexed": false,
          "internalType": "uint256",
          "name": "amount",
          "type": "uint256"
        }
      ],
      "name": "Repaid",
      "type": "event"
    },
    {
      "anonymous": false,
      "inputs": [
        {
          "indexed": true,
          "internalType": "address",
          "name": "lender",
          "type": "address"
        },
        {
          "indexed": false,
          "internalType": "uint256",
          "name": "amount",
          "type": "uint256"
        }
      ],
      "name": "Withdrawn",
      "type": "event"
    },
    {
      "inputs": [
        {
          "internalType": "uint256",
          "name": "amount",
          "type": "uint256"
        }
      ],
      "name": "addCollateral",
      "outputs": [],
      "stateMutability": "nonpayable",
      "type": "function"
    },
    {
      "inputs": [],
      "name": "baseCollateralRatio",
      "outputs": [
        {
          "internalType": "uint256",
          "name": "",
          "type": "uint256"
        }
      ],
      "stateMutability": "view",
      "type": "function"
    },
    {
      "inputs": [
        {
          "internalType": "uint256",
          "name": "amount",
          "type": "uint256"
        }
      ],
      "name": "borrow",
      "outputs": [],
      "stateMutability": "nonpayable",
      "type": "function"
    },
    {
      "inputs": [
        {
          "internalType": "uint256",
          "name": "",
          "type": "uint256"
        }
      ],
      "name": "borrowerList",
      "outputs": [
        {
          "internalType": "address",
          "name": "",
          "type": "address"
        }
      ],
      "stateMutability": "view",
      "type": "function"
    },
    {
      "inputs": [
        {
          "internalType": "address",
          "name": "",
          "type": "address"
        }
      ],
      "name": "borrowers",
      "outputs": [
        {
          "internalType": "uint256",
          "name": "borrowedAmount",
          "type": "uint256"
        },
        {
          "internalType": "uint256",
          "name": "lastBorrowTime",
          "type": "uint256"
        },
        {
          "internalType": "uint256",
          "name": "collateralAmount",
          "type": "uint256"
        },
        {
          "internalType": "bool",
          "name": "isCollateralLocked",
          "type": "bool"
        }
      ],
      "stateMutability": "view",
      "type": "function"
    },
    {
      "inputs": [
        {
          "internalType": "address",
          "name": "lender",
          "type": "address"
        }
      ],
      "name": "calculatePendingInterest",
      "outputs": [
        {
          "internalType": "uint256",
          "name": "",
          "type": "uint256"
        }
      ],
      "stateMutability": "view",
      "type": "function"
    },
    {
      "inputs": [
        {
          "internalType": "uint256",
          "name": "amount",
          "type": "uint256"
        }
      ],
      "name": "deposit",
      "outputs": [],
      "stateMutability": "nonpayable",
      "type": "function"
    },
    {
      "inputs": [],
      "name": "emergencyWithdraw",
      "outputs": [],
      "stateMutability": "nonpayable",
      "type": "function"
    },
    {
      "inputs": [
        {
          "internalType": "address",
          "name": "borrower",
          "type": "address"
        }
      ],
      "name": "getBorrowerPosition",
      "outputs": [
        {
          "internalType": "uint256",
          "name": "borrowedAmount",
          "type": "uint256"
        },
        {
          "internalType": "uint256",
          "name": "collateralAmount",
          "type": "uint256"
        }
      ],
      "stateMutability": "view",
      "type": "function"
    },
    {
      "inputs": [
        {
          "internalType": "address",
          "name": "lender",
          "type": "address"
        }
      ],
      "name": "getLenderPosition",
      "outputs": [
        {
          "internalType": "uint256",
          "name": "depositedAmount",
          "type": "uint256"
        },
        {
          "internalType": "uint256",
          "name": "earnedInterest",
          "type": "uint256"
        }
      ],
      "stateMutability": "view",
      "type": "function"
    },
    {
      "inputs": [],
      "name": "getPoolStats",
      "outputs": [
        {
          "internalType": "uint256",
          "name": "_totalDeposits",
          "type": "uint256"
        },
        {
          "internalType": "uint256",
          "name": "_totalBorrowed",
          "type": "uint256"
        },
        {
          "internalType": "uint256",
          "name": "_availableLiquidity",
          "type": "uint256"
        },
        {
          "internalType": "uint256",
          "name": "_interestRate",
          "type": "uint256"
        }
      ],
      "stateMutability": "view",
      "type": "function"
    },
    {
      "inputs": [],
      "name": "interestRate",
      "outputs": [
        {
          "internalType": "uint256",
          "name": "",
          "type": "uint256"
        }
      ],
      "stateMutability": "view",
      "type": "function"
    },
    {
      "inputs": [
        {
          "internalType": "uint256",
          "name": "",
          "type": "uint256"
        }
      ],
      "name": "lenderList",
      "outputs": [
        {
          "internalType": "address",
          "name": "",
          "type": "address"
        }
      ],
      "stateMutability": "view",
      "type": "function"
    },
    {
      "inputs": [
        {
          "internalType": "address",
          "name": "",
          "type": "address"
        }
      ],
      "name": "lenders",
      "outputs": [
        {
          "internalType": "uint256",
          "name": "depositedAmount",
          "type": "uint256"
        },
        {
          "internalType": "uint256",
          "name": "lastDepositTime",
          "type": "uint256"
        },
        {
          "internalType": "uint256",
          "name": "earnedInterest",
          "type": "uint256"
        }
      ],
      "stateMutability": "view",
      "type": "function"
    },
    {
      "inputs": [],
      "name": "owner",
      "outputs": [
        {
          "internalType": "address",
          "name": "",
          "type": "address"
        }
      ],
      "stateMutability": "view",
      "type": "function"
    },
    {
      "inputs": [],
      "name": "pyusdToken",
      "outputs": [
        {
          "internalType": "contract IERC20",
          "name": "",
          "type": "address"
        }
      ],
      "stateMutability": "view",
      "type": "function"
    },
    {
      "inputs": [],
      "name": "renounceOwnership",
      "outputs": [],
      "stateMutability": "nonpayable",
      "type": "function"
    },
    {
      "inputs": [
        {
          "internalType": "address",
          "name": "_borrower",
          "type": "address"
        },
        {
          "internalType": "uint256",
          "name": "amount",
          "type": "uint256"
        }
      ],
      "name": "repay",
      "outputs": [],
      "stateMutability": "nonpayable",
      "type": "function"
    },
    {
      "inputs": [],
      "name": "scoreOracle",
      "outputs": [
        {
          "internalType": "contract IAgentScoreAttestation",
          "name": "",
          "type": "address"
        }
      ],
      "stateMutability": "view",
      "type": "function"
    },
    {
      "inputs": [
        {
          "internalType": "uint256",
          "name": "newRatio",
          "type": "uint256"
        }
      ],
      "name": "setCollateralRatio",
      "outputs": [],
      "stateMutability": "nonpayable",
      "type": "function"
    },
    {
      "inputs": [
        {
          "internalType": "uint256",
          "name": "newRate",
          "type": "uint256"
        }
      ],
      "name": "setInterestRate",
      "outputs": [],
      "stateMutability": "nonpayable",
      "type": "function"
    },
    {
      "inputs": [
        {
          "internalType": "address",
          "name": "_processor",
          "type": "address"
        }
      ],
      "name": "setX402Processor",
      "outputs": [],
      "stateMutability": "nonpayable",
      "type": "function"
    },
    {
      "inputs": [],
      "name": "totalBorrowed",
      "outputs": [
        {
          "internalType": "uint256",
          "name": "",
          "type": "uint256"
        }
      ],
      "stateMutability": "view",
      "type": "function"
    },
    {
      "inputs": [],
      "name": "totalDeposits",
      "outputs": [
        {
          "internalType": "uint256",
          "name": "",
          "type": "uint256"
        }
      ],
      "stateMutability": "view",
      "type": "function"
    },
    {
      "inputs": [
        {
          "internalType": "address",
          "name": "newOwner",
          "type": "address"
        }
      ],
      "name": "transferOwnership",
      "outputs": [],
      "stateMutability": "nonpayable",
      "type": "function"
    },
    {
      "inputs": [
        {
          "internalType": "uint256",
          "name": "amount",
          "type": "uint256"
        }
      ],
      "name": "withdraw",
      "outputs": [],
      "stateMutability": "nonpayable",
      "type": "function"
    },
    {
      "inputs": [],
      "name": "x402Processor",
      "outputs": [
        {
          "internalType": "address",
          "name": "",
          "type": "address"
        }
      ],
      "stateMutability": "view",
      "type": "function"
    }
  ],
  "bytecode": "0x60806040526101f4600b556096600c553480156200001c57600080fd5b50604051620016c8380380620016c88339810160408190526200003f91620000ed565b6200004a3362000080565b60018055600280546001600160a01b039384166001600160a01b0319918216179091556003805492909316911617905562000125565b600080546001600160a01b038381166001600160a01b0319831681178455604051919092169283917f8be0079c531659141344cd1fd0a4f28419497f9722a3daafe3b4186f6b6457e09190a35050565b80516001600160a01b0381168114620000e857600080fd5b919050565b600080604083850312156200010157600080fd5b6200010c83620000d0565b91506200011c60208401620000d0565b90509250929050565b61159380620001356000396000f3fe608060405234801561001057600080fd5b50600436106101a95760003560e01c806391763009116100f9578063c5ebeaec11610097578063f2fde38b11610071578063f2fde38b14610420578063fb3aca4b14610433578063fcad8ff314610446578063fd7be1361461044f57600080fd5b8063c5ebeaec146103f2578063c8bea31714610405578063db2e21bc1461041857600080fd5b8063bb3f6736116100d3578063bb3f67361461032c578063bbb851881461035d578063bcc46e8314610385578063bf5d50c41461039857600080fd5b806391763009146102f3578063b3a6652414610306578063b6b55f251461031957600080fd5b80636060663e116101665780637c3a00fd116101405780637c3a00fd146102bd5780637d882097146102c65780638cbc84ba146102cf5780638da5cb5b146102e257600080fd5b80636060663e146102775780636085c7df1461028a578063715018a6146102b557600080fd5b806322867d78146101ae57806328fd10d7146101c35780632e1a7d4d146102125780634c19386c146102255780635d413fa21461023c5780635f84f30214610264575b600080fd5b6101c16101bc366004611398565b610462565b005b6101f26101d13660046113c2565b60056020526000908152604090208054600182015460029092015490919083565b604080519384526020840192909252908201526060015b60405180910390f35b6101c16102203660046113e4565b61062c565b61022e600a5481565b604051908152602001610209565b61024f61024a3660046113c2565b610828565b60408051928352602083019190915201610209565b6101c16102723660046113e4565b61086f565b6101c16102853660046113e4565b6108c7565b61029d6102983660046113e4565b610933565b6040516001600160a01b039091168152602001610209565b6101c161095d565b61022e600b5481565b61022e60095481565b6101c16102dd3660046113c2565b610971565b6000546001600160a01b031661029d565b60025461029d906001600160a01b031681565b61029d6103143660046113e4565b61099b565b6101c16103273660046113e4565b6109ab565b61024f61033a3660046113c2565b6001600160a01b0316600090815260066020526040902080546002909101549091565b610365610b8f565b604080519485526020850193909352918301526060820152608001610209565b6101c16103933660046113e4565b610bbc565b6103d06103a63660046113c2565b60066020526000908152604090208054600182015460028301546003909301549192909160ff1684565b6040805194855260208501939093529183015215156060820152608001610209565b6101c16104003660046113e4565b610cd6565b61022e6104133660046113c2565b61102e565b6101c16110db565b6101c161042e3660046113c2565b611203565b60035461029d906001600160a01b031681565b61022e600c5481565b60045461029d906001600160a01b031681565b61046a611279565b600081116104935760405162461bcd60e51b815260040161048a906113fd565b60405180910390fd5b6001600160a01b038216600090815260066020526040902080548211156104fc5760405162461bcd60e51b815260206004820152601e60248201527f416d6f756e74206578636565647320626f72726f77656420616d6f756e740000604482015260640161048a565b81816000016000828254610510919061144a565b9250508190555081600a6000828254610529919061144a565b909155505080546000036105445760038101805460ff191690555b6002546040516323b872dd60e01b8152336004820152306024820152604481018490526001600160a01b03909116906323b872dd906064016020604051808303816000875af115801561059b573d6000803e3d6000fd5b505050506040513d601f19601f820116820180604052508101906105bf9190611463565b6105db5760405162461bcd60e51b815260040161048a90611485565b826001600160a01b03167f0516911bcc3a0a7412a44601057c0a0a1ec628bde049a84284bc4288665344888360405161061691815260200190565b60405180910390a25061062860018055565b5050565b610634611279565b600081116106545760405162461bcd60e51b815260040161048a906113fd565b3360009081526005602052604081206002810154815491929161067791906114ae565b9050808311156106c05760405162461bcd60e51b8152602060048201526014602482015273496e73756666696369656e742062616c616e636560601b604482015260640161048a565b60006106cb3361102e565b905060008184600201546106df91906114ae565b90506000846000015486116106f457856106f7565b84545b90506000610705828861144a565b90508186600001600082825461071b919061144a565b9091555061072b9050818461144a565b60028701554260018701556009805483919060009061074b90849061144a565b909155505060025460405163a9059cbb60e01b8152336004820152602481018990526001600160a01b039091169063a9059cbb906044016020604051808303816000875af11580156107a1573d6000803e3d6000fd5b505050506040513d601f19601f820116820180604052508101906107c59190611463565b6107e15760405162461bcd60e51b815260040161048a90611485565b60405187815233907f7084f5476618d8e60b11ef0d7d3f06914655adb8793e28ff7f018d4c76d505d59060200160405180910390a250505050505061082560018055565b50565b60008060006108368461102e565b6001600160a01b03851660009081526005602052604090208054600290910154919250906108659083906114ae565b9250925050915091565b6108776112d2565b6107d08111156108c25760405162461bcd60e51b8152602060048201526016602482015275092dce8cae4cae6e840e4c2e8ca40e8dede40d0d2ced60531b604482015260640161048a565b600b55565b6108cf6112d2565b606481101580156108e2575061012c8111155b61092e5760405162461bcd60e51b815260206004820152601860248201527f496e76616c696420636f6c6c61746572616c20726174696f0000000000000000604482015260640161048a565b600c55565b6007818154811061094357600080fd5b6000918252602090912001546001600160a01b0316905081565b6109656112d2565b61096f600061132c565b565b6109796112d2565b600480546001600160a01b0319166001600160a01b0392909216919091179055565b6008818154811061094357600080fd5b6109b3611279565b600081116109d35760405162461bcd60e51b815260040161048a906113fd565b6002546040516323b872dd60e01b8152336004820152306024820152604481018390526001600160a01b03909116906323b872dd906064016020604051808303816000875af1158015610a2a573d6000803e3d6000fd5b505050506040513d601f19601f82011682018060405250810190610a4e9190611463565b610a6a5760405162461bcd60e51b815260040161048a90611485565b336000908152600560205260408120549003610ac357600780546001810182556000919091527fa66cc928b5edb82af9bd49922954155ab7b0942694bea4ce44661d9a8736c6880180546001600160a01b031916331790555b6000610ace3361102e565b90508015610afe573360009081526005602052604081206002018054839290610af89084906114ae565b90915550505b3360009081526005602052604081208054849290610b1d9084906114ae565b90915550503360009081526005602052604081204260019091015560098054849290610b4a9084906114ae565b909155505060405182815233907f2da466a7b24304f47e87fa2e1e5a81b9831ce54fec19055ce277ca2f39ba42c4906020015b60405180910390a25061082560018055565b600080600080600954600a54600a54600954610bab919061144a565b600b54935093509350935090919293565b610bc4611279565b60008111610be45760405162461bcd60e51b815260040161048a906113fd565b6002546040516323b872dd60e01b8152336004820152306024820152604481018390526001600160a01b03909116906323b872dd906064016020604051808303816000875af1158015610c3b573d6000803e3d6000fd5b505050506040513d601f19601f82011682018060405250810190610c5f9190611463565b610c7b5760405162461bcd60e51b815260040161048a90611485565b33600090815260066020526040812060028101805491928492610c9f9084906114ae565b909155505060405182815233907f7dba1be544024070cd5eebfa8bdd80a8b198cea8058c7d3cc1f8dd36e41ab2f790602001610b7d565b610cde611279565b60008111610cfe5760405162461bcd60e51b815260040161048a906113fd565b600354604051630d47875d60e41b81523360048201526000916001600160a01b03169063d47875d0906024016040805180830381865afa158015610d46573d6000803e3d6000fd5b505050506040513d601f19601f82011682018060405250810190610d6a91906114c1565b50905061ffff811660006103208210610d8d5750681b1ae4d6e2ef500000610dbb565b6102bc8210610da65750680ad78ebc5ac6200000610dbb565b6102588210610dbb57506802b5e3af16b18800005b60008111610e0b5760405162461bcd60e51b815260206004820152601e60248201527f4372656469742073636f726520746f6f206c6f7720746f20626f72726f770000604482015260640161048a565b33600090815260066020526040902080548290610e299087906114ae565b1115610e775760405162461bcd60e51b815260206004820181905260248201527f457863656564732073636f72652d626173656420637265646974206c696d6974604482015260640161048a565b84600a54610e8591906114ae565b6009541015610ed65760405162461bcd60e51b815260206004820152601e60248201527f496e73756666696369656e74206c697175696469747920696e20706f6f6c0000604482015260640161048a565b8054600003610f2257600880546001810182556000919091527ff3f7a9fe364faab93b216da50a3214154f22a0a2b415b23a84c8169e8b636ee30180546001600160a01b031916331790555b84816000016000828254610f3691906114ae565b9091555050426001820155600a8054869190600090610f569084906114ae565b909155505060025460405163a9059cbb60e01b8152336004820152602481018790526001600160a01b039091169063a9059cbb906044016020604051808303816000875af1158015610fac573d6000803e3d6000fd5b505050506040513d601f19601f82011682018060405250810190610fd09190611463565b610fec5760405162461bcd60e51b815260040161048a90611485565b60405185815233907fac59582e5396aca512fa873a2047e7f4c80f8f55d4a06cb34a78a0187f62719f9060200160405180910390a25050505061082560018055565b6001600160a01b0381166000908152600560209081526040808320815160608101835281548082526001830154948201949094526002909101549181019190915290820361107f5750600092915050565b6000816020015142611091919061144a565b90506000612710600b5484600001516110aa919061150b565b6110b49190611522565b905060006301e133806110c7848461150b565b6110d19190611522565b9695505050505050565b6110e36112d2565b6002546040516370a0823160e01b81523060048201526000916001600160a01b0316906370a0823190602401602060405180830381865afa15801561112c573d6000803e3d6000fd5b505050506040513d601f19601f820116820180604052508101906111509190611544565b6002549091506001600160a01b031663a9059cbb6111766000546001600160a01b031690565b6040516001600160e01b031960e084901b1681526001600160a01b039091166004820152602481018490526044016020604051808303816000875af11580156111c3573d6000803e3d6000fd5b505050506040513d601f19601f820116820180604052508101906111e79190611463565b6108255760405162461bcd60e51b815260040161048a90611485565b61120b6112d2565b6001600160a01b0381166112705760405162461bcd60e51b815260206004820152602660248201527f4f776e61626c653a206e6577206f776e657220697320746865207a65726f206160448201526564647265737360d01b606482015260840161048a565b6108258161132c565b6002600154036112cb5760405162461bcd60e51b815260206004820152601f60248201527f5265656e7472616e637947756172643a207265656e7472616e742063616c6c00604482015260640161048a565b6002600155565b6000546001600160a01b0316331461096f5760405162461bcd60e51b815260206004820181905260248201527f4f776e61626c653a2063616c6c6572206973206e6f7420746865206f776e6572604482015260640161048a565b600080546001600160a01b038381166001600160a01b0319831681178455604051919092169283917f8be0079c531659141344cd1fd0a4f28419497f9722a3daafe3b4186f6b6457e09190a35050565b80356001600160a01b038116811461139357600080fd5b919050565b600080604083850312156113ab57600080fd5b6113b48361137c565b946020939093013593505050565b6000602082840312156113d457600080fd5b6113dd8261137c565b9392505050565b6000602082840312156113f657600080fd5b5035919050565b6020808252601d908201527f416d6f756e74206d7573742062652067726561746572207468616e2030000000604082015260600190565b634e487b7160e01b600052601160045260246000fd5b8181038181111561145d5761145d611434565b92915050565b60006020828403121561147557600080fd5b815180151581146113dd57600080fd5b6020808252600f908201526e151c985b9cd9995c8819985a5b1959608a1b604082015260600190565b8082018082111561145d5761145d611434565b600080604083850312156114d457600080fd5b825161ffff811681146114e657600080fd5b602084015190925063ffffffff8116811461150057600080fd5b809150509250929050565b808202811582820484141761145d5761145d611434565b60008261153f57634e487b7160e01b600052601260045260246000fd5b500490565b60006020828403121561155657600080fd5b505191905056fea26469706673582212201752bd95b43cbc33caa35de44de87813eab3aeba82c9d3ad6102eee4d691255564736f6c63430008130033",
  "linkReferences": {},
  "deployedLinkReferences": {}
}