{
  "_format": "hh-sol-artifact-1",
  "contractName": "LendingPool",
  "sourceName": "contracts/LendingPool.sol",
  "abi": [
    {
      "inputs": [
        {
          "internalType": "address",
          "name": "_usdcToken",
          "type": "address"
        }
      ],
      "stateMutability": "nonpayable",
      "type": "constructor"
    },
    {
      "anonymous": false,
      "inputs": [
        {
          "indexed": true,
          "internalType": "address",
          "name": "borrower",
          "type": "address"
        },
        {
          "indexed": false,
          "internalType": "uint256",
          "name": "amount",
          "type": "uint256"
        }
      ],
      "name": "Borrowed",
      "type": "event"
    },
    {
      "anonymous": false,
      "inputs": [
        {
          "indexed": true,
          "internalType": "address",
          "name": "borrower",
          "type": "address"
        },
        {
          "indexed": false,
          "internalType": "uint256",
          "name": "amount",
          "type": "uint256"
        }
      ],
      "name": "CollateralAdded",
      "type": "event"
    },
    {
      "anonymous": false,
      "inputs": [
        {
          "indexed": true,
          "internalType": "address",
          "name": "lender",
          "type": "address"
        },
        {
          "indexed": false,
          "internalType": "uint256",
          "name": "amount",
          "type": "uint256"
        }
      ],
      "name": "Deposited",
      "type": "event"
    },
    {
      "anonymous": false,
      "inputs": [
        {
          "indexed": true,
          "internalType": "address",
          "name": "lender",
          "type": "address"
        },
        {
          "indexed": false,
          "internalType": "uint256",
          "name": "amount",
          "type": "uint256"
        }
      ],
      "name": "InterestPaid",
      "type": "event"
    },
    {
      "anonymous": false,
      "inputs": [
        {
          "indexed": true,
          "internalType": "address",
          "name": "previousOwner",
          "type": "address"
        },
        {
          "indexed": true,
          "internalType": "address",
          "name": "newOwner",
          "type": "address"
        }
      ],
      "name": "OwnershipTransferred",
      "type": "event"
    },
    {
      "anonymous": false,
      "inputs": [
        {
          "indexed": true,
          "internalType": "address",
          "name": "borrower",
          "type": "address"
        },
        {
          "indexed": false,
          "internalType": "uint256",
          "name": "amount",
          "type": "uint256"
        }
      ],
      "name": "Repaid",
      "type": "event"
    },
    {
      "anonymous": false,
      "inputs": [
        {
          "indexed": true,
          "internalType": "address",
          "name": "lender",
          "type": "address"
        },
        {
          "indexed": false,
          "internalType": "uint256",
          "name": "amount",
          "type": "uint256"
        }
      ],
      "name": "Withdrawn",
      "type": "event"
    },
    {
      "inputs": [
        {
          "internalType": "uint256",
          "name": "amount",
          "type": "uint256"
        }
      ],
      "name": "addCollateral",
      "outputs": [],
      "stateMutability": "nonpayable",
      "type": "function"
    },
    {
      "inputs": [
        {
          "internalType": "uint256",
          "name": "amount",
          "type": "uint256"
        }
      ],
      "name": "borrow",
      "outputs": [],
      "stateMutability": "nonpayable",
      "type": "function"
    },
    {
      "inputs": [
        {
          "internalType": "uint256",
          "name": "",
          "type": "uint256"
        }
      ],
      "name": "borrowerList",
      "outputs": [
        {
          "internalType": "address",
          "name": "",
          "type": "address"
        }
      ],
      "stateMutability": "view",
      "type": "function"
    },
    {
      "inputs": [
        {
          "internalType": "address",
          "name": "",
          "type": "address"
        }
      ],
      "name": "borrowers",
      "outputs": [
        {
          "internalType": "uint256",
          "name": "borrowedAmount",
          "type": "uint256"
        },
        {
          "internalType": "uint256",
          "name": "lastBorrowTime",
          "type": "uint256"
        },
        {
          "internalType": "uint256",
          "name": "collateralAmount",
          "type": "uint256"
        },
        {
          "internalType": "bool",
          "name": "isCollateralLocked",
          "type": "bool"
        }
      ],
      "stateMutability": "view",
      "type": "function"
    },
    {
      "inputs": [
        {
          "internalType": "address",
          "name": "lender",
          "type": "address"
        }
      ],
      "name": "calculatePendingInterest",
      "outputs": [
        {
          "internalType": "uint256",
          "name": "",
          "type": "uint256"
        }
      ],
      "stateMutability": "view",
      "type": "function"
    },
    {
      "inputs": [],
      "name": "collateralRatio",
      "outputs": [
        {
          "internalType": "uint256",
          "name": "",
          "type": "uint256"
        }
      ],
      "stateMutability": "view",
      "type": "function"
    },
    {
      "inputs": [
        {
          "internalType": "uint256",
          "name": "amount",
          "type": "uint256"
        }
      ],
      "name": "deposit",
      "outputs": [],
      "stateMutability": "nonpayable",
      "type": "function"
    },
    {
      "inputs": [],
      "name": "emergencyWithdraw",
      "outputs": [],
      "stateMutability": "nonpayable",
      "type": "function"
    },
    {
      "inputs": [
        {
          "internalType": "address",
          "name": "borrower",
          "type": "address"
        }
      ],
      "name": "getBorrowerPosition",
      "outputs": [
        {
          "internalType": "uint256",
          "name": "borrowedAmount",
          "type": "uint256"
        },
        {
          "internalType": "uint256",
          "name": "collateralAmount",
          "type": "uint256"
        }
      ],
      "stateMutability": "view",
      "type": "function"
    },
    {
      "inputs": [
        {
          "internalType": "address",
          "name": "lender",
          "type": "address"
        }
      ],
      "name": "getLenderPosition",
      "outputs": [
        {
          "internalType": "uint256",
          "name": "depositedAmount",
          "type": "uint256"
        },
        {
          "internalType": "uint256",
          "name": "earnedInterest",
          "type": "uint256"
        }
      ],
      "stateMutability": "view",
      "type": "function"
    },
    {
      "inputs": [],
      "name": "getPoolStats",
      "outputs": [
        {
          "internalType": "uint256",
          "name": "_totalDeposits",
          "type": "uint256"
        },
        {
          "internalType": "uint256",
          "name": "_totalBorrowed",
          "type": "uint256"
        },
        {
          "internalType": "uint256",
          "name": "_availableLiquidity",
          "type": "uint256"
        },
        {
          "internalType": "uint256",
          "name": "_interestRate",
          "type": "uint256"
        }
      ],
      "stateMutability": "view",
      "type": "function"
    },
    {
      "inputs": [],
      "name": "interestRate",
      "outputs": [
        {
          "internalType": "uint256",
          "name": "",
          "type": "uint256"
        }
      ],
      "stateMutability": "view",
      "type": "function"
    },
    {
      "inputs": [
        {
          "internalType": "uint256",
          "name": "",
          "type": "uint256"
        }
      ],
      "name": "lenderList",
      "outputs": [
        {
          "internalType": "address",
          "name": "",
          "type": "address"
        }
      ],
      "stateMutability": "view",
      "type": "function"
    },
    {
      "inputs": [
        {
          "internalType": "address",
          "name": "",
          "type": "address"
        }
      ],
      "name": "lenders",
      "outputs": [
        {
          "internalType": "uint256",
          "name": "depositedAmount",
          "type": "uint256"
        },
        {
          "internalType": "uint256",
          "name": "lastDepositTime",
          "type": "uint256"
        },
        {
          "internalType": "uint256",
          "name": "earnedInterest",
          "type": "uint256"
        }
      ],
      "stateMutability": "view",
      "type": "function"
    },
    {
      "inputs": [],
      "name": "owner",
      "outputs": [
        {
          "internalType": "address",
          "name": "",
          "type": "address"
        }
      ],
      "stateMutability": "view",
      "type": "function"
    },
    {
      "inputs": [],
      "name": "renounceOwnership",
      "outputs": [],
      "stateMutability": "nonpayable",
      "type": "function"
    },
    {
      "inputs": [
        {
          "internalType": "uint256",
          "name": "amount",
          "type": "uint256"
        }
      ],
      "name": "repay",
      "outputs": [],
      "stateMutability": "nonpayable",
      "type": "function"
    },
    {
      "inputs": [
        {
          "internalType": "uint256",
          "name": "newRatio",
          "type": "uint256"
        }
      ],
      "name": "setCollateralRatio",
      "outputs": [],
      "stateMutability": "nonpayable",
      "type": "function"
    },
    {
      "inputs": [
        {
          "internalType": "uint256",
          "name": "newRate",
          "type": "uint256"
        }
      ],
      "name": "setInterestRate",
      "outputs": [],
      "stateMutability": "nonpayable",
      "type": "function"
    },
    {
      "inputs": [],
      "name": "totalBorrowed",
      "outputs": [
        {
          "internalType": "uint256",
          "name": "",
          "type": "uint256"
        }
      ],
      "stateMutability": "view",
      "type": "function"
    },
    {
      "inputs": [],
      "name": "totalDeposits",
      "outputs": [
        {
          "internalType": "uint256",
          "name": "",
          "type": "uint256"
        }
      ],
      "stateMutability": "view",
      "type": "function"
    },
    {
      "inputs": [
        {
          "internalType": "address",
          "name": "newOwner",
          "type": "address"
        }
      ],
      "name": "transferOwnership",
      "outputs": [],
      "stateMutability": "nonpayable",
      "type": "function"
    },
    {
      "inputs": [],
      "name": "usdcToken",
      "outputs": [
        {
          "internalType": "contract IERC20",
          "name": "",
          "type": "address"
        }
      ],
      "stateMutability": "view",
      "type": "function"
    },
    {
      "inputs": [
        {
          "internalType": "uint256",
          "name": "amount",
          "type": "uint256"
        }
      ],
      "name": "withdraw",
      "outputs": [],
      "stateMutability": "nonpayable",
      "type": "function"
    }
  ],
  "bytecode": "0x60806040526101f46009556096600a5534801561001b57600080fd5b5060405161144338038061144383398101604081905261003a916100bc565b6100433361006c565b60018055600280546001600160a01b0319166001600160a01b03929092169190911790556100ec565b600080546001600160a01b038381166001600160a01b0319831681178455604051919092169283917f8be0079c531659141344cd1fd0a4f28419497f9722a3daafe3b4186f6b6457e09190a35050565b6000602082840312156100ce57600080fd5b81516001600160a01b03811681146100e557600080fd5b9392505050565b611348806100fb6000396000f3fe608060405234801561001057600080fd5b50600436106101585760003560e01c80638da5cb5b116100c3578063bcc46e831161007c578063bcc46e831461032a578063bf5d50c41461033d578063c5ebeaec14610397578063c8bea317146103aa578063db2e21bc146103bd578063f2fde38b146103c557600080fd5b80638da5cb5b14610291578063b3a66524146102a2578063b4eae1cb146102b5578063b6b55f25146102be578063bb3f6736146102d1578063bbb851881461030257600080fd5b80635f84f302116101155780635f84f3021461023e5780636060663e146102515780636085c7df14610264578063715018a6146102775780637c3a00fd1461027f5780637d8820971461028857600080fd5b806311eac8551461015d57806328fd10d71461018d5780632e1a7d4d146101d7578063371fd8e6146101ec5780634c19386c146101ff5780635d413fa214610216575b600080fd5b600254610170906001600160a01b031681565b6040516001600160a01b0390911681526020015b60405180910390f35b6101bc61019b3660046111b3565b60036020526000908152604090208054600182015460029092015490919083565b60408051938452602084019290925290820152606001610184565b6101ea6101e53660046111e3565b6103d8565b005b6101ea6101fa3660046111e3565b6105dd565b61020860085481565b604051908152602001610184565b6102296102243660046111b3565b610784565b60408051928352602083019190915201610184565b6101ea61024c3660046111e3565b6107cb565b6101ea61025f3660046111e3565b610823565b6101706102723660046111e3565b61088f565b6101ea6108b9565b61020860095481565b61020860075481565b6000546001600160a01b0316610170565b6101706102b03660046111e3565b6108cd565b610208600a5481565b6101ea6102cc3660046111e3565b6108dd565b6102296102df3660046111b3565b6001600160a01b0316600090815260046020526040902080546002909101549091565b61030a610ab3565b604080519485526020850193909352918301526060820152608001610184565b6101ea6103383660046111e3565b610ae0565b61037561034b3660046111b3565b60046020526000908152604090208054600182015460028301546003909301549192909160ff1684565b6040805194855260208501939093529183015215156060820152608001610184565b6101ea6103a53660046111e3565b610bfa565b6102086103b83660046111b3565b610e65565b6101ea610f12565b6101ea6103d33660046111b3565b61103a565b6103e06110b0565b600081116104095760405162461bcd60e51b8152600401610400906111fc565b60405180910390fd5b3360009081526003602052604081206002810154815491929161042c9190611249565b9050808311156104755760405162461bcd60e51b8152602060048201526014602482015273496e73756666696369656e742062616c616e636560601b6044820152606401610400565b600061048033610e65565b905060008184600201546104949190611249565b90506000846000015486116104a957856104ac565b84545b905060006104ba8288611262565b9050818660000160008282546104d09190611262565b909155506104e090508184611262565b600287015542600187015560078054839190600090610500908490611262565b909155505060025460405163a9059cbb60e01b8152336004820152602481018990526001600160a01b039091169063a9059cbb906044016020604051808303816000875af1158015610556573d6000803e3d6000fd5b505050506040513d601f19601f8201168201806040525081019061057a9190611275565b6105965760405162461bcd60e51b815260040161040090611297565b60405187815233907f7084f5476618d8e60b11ef0d7d3f06914655adb8793e28ff7f018d4c76d505d59060200160405180910390a25050505050506105da60018055565b50565b6105e56110b0565b600081116106055760405162461bcd60e51b8152600401610400906111fc565b33600090815260046020526040902080548211156106655760405162461bcd60e51b815260206004820152601e60248201527f416d6f756e74206578636565647320626f72726f77656420616d6f756e7400006044820152606401610400565b818160000160008282546106799190611262565b9250508190555081600860008282546106929190611262565b909155505080546000036106ad5760038101805460ff191690555b6002546040516323b872dd60e01b8152336004820152306024820152604481018490526001600160a01b03909116906323b872dd906064016020604051808303816000875af1158015610704573d6000803e3d6000fd5b505050506040513d601f19601f820116820180604052508101906107289190611275565b6107445760405162461bcd60e51b815260040161040090611297565b60405182815233907f0516911bcc3a0a7412a44601057c0a0a1ec628bde049a84284bc428866534488906020015b60405180910390a2506105da60018055565b600080600061079284610e65565b6001600160a01b03851660009081526003602052604090208054600290910154919250906107c1908390611249565b9250925050915091565b6107d3611109565b6107d081111561081e5760405162461bcd60e51b8152602060048201526016602482015275092dce8cae4cae6e840e4c2e8ca40e8dede40d0d2ced60531b6044820152606401610400565b600955565b61082b611109565b6064811015801561083e575061012c8111155b61088a5760405162461bcd60e51b815260206004820152601860248201527f496e76616c696420636f6c6c61746572616c20726174696f00000000000000006044820152606401610400565b600a55565b6005818154811061089f57600080fd5b6000918252602090912001546001600160a01b0316905081565b6108c1611109565b6108cb6000611163565b565b6006818154811061089f57600080fd5b6108e56110b0565b600081116109055760405162461bcd60e51b8152600401610400906111fc565b6002546040516323b872dd60e01b8152336004820152306024820152604481018390526001600160a01b03909116906323b872dd906064016020604051808303816000875af115801561095c573d6000803e3d6000fd5b505050506040513d601f19601f820116820180604052508101906109809190611275565b61099c5760405162461bcd60e51b815260040161040090611297565b3360009081526003602052604081205490036109f557600580546001810182556000919091527f036b6384b5eca791c62761152d0c79bb0604c104a5fb6f4eb0703f3154bb3db00180546001600160a01b031916331790555b6000610a0033610e65565b90508015610a30573360009081526003602052604081206002018054839290610a2a908490611249565b90915550505b3360009081526003602052604081208054849290610a4f908490611249565b90915550503360009081526003602052604081204260019091015560078054849290610a7c908490611249565b909155505060405182815233907f2da466a7b24304f47e87fa2e1e5a81b9831ce54fec19055ce277ca2f39ba42c490602001610772565b600080600080600754600854600854600754610acf9190611262565b600954935093509350935090919293565b610ae86110b0565b60008111610b085760405162461bcd60e51b8152600401610400906111fc565b6002546040516323b872dd60e01b8152336004820152306024820152604481018390526001600160a01b03909116906323b872dd906064016020604051808303816000875af1158015610b5f573d6000803e3d6000fd5b505050506040513d601f19601f82011682018060405250810190610b839190611275565b610b9f5760405162461bcd60e51b815260040161040090611297565b33600090815260046020526040812060028101805491928492610bc3908490611249565b909155505060405182815233907f7dba1be544024070cd5eebfa8bdd80a8b198cea8058c7d3cc1f8dd36e41ab2f790602001610772565b610c026110b0565b60008111610c225760405162461bcd60e51b8152600401610400906111fc565b80600854610c309190611249565b6007541015610c7a5760405162461bcd60e51b8152602060048201526016602482015275496e73756666696369656e74206c697175696469747960501b6044820152606401610400565b336000908152600460205260408120600a54909190606490610c9c90856112c0565b610ca691906112d7565b90508082600201541015610cfc5760405162461bcd60e51b815260206004820152601760248201527f496e73756666696369656e7420636f6c6c61746572616c0000000000000000006044820152606401610400565b8154600003610d4857600680546001810182556000919091527ff652222313e28459528d920b65115c16c04f3efc82aaedc97be59f3f377c0d3f0180546001600160a01b031916331790555b82826000016000828254610d5c9190611249565b90915550504260018084019190915560038301805460ff1916909117905560088054849190600090610d8f908490611249565b909155505060025460405163a9059cbb60e01b8152336004820152602481018590526001600160a01b039091169063a9059cbb906044016020604051808303816000875af1158015610de5573d6000803e3d6000fd5b505050506040513d601f19601f82011682018060405250810190610e099190611275565b610e255760405162461bcd60e51b815260040161040090611297565b60405183815233907fac59582e5396aca512fa873a2047e7f4c80f8f55d4a06cb34a78a0187f62719f9060200160405180910390a250506105da60018055565b6001600160a01b03811660009081526003602090815260408083208151606081018352815480825260018301549482019490945260029091015491810191909152908203610eb65750600092915050565b6000816020015142610ec89190611262565b905060006127106009548460000151610ee191906112c0565b610eeb91906112d7565b905060006301e13380610efe84846112c0565b610f0891906112d7565b9695505050505050565b610f1a611109565b6002546040516370a0823160e01b81523060048201526000916001600160a01b0316906370a0823190602401602060405180830381865afa158015610f63573d6000803e3d6000fd5b505050506040513d601f19601f82011682018060405250810190610f8791906112f9565b6002549091506001600160a01b031663a9059cbb610fad6000546001600160a01b031690565b6040516001600160e01b031960e084901b1681526001600160a01b039091166004820152602481018490526044016020604051808303816000875af1158015610ffa573d6000803e3d6000fd5b505050506040513d601f19601f8201168201806040525081019061101e9190611275565b6105da5760405162461bcd60e51b815260040161040090611297565b611042611109565b6001600160a01b0381166110a75760405162461bcd60e51b815260206004820152602660248201527f4f776e61626c653a206e6577206f776e657220697320746865207a65726f206160448201526564647265737360d01b6064820152608401610400565b6105da81611163565b6002600154036111025760405162461bcd60e51b815260206004820152601f60248201527f5265656e7472616e637947756172643a207265656e7472616e742063616c6c006044820152606401610400565b6002600155565b6000546001600160a01b031633146108cb5760405162461bcd60e51b815260206004820181905260248201527f4f776e61626c653a2063616c6c6572206973206e6f7420746865206f776e65726044820152606401610400565b600080546001600160a01b038381166001600160a01b0319831681178455604051919092169283917f8be0079c531659141344cd1fd0a4f28419497f9722a3daafe3b4186f6b6457e09190a35050565b6000602082840312156111c557600080fd5b81356001600160a01b03811681146111dc57600080fd5b9392505050565b6000602082840312156111f557600080fd5b5035919050565b6020808252601d908201527f416d6f756e74206d7573742062652067726561746572207468616e2030000000604082015260600190565b634e487b7160e01b600052601160045260246000fd5b8082018082111561125c5761125c611233565b92915050565b8181038181111561125c5761125c611233565b60006020828403121561128757600080fd5b815180151581146111dc57600080fd5b6020808252600f908201526e151c985b9cd9995c8819985a5b1959608a1b604082015260600190565b808202811582820484141761125c5761125c611233565b6000826112f457634e487b7160e01b600052601260045260246000fd5b500490565b60006020828403121561130b57600080fd5b505191905056fea26469706673582212204dd3051f1ff9fd39d3d7c23eb9bf5c2351d64ccba3016101bb744e61cfd6dd8864736f6c63430008130033",
  "linkReferences": {},
  "deployedLinkReferences": {}
}