{
  "_format": "hh-sol-artifact-1",
  "contractName": "LendingPool",
  "sourceName": "contracts/LendingPool.sol",
  "abi": [
    {
      "inputs": [
        {
          "internalType": "address",
          "name": "_usdtToken",
          "type": "address"
        },
        {
          "internalType": "address",
          "name": "_agentRegistry",
          "type": "address"
        }
      ],
      "stateMutability": "nonpayable",
      "type": "constructor"
    },
    {
      "anonymous": false,
      "inputs": [
        {
          "indexed": true,
          "internalType": "address",
          "name": "borrower",
          "type": "address"
        },
        {
          "indexed": false,
          "internalType": "uint256",
          "name": "amount",
          "type": "uint256"
        }
      ],
      "name": "Borrowed",
      "type": "event"
    },
    {
      "anonymous": false,
      "inputs": [
        {
          "indexed": true,
          "internalType": "address",
          "name": "borrower",
          "type": "address"
        },
        {
          "indexed": false,
          "internalType": "uint256",
          "name": "amount",
          "type": "uint256"
        }
      ],
      "name": "CollateralAdded",
      "type": "event"
    },
    {
      "anonymous": false,
      "inputs": [
        {
          "indexed": true,
          "internalType": "address",
          "name": "lender",
          "type": "address"
        },
        {
          "indexed": false,
          "internalType": "uint256",
          "name": "amount",
          "type": "uint256"
        }
      ],
      "name": "Deposited",
      "type": "event"
    },
    {
      "anonymous": false,
      "inputs": [
        {
          "indexed": true,
          "internalType": "address",
          "name": "lender",
          "type": "address"
        },
        {
          "indexed": false,
          "internalType": "uint256",
          "name": "amount",
          "type": "uint256"
        }
      ],
      "name": "InterestPaid",
      "type": "event"
    },
    {
      "anonymous": false,
      "inputs": [
        {
          "indexed": true,
          "internalType": "address",
          "name": "previousOwner",
          "type": "address"
        },
        {
          "indexed": true,
          "internalType": "address",
          "name": "newOwner",
          "type": "address"
        }
      ],
      "name": "OwnershipTransferred",
      "type": "event"
    },
    {
      "anonymous": false,
      "inputs": [
        {
          "indexed": true,
          "internalType": "address",
          "name": "borrower",
          "type": "address"
        },
        {
          "indexed": false,
          "internalType": "uint256",
          "name": "amount",
          "type": "uint256"
        }
      ],
      "name": "Repaid",
      "type": "event"
    },
    {
      "anonymous": false,
      "inputs": [
        {
          "indexed": true,
          "internalType": "address",
          "name": "lender",
          "type": "address"
        },
        {
          "indexed": false,
          "internalType": "uint256",
          "name": "amount",
          "type": "uint256"
        }
      ],
      "name": "Withdrawn",
      "type": "event"
    },
    {
      "inputs": [
        {
          "internalType": "uint256",
          "name": "amount",
          "type": "uint256"
        }
      ],
      "name": "addCollateral",
      "outputs": [],
      "stateMutability": "nonpayable",
      "type": "function"
    },
    {
      "inputs": [],
      "name": "agentRegistry",
      "outputs": [
        {
          "internalType": "contract IAgentRegistry",
          "name": "",
          "type": "address"
        }
      ],
      "stateMutability": "view",
      "type": "function"
    },
    {
      "inputs": [],
      "name": "baseCollateralRatio",
      "outputs": [
        {
          "internalType": "uint256",
          "name": "",
          "type": "uint256"
        }
      ],
      "stateMutability": "view",
      "type": "function"
    },
    {
      "inputs": [
        {
          "internalType": "uint256",
          "name": "amount",
          "type": "uint256"
        }
      ],
      "name": "borrow",
      "outputs": [],
      "stateMutability": "nonpayable",
      "type": "function"
    },
    {
      "inputs": [
        {
          "internalType": "uint256",
          "name": "",
          "type": "uint256"
        }
      ],
      "name": "borrowerList",
      "outputs": [
        {
          "internalType": "address",
          "name": "",
          "type": "address"
        }
      ],
      "stateMutability": "view",
      "type": "function"
    },
    {
      "inputs": [
        {
          "internalType": "address",
          "name": "",
          "type": "address"
        }
      ],
      "name": "borrowers",
      "outputs": [
        {
          "internalType": "uint256",
          "name": "borrowedAmount",
          "type": "uint256"
        },
        {
          "internalType": "uint256",
          "name": "lastBorrowTime",
          "type": "uint256"
        },
        {
          "internalType": "uint256",
          "name": "collateralAmount",
          "type": "uint256"
        },
        {
          "internalType": "bool",
          "name": "isCollateralLocked",
          "type": "bool"
        }
      ],
      "stateMutability": "view",
      "type": "function"
    },
    {
      "inputs": [
        {
          "internalType": "address",
          "name": "lender",
          "type": "address"
        }
      ],
      "name": "calculatePendingInterest",
      "outputs": [
        {
          "internalType": "uint256",
          "name": "",
          "type": "uint256"
        }
      ],
      "stateMutability": "view",
      "type": "function"
    },
    {
      "inputs": [
        {
          "internalType": "uint256",
          "name": "amount",
          "type": "uint256"
        }
      ],
      "name": "deposit",
      "outputs": [],
      "stateMutability": "nonpayable",
      "type": "function"
    },
    {
      "inputs": [],
      "name": "emergencyWithdraw",
      "outputs": [],
      "stateMutability": "nonpayable",
      "type": "function"
    },
    {
      "inputs": [
        {
          "internalType": "address",
          "name": "borrower",
          "type": "address"
        }
      ],
      "name": "getBorrowerPosition",
      "outputs": [
        {
          "internalType": "uint256",
          "name": "borrowedAmount",
          "type": "uint256"
        },
        {
          "internalType": "uint256",
          "name": "collateralAmount",
          "type": "uint256"
        }
      ],
      "stateMutability": "view",
      "type": "function"
    },
    {
      "inputs": [
        {
          "internalType": "address",
          "name": "lender",
          "type": "address"
        }
      ],
      "name": "getLenderPosition",
      "outputs": [
        {
          "internalType": "uint256",
          "name": "depositedAmount",
          "type": "uint256"
        },
        {
          "internalType": "uint256",
          "name": "earnedInterest",
          "type": "uint256"
        }
      ],
      "stateMutability": "view",
      "type": "function"
    },
    {
      "inputs": [],
      "name": "getPoolStats",
      "outputs": [
        {
          "internalType": "uint256",
          "name": "_totalDeposits",
          "type": "uint256"
        },
        {
          "internalType": "uint256",
          "name": "_totalBorrowed",
          "type": "uint256"
        },
        {
          "internalType": "uint256",
          "name": "_availableLiquidity",
          "type": "uint256"
        },
        {
          "internalType": "uint256",
          "name": "_interestRate",
          "type": "uint256"
        }
      ],
      "stateMutability": "view",
      "type": "function"
    },
    {
      "inputs": [],
      "name": "interestRate",
      "outputs": [
        {
          "internalType": "uint256",
          "name": "",
          "type": "uint256"
        }
      ],
      "stateMutability": "view",
      "type": "function"
    },
    {
      "inputs": [
        {
          "internalType": "uint256",
          "name": "",
          "type": "uint256"
        }
      ],
      "name": "lenderList",
      "outputs": [
        {
          "internalType": "address",
          "name": "",
          "type": "address"
        }
      ],
      "stateMutability": "view",
      "type": "function"
    },
    {
      "inputs": [
        {
          "internalType": "address",
          "name": "",
          "type": "address"
        }
      ],
      "name": "lenders",
      "outputs": [
        {
          "internalType": "uint256",
          "name": "depositedAmount",
          "type": "uint256"
        },
        {
          "internalType": "uint256",
          "name": "lastDepositTime",
          "type": "uint256"
        },
        {
          "internalType": "uint256",
          "name": "earnedInterest",
          "type": "uint256"
        }
      ],
      "stateMutability": "view",
      "type": "function"
    },
    {
      "inputs": [],
      "name": "owner",
      "outputs": [
        {
          "internalType": "address",
          "name": "",
          "type": "address"
        }
      ],
      "stateMutability": "view",
      "type": "function"
    },
    {
      "inputs": [],
      "name": "renounceOwnership",
      "outputs": [],
      "stateMutability": "nonpayable",
      "type": "function"
    },
    {
      "inputs": [
        {
          "internalType": "address",
          "name": "_borrower",
          "type": "address"
        },
        {
          "internalType": "uint256",
          "name": "amount",
          "type": "uint256"
        }
      ],
      "name": "repay",
      "outputs": [],
      "stateMutability": "nonpayable",
      "type": "function"
    },
    {
      "inputs": [
        {
          "internalType": "uint256",
          "name": "newRatio",
          "type": "uint256"
        }
      ],
      "name": "setCollateralRatio",
      "outputs": [],
      "stateMutability": "nonpayable",
      "type": "function"
    },
    {
      "inputs": [
        {
          "internalType": "uint256",
          "name": "newRate",
          "type": "uint256"
        }
      ],
      "name": "setInterestRate",
      "outputs": [],
      "stateMutability": "nonpayable",
      "type": "function"
    },
    {
      "inputs": [
        {
          "internalType": "address",
          "name": "_processor",
          "type": "address"
        }
      ],
      "name": "setX402Processor",
      "outputs": [],
      "stateMutability": "nonpayable",
      "type": "function"
    },
    {
      "inputs": [],
      "name": "totalBorrowed",
      "outputs": [
        {
          "internalType": "uint256",
          "name": "",
          "type": "uint256"
        }
      ],
      "stateMutability": "view",
      "type": "function"
    },
    {
      "inputs": [],
      "name": "totalDeposits",
      "outputs": [
        {
          "internalType": "uint256",
          "name": "",
          "type": "uint256"
        }
      ],
      "stateMutability": "view",
      "type": "function"
    },
    {
      "inputs": [
        {
          "internalType": "address",
          "name": "newOwner",
          "type": "address"
        }
      ],
      "name": "transferOwnership",
      "outputs": [],
      "stateMutability": "nonpayable",
      "type": "function"
    },
    {
      "inputs": [],
      "name": "usdtToken",
      "outputs": [
        {
          "internalType": "contract IERC20",
          "name": "",
          "type": "address"
        }
      ],
      "stateMutability": "view",
      "type": "function"
    },
    {
      "inputs": [
        {
          "internalType": "uint256",
          "name": "amount",
          "type": "uint256"
        }
      ],
      "name": "withdraw",
      "outputs": [],
      "stateMutability": "nonpayable",
      "type": "function"
    },
    {
      "inputs": [],
      "name": "x402Processor",
      "outputs": [
        {
          "internalType": "address",
          "name": "",
          "type": "address"
        }
      ],
      "stateMutability": "view",
      "type": "function"
    }
  ],
  "bytecode": "0x60806040526101f4600b556096600c553480156200001c57600080fd5b5060405162001669380380620016698339810160408190526200003f91620000ed565b6200004a3362000080565b60018055600280546001600160a01b039384166001600160a01b0319918216179091556003805492909316911617905562000125565b600080546001600160a01b038381166001600160a01b0319831681178455604051919092169283917f8be0079c531659141344cd1fd0a4f28419497f9722a3daafe3b4186f6b6457e09190a35050565b80516001600160a01b0381168114620000e857600080fd5b919050565b600080604083850312156200010157600080fd5b6200010c83620000d0565b91506200011c60208401620000d0565b90509250929050565b61153480620001356000396000f3fe608060405234801561001057600080fd5b50600436106101a95760003560e01c80638da5cb5b116100f9578063bf5d50c411610097578063db2e21bc11610071578063db2e21bc1461042b578063f2fde38b14610433578063fcad8ff314610446578063fd7be1361461044f57600080fd5b8063bf5d50c4146103ab578063c5ebeaec14610405578063c8bea3171461041857600080fd5b8063b6b55f25116100d3578063b6b55f251461032c578063bb3f67361461033f578063bbb8518814610370578063bcc46e831461039857600080fd5b80638da5cb5b146102f5578063a98ad46c14610306578063b3a665241461031957600080fd5b80635f84f30211610166578063715018a611610140578063715018a6146102c85780637c3a00fd146102d05780637d882097146102d95780638cbc84ba146102e257600080fd5b80635f84f3021461028f5780636060663e146102a25780636085c7df146102b557600080fd5b80630d1cfcae146101ae57806322867d78146101de57806328fd10d7146101f35780632e1a7d4d1461023d5780634c19386c146102505780635d413fa214610267575b600080fd5b6003546101c1906001600160a01b031681565b6040516001600160a01b0390911681526020015b60405180910390f35b6101f16101ec366004611383565b610462565b005b6102226102013660046113ad565b60056020526000908152604090208054600182015460029092015490919083565b604080519384526020840192909252908201526060016101d5565b6101f161024b3660046113cf565b61062c565b610259600a5481565b6040519081526020016101d5565b61027a6102753660046113ad565b610828565b604080519283526020830191909152016101d5565b6101f161029d3660046113cf565b61086f565b6101f16102b03660046113cf565b6108c7565b6101c16102c33660046113cf565b610933565b6101f161095d565b610259600b5481565b61025960095481565b6101f16102f03660046113ad565b610971565b6000546001600160a01b03166101c1565b6002546101c1906001600160a01b031681565b6101c16103273660046113cf565b61099b565b6101f161033a3660046113cf565b6109ab565b61027a61034d3660046113ad565b6001600160a01b0316600090815260066020526040902080546002909101549091565b610378610b8f565b6040805194855260208501939093529183015260608201526080016101d5565b6101f16103a63660046113cf565b610bbc565b6103e36103b93660046113ad565b60066020526000908152604090208054600182015460028301546003909301549192909160ff1684565b60408051948552602085019390935291830152151560608201526080016101d5565b6101f16104133660046113cf565b610cd6565b6102596104263660046113ad565b611019565b6101f16110c6565b6101f16104413660046113ad565b6111ee565b610259600c5481565b6004546101c1906001600160a01b031681565b61046a611264565b600081116104935760405162461bcd60e51b815260040161048a906113e8565b60405180910390fd5b6001600160a01b038216600090815260066020526040902080548211156104fc5760405162461bcd60e51b815260206004820152601e60248201527f416d6f756e74206578636565647320626f72726f77656420616d6f756e740000604482015260640161048a565b818160000160008282546105109190611435565b9250508190555081600a60008282546105299190611435565b909155505080546000036105445760038101805460ff191690555b6002546040516323b872dd60e01b8152336004820152306024820152604481018490526001600160a01b03909116906323b872dd906064016020604051808303816000875af115801561059b573d6000803e3d6000fd5b505050506040513d601f19601f820116820180604052508101906105bf919061144e565b6105db5760405162461bcd60e51b815260040161048a90611470565b826001600160a01b03167f0516911bcc3a0a7412a44601057c0a0a1ec628bde049a84284bc4288665344888360405161061691815260200190565b60405180910390a25061062860018055565b5050565b610634611264565b600081116106545760405162461bcd60e51b815260040161048a906113e8565b336000908152600560205260408120600281015481549192916106779190611499565b9050808311156106c05760405162461bcd60e51b8152602060048201526014602482015273496e73756666696369656e742062616c616e636560601b604482015260640161048a565b60006106cb33611019565b905060008184600201546106df9190611499565b90506000846000015486116106f457856106f7565b84545b905060006107058288611435565b90508186600001600082825461071b9190611435565b9091555061072b90508184611435565b60028701554260018701556009805483919060009061074b908490611435565b909155505060025460405163a9059cbb60e01b8152336004820152602481018990526001600160a01b039091169063a9059cbb906044016020604051808303816000875af11580156107a1573d6000803e3d6000fd5b505050506040513d601f19601f820116820180604052508101906107c5919061144e565b6107e15760405162461bcd60e51b815260040161048a90611470565b60405187815233907f7084f5476618d8e60b11ef0d7d3f06914655adb8793e28ff7f018d4c76d505d59060200160405180910390a250505050505061082560018055565b50565b600080600061083684611019565b6001600160a01b0385166000908152600560205260409020805460029091015491925090610865908390611499565b9250925050915091565b6108776112bd565b6107d08111156108c25760405162461bcd60e51b8152602060048201526016602482015275092dce8cae4cae6e840e4c2e8ca40e8dede40d0d2ced60531b604482015260640161048a565b600b55565b6108cf6112bd565b606481101580156108e2575061012c8111155b61092e5760405162461bcd60e51b815260206004820152601860248201527f496e76616c696420636f6c6c61746572616c20726174696f0000000000000000604482015260640161048a565b600c55565b6007818154811061094357600080fd5b6000918252602090912001546001600160a01b0316905081565b6109656112bd565b61096f6000611317565b565b6109796112bd565b600480546001600160a01b0319166001600160a01b0392909216919091179055565b6008818154811061094357600080fd5b6109b3611264565b600081116109d35760405162461bcd60e51b815260040161048a906113e8565b6002546040516323b872dd60e01b8152336004820152306024820152604481018390526001600160a01b03909116906323b872dd906064016020604051808303816000875af1158015610a2a573d6000803e3d6000fd5b505050506040513d601f19601f82011682018060405250810190610a4e919061144e565b610a6a5760405162461bcd60e51b815260040161048a90611470565b336000908152600560205260408120549003610ac357600780546001810182556000919091527fa66cc928b5edb82af9bd49922954155ab7b0942694bea4ce44661d9a8736c6880180546001600160a01b031916331790555b6000610ace33611019565b90508015610afe573360009081526005602052604081206002018054839290610af8908490611499565b90915550505b3360009081526005602052604081208054849290610b1d908490611499565b90915550503360009081526005602052604081204260019091015560098054849290610b4a908490611499565b909155505060405182815233907f2da466a7b24304f47e87fa2e1e5a81b9831ce54fec19055ce277ca2f39ba42c4906020015b60405180910390a25061082560018055565b600080600080600954600a54600a54600954610bab9190611435565b600b54935093509350935090919293565b610bc4611264565b60008111610be45760405162461bcd60e51b815260040161048a906113e8565b6002546040516323b872dd60e01b8152336004820152306024820152604481018390526001600160a01b03909116906323b872dd906064016020604051808303816000875af1158015610c3b573d6000803e3d6000fd5b505050506040513d601f19601f82011682018060405250810190610c5f919061144e565b610c7b5760405162461bcd60e51b815260040161048a90611470565b33600090815260066020526040812060028101805491928492610c9f908490611499565b909155505060405182815233907f7dba1be544024070cd5eebfa8bdd80a8b198cea8058c7d3cc1f8dd36e41ab2f790602001610b7d565b610cde611264565b60008111610cfe5760405162461bcd60e51b815260040161048a906113e8565b600354604051630d47875d60e41b81523360048201526000916001600160a01b03169063d47875d090602401602060405180830381865afa158015610d47573d6000803e3d6000fd5b505050506040513d601f19601f82011682018060405250810190610d6b91906114ac565b905060006103208210610d835750631dcd6500610da7565b6102bc8210610d975750630bebc200610da7565b6102588210610da757506302faf0805b60008111610df75760405162461bcd60e51b815260206004820152601e60248201527f4372656469742073636f726520746f6f206c6f7720746f20626f72726f770000604482015260640161048a565b33600090815260066020526040902080548290610e15908690611499565b1115610e635760405162461bcd60e51b815260206004820181905260248201527f457863656564732073636f72652d626173656420637265646974206c696d6974604482015260640161048a565b83600a54610e719190611499565b6009541015610ec25760405162461bcd60e51b815260206004820152601e60248201527f496e73756666696369656e74206c697175696469747920696e20706f6f6c0000604482015260640161048a565b8054600003610f0e57600880546001810182556000919091527ff3f7a9fe364faab93b216da50a3214154f22a0a2b415b23a84c8169e8b636ee30180546001600160a01b031916331790555b83816000016000828254610f229190611499565b9091555050426001820155600a8054859190600090610f42908490611499565b909155505060025460405163a9059cbb60e01b8152336004820152602481018690526001600160a01b039091169063a9059cbb906044016020604051808303816000875af1158015610f98573d6000803e3d6000fd5b505050506040513d601f19601f82011682018060405250810190610fbc919061144e565b610fd85760405162461bcd60e51b815260040161048a90611470565b60405184815233907fac59582e5396aca512fa873a2047e7f4c80f8f55d4a06cb34a78a0187f62719f9060200160405180910390a250505061082560018055565b6001600160a01b0381166000908152600560209081526040808320815160608101835281548082526001830154948201949094526002909101549181019190915290820361106a5750600092915050565b600081602001514261107c9190611435565b90506000612710600b54846000015161109591906114c5565b61109f91906114dc565b905060006301e133806110b284846114c5565b6110bc91906114dc565b9695505050505050565b6110ce6112bd565b6002546040516370a0823160e01b81523060048201526000916001600160a01b0316906370a0823190602401602060405180830381865afa158015611117573d6000803e3d6000fd5b505050506040513d601f19601f8201168201806040525081019061113b91906114ac565b6002549091506001600160a01b031663a9059cbb6111616000546001600160a01b031690565b6040516001600160e01b031960e084901b1681526001600160a01b039091166004820152602481018490526044016020604051808303816000875af11580156111ae573d6000803e3d6000fd5b505050506040513d601f19601f820116820180604052508101906111d2919061144e565b6108255760405162461bcd60e51b815260040161048a90611470565b6111f66112bd565b6001600160a01b03811661125b5760405162461bcd60e51b815260206004820152602660248201527f4f776e61626c653a206e6577206f776e657220697320746865207a65726f206160448201526564647265737360d01b606482015260840161048a565b61082581611317565b6002600154036112b65760405162461bcd60e51b815260206004820152601f60248201527f5265656e7472616e637947756172643a207265656e7472616e742063616c6c00604482015260640161048a565b6002600155565b6000546001600160a01b0316331461096f5760405162461bcd60e51b815260206004820181905260248201527f4f776e61626c653a2063616c6c6572206973206e6f7420746865206f776e6572604482015260640161048a565b600080546001600160a01b038381166001600160a01b0319831681178455604051919092169283917f8be0079c531659141344cd1fd0a4f28419497f9722a3daafe3b4186f6b6457e09190a35050565b80356001600160a01b038116811461137e57600080fd5b919050565b6000806040838503121561139657600080fd5b61139f83611367565b946020939093013593505050565b6000602082840312156113bf57600080fd5b6113c882611367565b9392505050565b6000602082840312156113e157600080fd5b5035919050565b6020808252601d908201527f416d6f756e74206d7573742062652067726561746572207468616e2030000000604082015260600190565b634e487b7160e01b600052601160045260246000fd5b818103818111156114485761144861141f565b92915050565b60006020828403121561146057600080fd5b815180151581146113c857600080fd5b6020808252600f908201526e151c985b9cd9995c8819985a5b1959608a1b604082015260600190565b808201808211156114485761144861141f565b6000602082840312156114be57600080fd5b5051919050565b80820281158282048414176114485761144861141f565b6000826114f957634e487b7160e01b600052601260045260246000fd5b50049056fea26469706673582212206141cdbfbcfbcd9665403016f8bb8e64d2f819b7b46122dfc8a5db9abc32d66464736f6c63430008130033",
  "linkReferences": {},
  "deployedLinkReferences": {}
}