{
  "_format": "hh-sol-artifact-1",
  "contractName": "LendingPool",
  "sourceName": "contracts/LendingPool.sol",
  "abi": [
    {
      "inputs": [
        {
          "internalType": "address",
          "name": "_pyusdToken",
          "type": "address"
        },
        {
          "internalType": "address",
          "name": "_scoreOracle",
          "type": "address"
        }
      ],
      "stateMutability": "nonpayable",
      "type": "constructor"
    },
    {
      "anonymous": false,
      "inputs": [
        {
          "indexed": true,
          "internalType": "address",
          "name": "borrower",
          "type": "address"
        },
        {
          "indexed": false,
          "internalType": "uint256",
          "name": "amount",
          "type": "uint256"
        }
      ],
      "name": "Borrowed",
      "type": "event"
    },
    {
      "anonymous": false,
      "inputs": [
        {
          "indexed": true,
          "internalType": "address",
          "name": "borrower",
          "type": "address"
        },
        {
          "indexed": false,
          "internalType": "uint256",
          "name": "amount",
          "type": "uint256"
        }
      ],
      "name": "CollateralAdded",
      "type": "event"
    },
    {
      "anonymous": false,
      "inputs": [
        {
          "indexed": true,
          "internalType": "address",
          "name": "lender",
          "type": "address"
        },
        {
          "indexed": false,
          "internalType": "uint256",
          "name": "amount",
          "type": "uint256"
        }
      ],
      "name": "Deposited",
      "type": "event"
    },
    {
      "anonymous": false,
      "inputs": [
        {
          "indexed": true,
          "internalType": "address",
          "name": "lender",
          "type": "address"
        },
        {
          "indexed": false,
          "internalType": "uint256",
          "name": "amount",
          "type": "uint256"
        }
      ],
      "name": "InterestPaid",
      "type": "event"
    },
    {
      "anonymous": false,
      "inputs": [
        {
          "indexed": true,
          "internalType": "address",
          "name": "agent",
          "type": "address"
        },
        {
          "indexed": false,
          "internalType": "uint256",
          "name": "amount",
          "type": "uint256"
        },
        {
          "indexed": false,
          "internalType": "uint256",
          "name": "loanId",
          "type": "uint256"
        },
        {
          "indexed": false,
          "internalType": "bool",
          "name": "fullyRepaid",
          "type": "bool"
        },
        {
          "indexed": false,
          "internalType": "uint256",
          "name": "timestamp",
          "type": "uint256"
        }
      ],
      "name": "LoanRepayment",
      "type": "event"
    },
    {
      "anonymous": false,
      "inputs": [
        {
          "indexed": true,
          "internalType": "address",
          "name": "previousOwner",
          "type": "address"
        },
        {
          "indexed": true,
          "internalType": "address",
          "name": "newOwner",
          "type": "address"
        }
      ],
      "name": "OwnershipTransferred",
      "type": "event"
    },
    {
      "anonymous": false,
      "inputs": [
        {
          "indexed": true,
          "internalType": "address",
          "name": "borrower",
          "type": "address"
        },
        {
          "indexed": false,
          "internalType": "uint256",
          "name": "amount",
          "type": "uint256"
        }
      ],
      "name": "Repaid",
      "type": "event"
    },
    {
      "anonymous": false,
      "inputs": [
        {
          "indexed": true,
          "internalType": "address",
          "name": "lender",
          "type": "address"
        },
        {
          "indexed": false,
          "internalType": "uint256",
          "name": "amount",
          "type": "uint256"
        }
      ],
      "name": "Withdrawn",
      "type": "event"
    },
    {
      "inputs": [
        {
          "internalType": "uint256",
          "name": "amount",
          "type": "uint256"
        }
      ],
      "name": "addCollateral",
      "outputs": [],
      "stateMutability": "nonpayable",
      "type": "function"
    },
    {
      "inputs": [],
      "name": "baseCollateralRatio",
      "outputs": [
        {
          "internalType": "uint256",
          "name": "",
          "type": "uint256"
        }
      ],
      "stateMutability": "view",
      "type": "function"
    },
    {
      "inputs": [
        {
          "internalType": "uint256",
          "name": "amount",
          "type": "uint256"
        }
      ],
      "name": "borrow",
      "outputs": [],
      "stateMutability": "nonpayable",
      "type": "function"
    },
    {
      "inputs": [
        {
          "internalType": "uint256",
          "name": "",
          "type": "uint256"
        }
      ],
      "name": "borrowerList",
      "outputs": [
        {
          "internalType": "address",
          "name": "",
          "type": "address"
        }
      ],
      "stateMutability": "view",
      "type": "function"
    },
    {
      "inputs": [
        {
          "internalType": "address",
          "name": "",
          "type": "address"
        }
      ],
      "name": "borrowers",
      "outputs": [
        {
          "internalType": "uint256",
          "name": "borrowedAmount",
          "type": "uint256"
        },
        {
          "internalType": "uint256",
          "name": "lastBorrowTime",
          "type": "uint256"
        },
        {
          "internalType": "uint256",
          "name": "collateralAmount",
          "type": "uint256"
        },
        {
          "internalType": "bool",
          "name": "isCollateralLocked",
          "type": "bool"
        },
        {
          "internalType": "uint256",
          "name": "interestRateBps",
          "type": "uint256"
        },
        {
          "internalType": "uint256",
          "name": "accruedInterest",
          "type": "uint256"
        },
        {
          "internalType": "uint256",
          "name": "lastInterestUpdate",
          "type": "uint256"
        }
      ],
      "stateMutability": "view",
      "type": "function"
    },
    {
      "inputs": [
        {
          "internalType": "address",
          "name": "lenderAddr",
          "type": "address"
        }
      ],
      "name": "calculatePendingInterest",
      "outputs": [
        {
          "internalType": "uint256",
          "name": "",
          "type": "uint256"
        }
      ],
      "stateMutability": "view",
      "type": "function"
    },
    {
      "inputs": [
        {
          "internalType": "uint256",
          "name": "amount",
          "type": "uint256"
        }
      ],
      "name": "deposit",
      "outputs": [],
      "stateMutability": "nonpayable",
      "type": "function"
    },
    {
      "inputs": [],
      "name": "emergencyWithdraw",
      "outputs": [],
      "stateMutability": "nonpayable",
      "type": "function"
    },
    {
      "inputs": [
        {
          "internalType": "address",
          "name": "borrower",
          "type": "address"
        }
      ],
      "name": "getBorrowerPosition",
      "outputs": [
        {
          "internalType": "uint256",
          "name": "borrowedAmount",
          "type": "uint256"
        },
        {
          "internalType": "uint256",
          "name": "collateralAmount",
          "type": "uint256"
        }
      ],
      "stateMutability": "view",
      "type": "function"
    },
    {
      "inputs": [
        {
          "internalType": "address",
          "name": "lender",
          "type": "address"
        }
      ],
      "name": "getLenderPosition",
      "outputs": [
        {
          "internalType": "uint256",
          "name": "depositedAmount",
          "type": "uint256"
        },
        {
          "internalType": "uint256",
          "name": "earnedInterest",
          "type": "uint256"
        }
      ],
      "stateMutability": "view",
      "type": "function"
    },
    {
      "inputs": [],
      "name": "getPoolStats",
      "outputs": [
        {
          "internalType": "uint256",
          "name": "_totalDeposits",
          "type": "uint256"
        },
        {
          "internalType": "uint256",
          "name": "_totalBorrowed",
          "type": "uint256"
        },
        {
          "internalType": "uint256",
          "name": "_availableLiquidity",
          "type": "uint256"
        },
        {
          "internalType": "uint256",
          "name": "_interestRate",
          "type": "uint256"
        }
      ],
      "stateMutability": "view",
      "type": "function"
    },
    {
      "inputs": [
        {
          "internalType": "address",
          "name": "agent",
          "type": "address"
        }
      ],
      "name": "getRepaymentHistory",
      "outputs": [
        {
          "components": [
            {
              "internalType": "uint256",
              "name": "loanId",
              "type": "uint256"
            },
            {
              "internalType": "uint256",
              "name": "amount",
              "type": "uint256"
            },
            {
              "internalType": "bool",
              "name": "fullyRepaid",
              "type": "bool"
            },
            {
              "internalType": "uint256",
              "name": "timestamp",
              "type": "uint256"
            }
          ],
          "internalType": "struct LendingPool.RepaymentRecord[]",
          "name": "",
          "type": "tuple[]"
        }
      ],
      "stateMutability": "view",
      "type": "function"
    },
    {
      "inputs": [],
      "name": "interestRate",
      "outputs": [
        {
          "internalType": "uint256",
          "name": "",
          "type": "uint256"
        }
      ],
      "stateMutability": "view",
      "type": "function"
    },
    {
      "inputs": [
        {
          "internalType": "uint256",
          "name": "",
          "type": "uint256"
        }
      ],
      "name": "lenderList",
      "outputs": [
        {
          "internalType": "address",
          "name": "",
          "type": "address"
        }
      ],
      "stateMutability": "view",
      "type": "function"
    },
    {
      "inputs": [
        {
          "internalType": "address",
          "name": "",
          "type": "address"
        }
      ],
      "name": "lenders",
      "outputs": [
        {
          "internalType": "uint256",
          "name": "depositedAmount",
          "type": "uint256"
        },
        {
          "internalType": "uint256",
          "name": "lastDepositTime",
          "type": "uint256"
        },
        {
          "internalType": "uint256",
          "name": "earnedInterest",
          "type": "uint256"
        },
        {
          "internalType": "uint256",
          "name": "yieldClaimed",
          "type": "uint256"
        }
      ],
      "stateMutability": "view",
      "type": "function"
    },
    {
      "inputs": [],
      "name": "nextLoanId",
      "outputs": [
        {
          "internalType": "uint256",
          "name": "",
          "type": "uint256"
        }
      ],
      "stateMutability": "view",
      "type": "function"
    },
    {
      "inputs": [],
      "name": "owner",
      "outputs": [
        {
          "internalType": "address",
          "name": "",
          "type": "address"
        }
      ],
      "stateMutability": "view",
      "type": "function"
    },
    {
      "inputs": [],
      "name": "pyusdToken",
      "outputs": [
        {
          "internalType": "contract IERC20",
          "name": "",
          "type": "address"
        }
      ],
      "stateMutability": "view",
      "type": "function"
    },
    {
      "inputs": [],
      "name": "renounceOwnership",
      "outputs": [],
      "stateMutability": "nonpayable",
      "type": "function"
    },
    {
      "inputs": [
        {
          "internalType": "address",
          "name": "_borrower",
          "type": "address"
        },
        {
          "internalType": "uint256",
          "name": "amount",
          "type": "uint256"
        }
      ],
      "name": "repay",
      "outputs": [],
      "stateMutability": "nonpayable",
      "type": "function"
    },
    {
      "inputs": [
        {
          "internalType": "address",
          "name": "",
          "type": "address"
        },
        {
          "internalType": "uint256",
          "name": "",
          "type": "uint256"
        }
      ],
      "name": "repaymentHistory",
      "outputs": [
        {
          "internalType": "uint256",
          "name": "loanId",
          "type": "uint256"
        },
        {
          "internalType": "uint256",
          "name": "amount",
          "type": "uint256"
        },
        {
          "internalType": "bool",
          "name": "fullyRepaid",
          "type": "bool"
        },
        {
          "internalType": "uint256",
          "name": "timestamp",
          "type": "uint256"
        }
      ],
      "stateMutability": "view",
      "type": "function"
    },
    {
      "inputs": [],
      "name": "scoreOracle",
      "outputs": [
        {
          "internalType": "contract IAgentScoreAttestation",
          "name": "",
          "type": "address"
        }
      ],
      "stateMutability": "view",
      "type": "function"
    },
    {
      "inputs": [
        {
          "internalType": "uint256",
          "name": "newRatio",
          "type": "uint256"
        }
      ],
      "name": "setCollateralRatio",
      "outputs": [],
      "stateMutability": "nonpayable",
      "type": "function"
    },
    {
      "inputs": [
        {
          "internalType": "uint256",
          "name": "newRate",
          "type": "uint256"
        }
      ],
      "name": "setInterestRate",
      "outputs": [],
      "stateMutability": "nonpayable",
      "type": "function"
    },
    {
      "inputs": [
        {
          "internalType": "address",
          "name": "_processor",
          "type": "address"
        }
      ],
      "name": "setX402Processor",
      "outputs": [],
      "stateMutability": "nonpayable",
      "type": "function"
    },
    {
      "inputs": [],
      "name": "totalBorrowed",
      "outputs": [
        {
          "internalType": "uint256",
          "name": "",
          "type": "uint256"
        }
      ],
      "stateMutability": "view",
      "type": "function"
    },
    {
      "inputs": [],
      "name": "totalDeposits",
      "outputs": [
        {
          "internalType": "uint256",
          "name": "",
          "type": "uint256"
        }
      ],
      "stateMutability": "view",
      "type": "function"
    },
    {
      "inputs": [],
      "name": "totalInterestAccrued",
      "outputs": [
        {
          "internalType": "uint256",
          "name": "",
          "type": "uint256"
        }
      ],
      "stateMutability": "view",
      "type": "function"
    },
    {
      "inputs": [],
      "name": "totalInterestCollected",
      "outputs": [
        {
          "internalType": "uint256",
          "name": "",
          "type": "uint256"
        }
      ],
      "stateMutability": "view",
      "type": "function"
    },
    {
      "inputs": [],
      "name": "totalYieldPool",
      "outputs": [
        {
          "internalType": "uint256",
          "name": "",
          "type": "uint256"
        }
      ],
      "stateMutability": "view",
      "type": "function"
    },
    {
      "inputs": [
        {
          "internalType": "address",
          "name": "newOwner",
          "type": "address"
        }
      ],
      "name": "transferOwnership",
      "outputs": [],
      "stateMutability": "nonpayable",
      "type": "function"
    },
    {
      "inputs": [
        {
          "internalType": "uint256",
          "name": "amount",
          "type": "uint256"
        }
      ],
      "name": "withdraw",
      "outputs": [],
      "stateMutability": "nonpayable",
      "type": "function"
    },
    {
      "inputs": [],
      "name": "x402Processor",
      "outputs": [
        {
          "internalType": "address",
          "name": "",
          "type": "address"
        }
      ],
      "stateMutability": "view",
      "type": "function"
    }
  ],
  "bytecode": "0x60806040526101f4600b556096600c5560016011553480156200002157600080fd5b5060405162001d2238038062001d228339810160408190526200004491620000f2565b6200004f3362000085565b60018055600280546001600160a01b039384166001600160a01b031991821617909155600380549290931691161790556200012a565b600080546001600160a01b038381166001600160a01b0319831681178455604051919092169283917f8be0079c531659141344cd1fd0a4f28419497f9722a3daafe3b4186f6b6457e09190a35050565b80516001600160a01b0381168114620000ed57600080fd5b919050565b600080604083850312156200010657600080fd5b6200011183620000d5565b91506200012160208401620000d5565b90509250929050565b611be8806200013a6000396000f3fe608060405234801561001057600080fd5b50600436106101fb5760003560e01c8063917630091161011a578063c5ebeaec116100ad578063e6543be31161007c578063e6543be3146104cc578063f2fde38b14610505578063fb3aca4b14610518578063fcad8ff31461052b578063fd7be1361461053457600080fd5b8063c5ebeaec1461047e578063c8bea31714610491578063cb8b748b146104a4578063db2e21bc146104c457600080fd5b8063bb3f6736116100e9578063bb3f6736146103ad578063bbb85188146103de578063bcc46e83146103e6578063bf5d50c4146103f957600080fd5b8063917630091461036b578063993c36e11461037e578063b3a6652414610387578063b6b55f251461039a57600080fd5b80636085c7df116101925780637d882097116101615780637d8820971461033557806387c514591461033e5780638cbc84ba146103475780638da5cb5b1461035a57600080fd5b80636085c7df146102f05780636f7833131461031b578063715018a6146103245780637c3a00fd1461032c57600080fd5b80634c19386c116101ce5780634c19386c146102995780635d413fa2146102a25780635f84f302146102ca5780636060663e146102dd57600080fd5b80631cd724ac1461020057806322867d781461021c57806328fd10d7146102315780632e1a7d4d14610286575b600080fd5b610209600d5481565b6040519081526020015b60405180910390f35b61022f61022a36600461196e565b610547565b005b61026661023f366004611998565b60056020526000908152604090208054600182015460028301546003909301549192909184565b604080519485526020850193909352918301526060820152608001610213565b61022f6102943660046119ba565b6108ff565b610209600a5481565b6102b56102b0366004611998565b610b3f565b60408051928352602083019190915201610213565b61022f6102d83660046119ba565b610b86565b61022f6102eb3660046119ba565b610bde565b6103036102fe3660046119ba565b610c4a565b6040516001600160a01b039091168152602001610213565b610209600e5481565b61022f610c74565b610209600b5481565b61020960095481565b61020960115481565b61022f610355366004611998565b610c88565b6000546001600160a01b0316610303565b600254610303906001600160a01b031681565b610209600f5481565b6103036103953660046119ba565b610cb2565b61022f6103a83660046119ba565b610cc2565b6102b56103bb366004611998565b6001600160a01b0316600090815260066020526040902080546002909101549091565b610266610eeb565b61022f6103f43660046119ba565b610f18565b610449610407366004611998565b6006602081905260009182526040909120805460018201546002830154600384015460048501546005860154959096015493959294919360ff90911692919087565b604080519788526020880196909652948601939093529015156060850152608084015260a083015260c082015260e001610213565b61022f61048c3660046119ba565b611032565b61020961049f366004611998565b61144f565b6104b76104b2366004611998565b6114d1565b60405161021391906119d3565b61022f61156d565b6104df6104da36600461196e565b611695565b604080519485526020850193909352901515918301919091526060820152608001610213565b61022f610513366004611998565b6116e1565b600354610303906001600160a01b031681565b610209600c5481565b600454610303906001600160a01b031681565b61054f611757565b600081116105785760405162461bcd60e51b815260040161056f90611a39565b60405180910390fd5b610581826117b0565b6001600160a01b0382166000908152600660205260409020600581015481546105aa9190611a86565b8211156105f95760405162461bcd60e51b815260206004820152601960248201527f416d6f756e74206578636565647320746f74616c206f77656400000000000000604482015260640161056f565b6002546040516323b872dd60e01b81523360048201523060248201526044810184905283916001600160a01b0316906323b872dd906064016020604051808303816000875af1158015610650573d6000803e3d6000fd5b505050506040513d601f19601f820116820180604052508101906106749190611a9f565b6106905760405162461bcd60e51b815260040161056f90611ac1565b600082600501541180156106a45750600081115b1561075b57600082600501548210156106bd57816106c3565b82600501545b9050808360050160008282546106d99190611aea565b9250508190555080600e60008282546106f29190611a86565b9091555061070290508183611aea565b915080600f60008282546107169190611a86565b90915550506040518181526001600160a01b038616907f16cbc685358ca7d4e6b273dcdf2cb5d18c80b950aa2319b519756cd016233a6c9060200160405180910390a2505b600081156107aa5782548210156107725781610775565b82545b90508083600001600082825461078b9190611aea565b9250508190555080600a60008282546107a49190611aea565b90915550505b82546000036107c05760038301805460ff191690555b846001600160a01b03167f0516911bcc3a0a7412a44601057c0a0a1ec628bde049a84284bc428866534488856040516107fb91815260200190565b60405180910390a28254601180549115916000918261081983611afd565b9091555060408051858152602081018390528415158183015242606082015290519192506001600160a01b038916917f8904aa329604201a3fd51cb2791bc5e77651537882a4cce7a6d0dfd0a84d43489181900360800190a26001600160a01b0387166000908152601060209081526040808320815160808101835294855284830196875294151590840190815242606085019081528554600180820188559685529290932093516004909202909301908155935184840155905160028401805460ff1916911515919091179055516003909201919091558055506108fb9050565b5050565b610907611757565b600081116109275760405162461bcd60e51b815260040161056f90611a39565b3360009081526005602052604081206002810154815491929161094a9190611a86565b9050808311156109935760405162461bcd60e51b8152602060048201526014602482015273496e73756666696369656e742062616c616e636560601b604482015260640161056f565b600061099e3361144f565b905060008184600201546109b29190611a86565b90506000846000015486116109c757856109ca565b84545b905060006109d88288611aea565b9050818660000160008282546109ee9190611aea565b909155506109fe90508184611aea565b600287015542600187015560098054839190600090610a1e908490611aea565b909155505060095415801590610a345750855415155b15610a5f576009548654600f54610a4b9190611b16565b610a559190611b2d565b6003870155610a67565b600060038701555b60025460405163a9059cbb60e01b8152336004820152602481018990526001600160a01b039091169063a9059cbb906044016020604051808303816000875af1158015610ab8573d6000803e3d6000fd5b505050506040513d601f19601f82011682018060405250810190610adc9190611a9f565b610af85760405162461bcd60e51b815260040161056f90611ac1565b60405187815233907f7084f5476618d8e60b11ef0d7d3f06914655adb8793e28ff7f018d4c76d505d59060200160405180910390a2505050505050610b3c60018055565b50565b6000806000610b4d8461144f565b6001600160a01b0385166000908152600560205260409020805460029091015491925090610b7c908390611a86565b9250925050915091565b610b8e61185b565b6107d0811115610bd95760405162461bcd60e51b8152602060048201526016602482015275092dce8cae4cae6e840e4c2e8ca40e8dede40d0d2ced60531b604482015260640161056f565b600b55565b610be661185b565b60648110158015610bf9575061012c8111155b610c455760405162461bcd60e51b815260206004820152601860248201527f496e76616c696420636f6c6c61746572616c20726174696f0000000000000000604482015260640161056f565b600c55565b60078181548110610c5a57600080fd5b6000918252602090912001546001600160a01b0316905081565b610c7c61185b565b610c8660006118b5565b565b610c9061185b565b600480546001600160a01b0319166001600160a01b0392909216919091179055565b60088181548110610c5a57600080fd5b610cca611757565b60008111610cea5760405162461bcd60e51b815260040161056f90611a39565b6002546040516323b872dd60e01b8152336004820152306024820152604481018390526001600160a01b03909116906323b872dd906064016020604051808303816000875af1158015610d41573d6000803e3d6000fd5b505050506040513d601f19601f82011682018060405250810190610d659190611a9f565b610d815760405162461bcd60e51b815260040161056f90611ac1565b336000908152600560205260408120549003610dda57600780546001810182556000919091527fa66cc928b5edb82af9bd49922954155ab7b0942694bea4ce44661d9a8736c6880180546001600160a01b031916331790555b6000610de53361144f565b90508015610e15573360009081526005602052604081206002018054839290610e0f908490611a86565b90915550505b3360009081526005602052604081208054849290610e34908490611a86565b90915550503360009081526005602052604081204260019091015560098054849290610e61908490611a86565b909155505060095433600090815260056020526040902054600f54610e869190611b16565b610e909190611b2d565b33600081815260056020526040908190206003019290925590517f2da466a7b24304f47e87fa2e1e5a81b9831ce54fec19055ce277ca2f39ba42c490610ed99085815260200190565b60405180910390a250610b3c60018055565b600080600080600954600a54600a54600954610f079190611aea565b600b54935093509350935090919293565b610f20611757565b60008111610f405760405162461bcd60e51b815260040161056f90611a39565b6002546040516323b872dd60e01b8152336004820152306024820152604481018390526001600160a01b03909116906323b872dd906064016020604051808303816000875af1158015610f97573d6000803e3d6000fd5b505050506040513d601f19601f82011682018060405250810190610fbb9190611a9f565b610fd75760405162461bcd60e51b815260040161056f90611ac1565b33600090815260066020526040812060028101805491928492610ffb908490611a86565b909155505060405182815233907f7dba1be544024070cd5eebfa8bdd80a8b198cea8058c7d3cc1f8dd36e41ab2f790602001610ed9565b61103a611757565b6000811161105a5760405162461bcd60e51b815260040161056f90611a39565b600354604051630d47875d60e41b815233600482015260009182916001600160a01b039091169063d47875d0906024016040805180830381865afa1580156110a6573d6000803e3d6000fd5b505050506040513d601f19601f820116820180604052508101906110ca9190611b4f565b909250905061ffff821662093a806110e863ffffffff841642611aea565b11156111245760405162461bcd60e51b815260206004820152600b60248201526a53636f7265207374616c6560a81b604482015260640161056f565b6101f48110156111665760405162461bcd60e51b815260206004820152600d60248201526c53636f726520746f6f206c6f7760981b604482015260640161056f565b600061032082106111815750681b1ae4d6e2ef5000006111c7565b6102bc821061119a5750680ad78ebc5ac62000006111c7565b61025882106111b357506802b5e3af16b18800006111c7565b6101f482106111c75750678ac7230489e800005b600081116112175760405162461bcd60e51b815260206004820152601e60248201527f4372656469742073636f726520746f6f206c6f7720746f20626f72726f770000604482015260640161056f565b33600090815260066020526040902080548290611235908890611a86565b11156112835760405162461bcd60e51b815260206004820181905260248201527f457863656564732073636f72652d626173656420637265646974206c696d6974604482015260640161056f565b85600a546112919190611a86565b60095410156112e25760405162461bcd60e51b815260206004820152601e60248201527f496e73756666696369656e74206c697175696469747920696e20706f6f6c0000604482015260640161056f565b805460000361132e57600880546001810182556000919091527ff3f7a9fe364faab93b216da50a3214154f22a0a2b415b23a84c8169e8b636ee30180546001600160a01b031916331790555b61133785611905565b6004820155426006820155805486908290600090611356908490611a86565b9091555050426001820155600a8054879190600090611376908490611a86565b909155505060025460405163a9059cbb60e01b8152336004820152602481018890526001600160a01b039091169063a9059cbb906044016020604051808303816000875af11580156113cc573d6000803e3d6000fd5b505050506040513d601f19601f820116820180604052508101906113f09190611a9f565b61140c5760405162461bcd60e51b815260040161056f90611ac1565b60405186815233907fac59582e5396aca512fa873a2047e7f4c80f8f55d4a06cb34a78a0187f62719f9060200160405180910390a25050505050610b3c60018055565b6001600160a01b0381166000908152600560205260408120805415806114755750600954155b156114835750600092915050565b6009548154600f546000929161149891611b16565b6114a29190611b2d565b905081600301548111156114c75760038201546114bf9082611aea565b949350505050565b5060009392505050565b6001600160a01b0381166000908152601060209081526040808320805482518185028101850190935280835260609492939192909184015b8282101561156257600084815260209081902060408051608081018252600486029092018054835260018082015484860152600282015460ff161515928401929092526003015460608301529083529092019101611509565b505050509050919050565b61157561185b565b6002546040516370a0823160e01b81523060048201526000916001600160a01b0316906370a0823190602401602060405180830381865afa1580156115be573d6000803e3d6000fd5b505050506040513d601f19601f820116820180604052508101906115e29190611b99565b6002549091506001600160a01b031663a9059cbb6116086000546001600160a01b031690565b6040516001600160e01b031960e084901b1681526001600160a01b039091166004820152602481018490526044016020604051808303816000875af1158015611655573d6000803e3d6000fd5b505050506040513d601f19601f820116820180604052508101906116799190611a9f565b610b3c5760405162461bcd60e51b815260040161056f90611ac1565b601060205281600052604060002081815481106116b157600080fd5b60009182526020909120600490910201805460018201546002830154600390930154919450925060ff9091169084565b6116e961185b565b6001600160a01b03811661174e5760405162461bcd60e51b815260206004820152602660248201527f4f776e61626c653a206e6577206f776e657220697320746865207a65726f206160448201526564647265737360d01b606482015260840161056f565b610b3c816118b5565b6002600154036117a95760405162461bcd60e51b815260206004820152601f60248201527f5265656e7472616e637947756172643a207265656e7472616e742063616c6c00604482015260640161056f565b6002600155565b6001600160a01b038116600090815260066020526040812080549091036117d5575050565b60008160060154426117e79190611aea565b9050600064496cebb80082846004015485600001546118069190611b16565b6118109190611b16565b61181a9190611b2d565b9050808360050160008282546118309190611a86565b9091555050426006840155600d8054829190600090611850908490611a86565b909155505050505050565b6000546001600160a01b03163314610c865760405162461bcd60e51b815260206004820181905260248201527f4f776e61626c653a2063616c6c6572206973206e6f7420746865206f776e6572604482015260640161056f565b600080546001600160a01b038381166001600160a01b0319831681178455604051919092169283917f8be0079c531659141344cd1fd0a4f28419497f9722a3daafe3b4186f6b6457e09190a35050565b60006102ee8261ffff161061191d57506101f4919050565b6102bc8261ffff161061193357506103e8919050565b6102588261ffff161061194957506105dc919050565b506107d0919050565b80356001600160a01b038116811461196957600080fd5b919050565b6000806040838503121561198157600080fd5b61198a83611952565b946020939093013593505050565b6000602082840312156119aa57600080fd5b6119b382611952565b9392505050565b6000602082840312156119cc57600080fd5b5035919050565b602080825282518282018190526000919060409081850190868401855b82811015611a2c5781518051855286810151878601528581015115158686015260609081015190850152608090930192908501906001016119f0565b5091979650505050505050565b6020808252601d908201527f416d6f756e74206d7573742062652067726561746572207468616e2030000000604082015260600190565b634e487b7160e01b600052601160045260246000fd5b80820180821115611a9957611a99611a70565b92915050565b600060208284031215611ab157600080fd5b815180151581146119b357600080fd5b6020808252600f908201526e151c985b9cd9995c8819985a5b1959608a1b604082015260600190565b81810381811115611a9957611a99611a70565b600060018201611b0f57611b0f611a70565b5060010190565b8082028115828204841417611a9957611a99611a70565b600082611b4a57634e487b7160e01b600052601260045260246000fd5b500490565b60008060408385031215611b6257600080fd5b825161ffff81168114611b7457600080fd5b602084015190925063ffffffff81168114611b8e57600080fd5b809150509250929050565b600060208284031215611bab57600080fd5b505191905056fea26469706673582212209d9cd9ee6742d15ad56480ef5f6fcdffa7779f90750d93168bce2c9ab7560f0864736f6c63430008130033",
  "linkReferences": {},
  "deployedLinkReferences": {}
}