{
  "_format": "hh-sol-artifact-1",
  "contractName": "X402Processor",
  "sourceName": "contracts/X402Processor.sol",
  "abi": [
    {
      "inputs": [
        {
          "internalType": "address",
          "name": "_lendingPool",
          "type": "address"
        }
      ],
      "stateMutability": "nonpayable",
      "type": "constructor"
    },
    {
      "anonymous": false,
      "inputs": [
        {
          "indexed": true,
          "internalType": "address",
          "name": "previousOwner",
          "type": "address"
        },
        {
          "indexed": true,
          "internalType": "address",
          "name": "newOwner",
          "type": "address"
        }
      ],
      "name": "OwnershipTransferred",
      "type": "event"
    },
    {
      "anonymous": false,
      "inputs": [
        {
          "indexed": true,
          "internalType": "address",
          "name": "from",
          "type": "address"
        },
        {
          "indexed": true,
          "internalType": "address",
          "name": "to",
          "type": "address"
        },
        {
          "indexed": true,
          "internalType": "address",
          "name": "token",
          "type": "address"
        },
        {
          "indexed": false,
          "internalType": "uint256",
          "name": "totalAmount",
          "type": "uint256"
        },
        {
          "indexed": false,
          "internalType": "uint256",
          "name": "agentPortion",
          "type": "uint256"
        },
        {
          "indexed": false,
          "internalType": "uint256",
          "name": "poolPortion",
          "type": "uint256"
        }
      ],
      "name": "PaymentSplit",
      "type": "event"
    },
    {
      "inputs": [],
      "name": "REPAYMENT_PERCENTAGE",
      "outputs": [
        {
          "internalType": "uint256",
          "name": "",
          "type": "uint256"
        }
      ],
      "stateMutability": "view",
      "type": "function"
    },
    {
      "inputs": [],
      "name": "lendingPool",
      "outputs": [
        {
          "internalType": "address",
          "name": "",
          "type": "address"
        }
      ],
      "stateMutability": "view",
      "type": "function"
    },
    {
      "inputs": [],
      "name": "owner",
      "outputs": [
        {
          "internalType": "address",
          "name": "",
          "type": "address"
        }
      ],
      "stateMutability": "view",
      "type": "function"
    },
    {
      "inputs": [],
      "name": "renounceOwnership",
      "outputs": [],
      "stateMutability": "nonpayable",
      "type": "function"
    },
    {
      "inputs": [
        {
          "internalType": "address",
          "name": "_lendingPool",
          "type": "address"
        }
      ],
      "name": "setLendingPool",
      "outputs": [],
      "stateMutability": "nonpayable",
      "type": "function"
    },
    {
      "inputs": [
        {
          "internalType": "address",
          "name": "_token",
          "type": "address"
        },
        {
          "internalType": "address",
          "name": "_targetAgent",
          "type": "address"
        },
        {
          "internalType": "uint256",
          "name": "_amount",
          "type": "uint256"
        }
      ],
      "name": "splitPayment",
      "outputs": [],
      "stateMutability": "nonpayable",
      "type": "function"
    },
    {
      "inputs": [
        {
          "internalType": "address",
          "name": "newOwner",
          "type": "address"
        }
      ],
      "name": "transferOwnership",
      "outputs": [],
      "stateMutability": "nonpayable",
      "type": "function"
    }
  ],
  "bytecode": "0x608060405234801561001057600080fd5b506040516107a93803806107a983398101604081905261002f916100b1565b61003833610061565b60018055600280546001600160a01b0319166001600160a01b03929092169190911790556100e1565b600080546001600160a01b038381166001600160a01b0319831681178455604051919092169283917f8be0079c531659141344cd1fd0a4f28419497f9722a3daafe3b4186f6b6457e09190a35050565b6000602082840312156100c357600080fd5b81516001600160a01b03811681146100da57600080fd5b9392505050565b6106b9806100f06000396000f3fe608060405234801561001057600080fd5b506004361061007d5760003560e01c80638da5cb5b1161005b5780638da5cb5b146100b2578063a59a9973146100dc578063f2fde38b146100ef578063ff922eff1461010257600080fd5b8063113aa8b114610082578063715018a6146100975780637c17db6f1461009f575b600080fd5b61009561009036600461059b565b610118565b005b610095610142565b6100956100ad3660046105bd565b610156565b6000546001600160a01b03165b6040516001600160a01b0390911681526020015b60405180910390f35b6002546100bf906001600160a01b031681565b6100956100fd36600461059b565b610403565b61010a601e81565b6040519081526020016100d3565b61012061047c565b600280546001600160a01b0319166001600160a01b0392909216919091179055565b61014a61047c565b61015460006104d6565b565b61015e610526565b600081116101a85760405162461bcd60e51b81526020600482015260126024820152710416d6f756e74206d757374206265203e20360741b60448201526064015b60405180910390fd5b6001600160a01b0382166101f65760405162461bcd60e51b8152602060048201526015602482015274496e76616c6964206167656e74206164647265737360581b604482015260640161019f565b60006064610205601e8461060f565b61020f919061062c565b9050600061021d828461064e565b6002546040516323b872dd60e01b81523360048201526001600160a01b039182166024820152604481018590529192508691908216906323b872dd906064016020604051808303816000875af115801561027b573d6000803e3d6000fd5b505050506040513d601f19601f8201168201806040525081019061029f9190610661565b6102e25760405162461bcd60e51b8152602060048201526014602482015273141bdbdb081d1c985b9cd9995c8819985a5b195960621b604482015260640161019f565b6040516323b872dd60e01b81523360048201526001600160a01b038681166024830152604482018490528216906323b872dd906064016020604051808303816000875af1158015610337573d6000803e3d6000fd5b505050506040513d601f19601f8201168201806040525081019061035b9190610661565b61039f5760405162461bcd60e51b81526020600482015260156024820152741059d95b9d081d1c985b9cd9995c8819985a5b1959605a1b604482015260640161019f565b60408051858152602081018490529081018490526001600160a01b03808816919087169033907fbafd82479c3a348d9981f5fb5379508334ed07c90fc5a52cc0296193140cf0239060600160405180910390a45050506103fe60018055565b505050565b61040b61047c565b6001600160a01b0381166104705760405162461bcd60e51b815260206004820152602660248201527f4f776e61626c653a206e6577206f776e657220697320746865207a65726f206160448201526564647265737360d01b606482015260840161019f565b610479816104d6565b50565b6000546001600160a01b031633146101545760405162461bcd60e51b815260206004820181905260248201527f4f776e61626c653a2063616c6c6572206973206e6f7420746865206f776e6572604482015260640161019f565b600080546001600160a01b038381166001600160a01b0319831681178455604051919092169283917f8be0079c531659141344cd1fd0a4f28419497f9722a3daafe3b4186f6b6457e09190a35050565b6002600154036105785760405162461bcd60e51b815260206004820152601f60248201527f5265656e7472616e637947756172643a207265656e7472616e742063616c6c00604482015260640161019f565b6002600155565b80356001600160a01b038116811461059657600080fd5b919050565b6000602082840312156105ad57600080fd5b6105b68261057f565b9392505050565b6000806000606084860312156105d257600080fd5b6105db8461057f565b92506105e96020850161057f565b9150604084013590509250925092565b634e487b7160e01b600052601160045260246000fd5b8082028115828204841417610626576106266105f9565b92915050565b60008261064957634e487b7160e01b600052601260045260246000fd5b500490565b81810381811115610626576106266105f9565b60006020828403121561067357600080fd5b815180151581146105b657600080fdfea2646970667358221220dd5db2cdf05a163f3bf8e17a30c30bdb76dc1c1866ebaaf46f2e6ed182fccf1364736f6c63430008130033",
  "linkReferences": {},
  "deployedLinkReferences": {}
}