{
  "_format": "hh-sol-artifact-1",
  "contractName": "X402Processor",
  "sourceName": "contracts/X402Processor.sol",
  "abi": [
    {
      "inputs": [
        {
          "internalType": "address",
          "name": "_lendingPool",
          "type": "address"
        }
      ],
      "stateMutability": "nonpayable",
      "type": "constructor"
    },
    {
      "anonymous": false,
      "inputs": [
        {
          "indexed": true,
          "internalType": "address",
          "name": "previousOwner",
          "type": "address"
        },
        {
          "indexed": true,
          "internalType": "address",
          "name": "newOwner",
          "type": "address"
        }
      ],
      "name": "OwnershipTransferred",
      "type": "event"
    },
    {
      "anonymous": false,
      "inputs": [
        {
          "indexed": true,
          "internalType": "address",
          "name": "from",
          "type": "address"
        },
        {
          "indexed": true,
          "internalType": "address",
          "name": "to",
          "type": "address"
        },
        {
          "indexed": true,
          "internalType": "address",
          "name": "token",
          "type": "address"
        },
        {
          "indexed": false,
          "internalType": "uint256",
          "name": "totalAmount",
          "type": "uint256"
        },
        {
          "indexed": false,
          "internalType": "uint256",
          "name": "agentPortion",
          "type": "uint256"
        },
        {
          "indexed": false,
          "internalType": "uint256",
          "name": "poolPortion",
          "type": "uint256"
        }
      ],
      "name": "PaymentSplit",
      "type": "event"
    },
    {
      "inputs": [],
      "name": "REPAYMENT_PERCENTAGE",
      "outputs": [
        {
          "internalType": "uint256",
          "name": "",
          "type": "uint256"
        }
      ],
      "stateMutability": "view",
      "type": "function"
    },
    {
      "inputs": [],
      "name": "lendingPool",
      "outputs": [
        {
          "internalType": "address",
          "name": "",
          "type": "address"
        }
      ],
      "stateMutability": "view",
      "type": "function"
    },
    {
      "inputs": [],
      "name": "owner",
      "outputs": [
        {
          "internalType": "address",
          "name": "",
          "type": "address"
        }
      ],
      "stateMutability": "view",
      "type": "function"
    },
    {
      "inputs": [],
      "name": "renounceOwnership",
      "outputs": [],
      "stateMutability": "nonpayable",
      "type": "function"
    },
    {
      "inputs": [
        {
          "internalType": "address",
          "name": "_lendingPool",
          "type": "address"
        }
      ],
      "name": "setLendingPool",
      "outputs": [],
      "stateMutability": "nonpayable",
      "type": "function"
    },
    {
      "inputs": [
        {
          "internalType": "address",
          "name": "_token",
          "type": "address"
        },
        {
          "internalType": "address",
          "name": "_targetAgent",
          "type": "address"
        },
        {
          "internalType": "uint256",
          "name": "_amount",
          "type": "uint256"
        }
      ],
      "name": "splitPayment",
      "outputs": [],
      "stateMutability": "nonpayable",
      "type": "function"
    },
    {
      "inputs": [
        {
          "internalType": "address",
          "name": "newOwner",
          "type": "address"
        }
      ],
      "name": "transferOwnership",
      "outputs": [],
      "stateMutability": "nonpayable",
      "type": "function"
    }
  ],
  "bytecode": "0x608060405234801561001057600080fd5b5060405161088138038061088183398101604081905261002f916100b1565b61003833610061565b60018055600280546001600160a01b0319166001600160a01b03929092169190911790556100e1565b600080546001600160a01b038381166001600160a01b0319831681178455604051919092169283917f8be0079c531659141344cd1fd0a4f28419497f9722a3daafe3b4186f6b6457e09190a35050565b6000602082840312156100c357600080fd5b81516001600160a01b03811681146100da57600080fd5b9392505050565b610791806100f06000396000f3fe608060405234801561001057600080fd5b506004361061007d5760003560e01c80638da5cb5b1161005b5780638da5cb5b146100b2578063a59a9973146100dc578063f2fde38b146100ef578063ff922eff1461010257600080fd5b8063113aa8b114610082578063715018a6146100975780637c17db6f1461009f575b600080fd5b610095610090366004610673565b610118565b005b610095610142565b6100956100ad366004610695565b610156565b6000546001600160a01b03165b6040516001600160a01b0390911681526020015b60405180910390f35b6002546100bf906001600160a01b031681565b6100956100fd366004610673565b6104db565b61010a601e81565b6040519081526020016100d3565b610120610554565b600280546001600160a01b0319166001600160a01b0392909216919091179055565b61014a610554565b61015460006105ae565b565b61015e6105fe565b600081116101a85760405162461bcd60e51b81526020600482015260126024820152710416d6f756e74206d757374206265203e20360741b60448201526064015b60405180910390fd5b6001600160a01b0382166101f65760405162461bcd60e51b8152602060048201526015602482015274496e76616c6964206167656e74206164647265737360581b604482015260640161019f565b60006064610205601e846106e7565b61020f9190610704565b9050600061021d8284610726565b6040516323b872dd60e01b81523360048201523060248201526044810184905290915085906001600160a01b038216906323b872dd906064016020604051808303816000875af1158015610275573d6000803e3d6000fd5b505050506040513d601f19601f820116820180604052508101906102999190610739565b6102dc5760405162461bcd60e51b8152602060048201526014602482015273141bdbdb081d1c985b9cd9995c8819985a5b195960621b604482015260640161019f565b60025460405163095ea7b360e01b81526001600160a01b039182166004820152602481018590529082169063095ea7b3906044016020604051808303816000875af115801561032f573d6000803e3d6000fd5b505050506040513d601f19601f820116820180604052508101906103539190610739565b50600254604051630450cfaf60e31b81526001600160a01b03878116600483015260248201869052909116906322867d7890604401600060405180830381600087803b1580156103a257600080fd5b505af11580156103b6573d6000803e3d6000fd5b50506040516323b872dd60e01b81523360048201526001600160a01b03888116602483015260448201869052841692506323b872dd91506064016020604051808303816000875af115801561040f573d6000803e3d6000fd5b505050506040513d601f19601f820116820180604052508101906104339190610739565b6104775760405162461bcd60e51b81526020600482015260156024820152741059d95b9d081d1c985b9cd9995c8819985a5b1959605a1b604482015260640161019f565b60408051858152602081018490529081018490526001600160a01b03808816919087169033907fbafd82479c3a348d9981f5fb5379508334ed07c90fc5a52cc0296193140cf0239060600160405180910390a45050506104d660018055565b505050565b6104e3610554565b6001600160a01b0381166105485760405162461bcd60e51b815260206004820152602660248201527f4f776e61626c653a206e6577206f776e657220697320746865207a65726f206160448201526564647265737360d01b606482015260840161019f565b610551816105ae565b50565b6000546001600160a01b031633146101545760405162461bcd60e51b815260206004820181905260248201527f4f776e61626c653a2063616c6c6572206973206e6f7420746865206f776e6572604482015260640161019f565b600080546001600160a01b038381166001600160a01b0319831681178455604051919092169283917f8be0079c531659141344cd1fd0a4f28419497f9722a3daafe3b4186f6b6457e09190a35050565b6002600154036106505760405162461bcd60e51b815260206004820152601f60248201527f5265656e7472616e637947756172643a207265656e7472616e742063616c6c00604482015260640161019f565b6002600155565b80356001600160a01b038116811461066e57600080fd5b919050565b60006020828403121561068557600080fd5b61068e82610657565b9392505050565b6000806000606084860312156106aa57600080fd5b6106b384610657565b92506106c160208501610657565b9150604084013590509250925092565b634e487b7160e01b600052601160045260246000fd5b80820281158282048414176106fe576106fe6106d1565b92915050565b60008261072157634e487b7160e01b600052601260045260246000fd5b500490565b818103818111156106fe576106fe6106d1565b60006020828403121561074b57600080fd5b8151801515811461068e57600080fdfea2646970667358221220cf4236b7f732d48dc1ceccb3f9435228ec0f3c5cdf228e180c0f2cd04319374764736f6c63430008130033",
  "linkReferences": {},
  "deployedLinkReferences": {}
}